:020000040800F2
:10000000901200205527000831050008330500082C
:10001000370500083B0500083F0500080000000008
:100020000000000000000000000000004305000880
:1000300045050008000000004705000849050008C4
:100040006F2700086F2700086F270008AD320008EF
:100050006F2700086F2700086F2700086F27000828
:100060006F2700086F2700086F2700086F27000818
:100070006F2700086F2700086F2700086F27000808
:100080006F2700086F2700086F2700086F270008F8
:100090006F2700086F2700086F2700086F270008E8
:1000A0006F2700086F2700086F2700086F270008D8
:1000B0006F27000827290008554900086F27000806
:1000C0006F2700086F2700086F2700086F270008B8
:1000D0006F270008533C0008C13C00080D3D000894
:1000E0006F2700086F2700086F2700086F27000898
:1000F0006F2700086F2700086F2700086F27000888
:100100006F2700086F2700086F2700086F27000877
:100110006F2700086F2700086F2700086F27000867
:100120006F2700086F2700086F2700086F27000857
:1001300000F002F800F076F80AA090E8000C824483
:100140008344AAF10107DA4501D100F06BF8AFF260
:10015000090EBAE80F0013F0010F18BFFB1A43F0A5
:1001600001031847E8680000086900000A444FF0DE
:10017000000C10F8013B13F0070408BF10F8014B06
:100180001D1108BF10F8015B641E05D010F8016B4B
:10019000641E01F8016BF9D113F0080F1EBF10F8AF
:1001A000014BAD1C0C1B09D16D1E58BF01F801CBD2
:1001B000FAD505E014F8016B01F8016B6D1EF9D555
:1001C0009142D6D37047000000230024002500266A
:1001D000103A28BF78C1FBD8520728BF30C148BFAA
:1001E0000B607047662906F08882642904F0FE8659
:1001F000752904F0FB86782904F03487632905F01B
:100200002E83732905F03383002070471FB505F056
:1002100045FB04000020002106F096F8E0601FBDB9
:1002200010B510BD05F03EFC1146FFF7EFFF00F0E2
:1002300019F805F05CFC03B4FFF7F2FF03BC03F010
:100240008BFB0000EFF30980704780F3098870474B
:10025000EFF30880704780F30888704740BA704712
:10026000C0BA7047ADF5DE6D86A103C9CDE93A018C
:1002700086A103C9CDE938014FF0000A00BF03F0A1
:10028000A3F803F00BF902F0BAFA482304228149DB
:10029000102002F079FD02F0FAFE4FF4165003F040
:1002A00094FB4FF4E13003F0E5FB40F271210720AD
:1002B00002F0DEFA02F06EFB02F0F4FB02F00AFC40
:1002C000002006210B231422CDE900100A2140F260
:1002D000E77002F096FED3E0502124A805F005F85F
:1002E0004FF400710DF59E6004F0FFFF4FF4806144
:1002F0003CA804F0FAFF0020219022902390502186
:100300000DA804F0F2FF142108A804F0EEFF02F09B
:1003100030FB002404E038A9085D03F02CFB641CCA
:10032000082CF8DB642003F08CF85B48007A5A490B
:10033000C97940EA012000905748807956494979A7
:1003400040EA0123544800795349C97840EA012220
:1003500052A10DA804F0E6FD02F00BFB002404E01E
:100360003AA9085D03F007FB641C082CF8DB642045
:1003700003F067F8484800794749C97840EA012AFC
:10038000504606F04FF9074600224E4B05F0F2FFAB
:1003900005460E462A4633464BA108A804F0C2FD86
:1003A0004D4880784C4949784B4A12784A4BDB7962
:1003B000CDE90032CDE9021047488379828847A110
:1003C00024A804F0AFFD08A80DA924AA4AA3CDE9EA
:1003D0000332CDE9051049A04CA14EA24FA3CDE9AF
:1003E0000021029024AA4E490DF59E6004F09AFD6A
:1003F0000DF59E6004F038FF074639460DF59E6006
:1004000002F0A2FC81460DF59E6004F02DFF074628
:100410000DF59E633A4643A13CA8CDF8009004F048
:1004200081FD3CA804F020FF07463A4624A121A8FC
:1004300004F078FD3CA921A802F088FB00BF502100
:1004400024A804F052FF4FF400710DF59E6004F0F3
:100450004CFF4FF480613CA804F047FF002021903E
:100460002290239050210DA804F03FFF142108A8EA
:1004700004F03BFF4FF47A7002F0E3FF02F0F9F969
:100480002AE70000500300400001885F5003004449
:100490000003485F00080140180300207A30303024
:1004A00030312D5A783D25643B7A30303030312D53
:1004B0005A793D25643B7A30303030312D5A7A3DBF
:1004C00025640000000059407730303030312D571E
:1004D000643D252E326600000C0300202530346474
:1004E0002530326425303264253032642530326460
:1004F0002530326400000000340000003334303511
:10050000323335325A444A43303031003132333499
:100510003536000032303131000000003533000044
:10052000CC6700082323302564257325780000005C
:10053000704700BFFEE700BFFEE700BFFEE700BF59
:10054000FEE77047704770477047000010B500F035
:100550001DFE012000F09FFE00BF212000F059FE8B
:100560000028FAD0102000F099F9022000F082F95A
:10057000002000F0B0FE002000F0BFFE4FF48060CD
:1005800000F0B2FE4FF46011002000F087FE012061
:1005900000F090FE00BF392000F03BFE0028FAD0AA
:1005A000022000F08AFE00BF00F090FE0828FBD178
:1005B00001211D2000F058FF10BD0CB50020019056
:1005C00000906C48006840F480306A49086000BFC1
:1005D0006848006800F4003000900198401C0190C9
:1005E000009818B90198B0F5A06FF1D16148006882
:1005F00000F4003010B10120009001E000200090D4
:100600000098012843D15C48006840F010005A4926
:1006100008600846006820F003000860084600688B
:1006200040F002000860534840685249486008465C
:10063000406848600846406840F48060486008466A
:10064000406820F47C1048600846406840F4E81098
:1006500048600846006840F08070086000BF454868
:10066000006800F000700028F9D04248406820F08F
:100670000300404948600846406840F00200486076
:1006800000BF3C48406800F00C000828F9D10CBDC0
:1006900010B5FFF792FF10BD10B53648006840F066
:1006A000010034490860084640683449084031492F
:1006B000486008460068324908402E4908600846EC
:1006C000006820F4802008600846406820F4FE009E
:1006D00048604FF41F008860FFF7DAFF4FF00060BA
:1006E0002849086010BD10B5002100200022214BD0
:1006F0005B6803F00C0121B1042906D0082928D138
:1007000007E0214B214C236027E01F4B1F4C236047
:1007100023E0184B5B6803F47010164B5B6803F41E
:100720008032022303EB904022B9194B4343174C0C
:1007300023600DE00F4B5B6803F4003323B1144BCF
:100740004343124C236003E00F4B43430F4C2360A1
:1007500003E00D4B0D4C236000BF00BF054B5B68F1
:10076000C3F303130B4CE15C084B1B68CB40074CF5
:10077000236010BD00100240002002400000FFF87E
:10078000FFFFF6FE08ED00E000127A0000000020F6
:1007900000093D000400002031490143314A116045
:1007A000704770B5002100230F22C47804B32D4C8C
:1007B000246804F4E064C4F5E064210AC1F1040390
:1007C000CA40447804FA03F18478144021430901B3
:1007D000254C0678A155047804F01F050124AC408F
:1007E00005786D11AD0005F1E025C5F8004109E07F
:1007F000047804F01F050124AC401C4D06787611E6
:1008000045F8264070BD1A4A0A400243154B1B1F8B
:100810001A60704739B1134A121D12680243114B16
:100820001B1D1A6006E00F4A121D126882430D4B11
:100830001B1D1A607047042808D14FF0E021096998
:1008400041F004014FF0E022116107E04FF0E02198
:10085000096921F004014FF0E022116170470000A6
:100860000000FA050CED00E000E400E080E100E0AB
:1008700080FFFF1F01460020FE4A106800F038008C
:10088000084310607047FB49096821F00801F94AE4
:10089000116011460968014311607047F549096804
:1008A00021F01001F34A11601146096801431160FB
:1008B0007047F148EF494860F04848607047EE489B
:1008C000EC494860ED4848607047EA48006940F0EC
:1008D0008000E84908617047E648006940F0800000
:1008E000E449086170470420E249C96801F0010148
:1008F00009B101200EE0DF49C96801F0040109B126
:10090000022007E0DB49C96801F0100109B10320AA
:1009100000E00420704700B502460423FFF7E3FF20
:10092000034603E0FFF7DFFF0346521E012B01D110
:10093000002AF7D102B90523184600BD30B5044698
:1009400004254FF43020FFF7E6FF0546042D17D1AC
:10095000C848006940F00200C64908610846446181
:10096000006940F0400008614FF43020FFF7D3FFEA
:100970000546C048006941F6FD710840BD4908615F
:10098000284630BD10B504244FF43020FFF7C3FFD4
:100990000446042C16D1B748006940F00400B5495C
:1009A00008610846006940F0400008614FF43020BB
:1009B000FFF7B1FF0446AF48006941F6FB710840FC
:1009C000AC490861204610BD00B502460423FFF77C
:1009D0008AFF034603E0FFF786FF0346521E012B02
:1009E00001D1002AF7D102B90523184600BD10B580
:1009F00004244FF43020FFF7E7FF0446042C16D1FF
:100A00009C48006940F004009A4908610846006962
:100A100040F0400008614FF43020FFF7D5FF044656
:100A20009448006941F6FB710840924908612046EC
:100A300010BD00208F49C96901F0020109B10120F0
:100A400000E00020704730B5A5250424FFF7F1FF32
:100A500000B100254FF43020FFF75DFF0446042C61
:100A60003AD185488349886084488860084600698F
:100A700040F0200008610846006940F0400008612D
:100A80004FF43020FFF747FF0446042C1BD1794870
:100A9000006941F6DF71084076490861084600693F
:100AA00040F01000086176480580E002FFF733FF50
:100AB0000446052C10D06F48006941F6EF710840DC
:100AC0006C49086108E0052C06D06A48006941F6C7
:100AD000EF71084067490861204630BD78B5064689
:100AE0000C46042500200090E802FFF714FF05469D
:100AF000042D24D15F48006940F001005D49086180
:100B00003480E802FFF707FF0546042D10D1B01C22
:100B10000090200C00990880E802FFF7FCFE0546D3
:100B20005448006941F6FE7108405249086106E0E8
:100B30005048006941F6FE7108404E490861284658
:100B400078BD70B504460D460426F002FFF7E3FEBB
:100B50000646042E11D14748006940F0010045497E
:100B600008612580F002FFF7D6FE0646414800697D
:100B700041F6FE7108403F490861304670BD70B5CE
:100B800005460E460424E002FFF7C5FE0446042C89
:100B900017D1394837498860384888600846006965
:100BA00040F0100008612E80E002FFF7B4FE04461A
:100BB000052C06D02F48006941F6EF7108402D49F9
:100BC0000861204670BD2DE9F04304464FF6FF76DC
:100BD0003746B046B1460425E443E6B2C4F30727DE
:100BE000C4F307484FEA1469E802FFF794FE05468C
:100BF000042D49D120481F49886020488860084654
:100C0000006940F010000861FF2E06D01C48083033
:100C10000680E802FFF77FFE0546042D08D1FF2F6E
:100C200006D017480A300780E802FFF774FE054631
:100C3000042D0AD1B8F1FF0F07D011480C30A0F8ED
:100C40000080E802FFF767FE0546042D0AD1B9F1DE
:100C5000FF0F07D00A480E30A0F80090E802FFF717
:100C60005AFE0546052D0FD00248006941F6EF7186
:100C7000084007E00020024023016745AB89EFCD23
:100C800000F8FF1F664908612846BDE8F08330B5CB
:100C9000054604244FF43020FFF73DFE0446042CA3
:100CA00041D160485E4988605F48886008460069B5
:100CB00040F0200008610846006940F040000861EB
:100CC0004FF43020FFF727FE0446042C22D154486D
:100CD000006941F6DF710840514908610846006922
:100CE00040F0100008611DB100205049088002E06A
:100CF000A5204E4908804FF43020FFF70CFE044633
:100D0000052C10D04648006941F6EF71084044496F
:100D1000086108E0052C06D04148006941F6DF7102
:100D200008403F490861204630BDF0B505460E46F3
:100D3000174604243B483A4988603B488860E002F3
:100D4000FFF7E9FD0446042C19D13548006940F04D
:100D500010003349086147F0F80030432843334915
:100D6000891C0880E002FFF7D6FD0446052C06D05A
:100D70002B48006941F6EF71084029490861204677
:100D8000F0BD2748C069800870472548006A704751
:100D900000202349096801F0200109B1012000E089
:100DA0000020704729B11E4A126902431C4B1A6188
:100DB00004E01B4A12698243194B1A6170470146CD
:100DC0000020012908D1164AD26902F001020AB1B5
:100DD000012008E0002006E0114AD2680A400AB16A
:100DE000012000E0002070470D49C86070470420D2
:100DF0000B49C96801F0010109B101200EE0084961
:100E0000C96801F0040109B1022007E00449C9687A
:100E100001F0100109B1032000E004207047000038
:100E20000020024023016745AB89EFCD00F8FF1F8A
:100E300010B50446CC48844208D10121042000F0BA
:100E40002DFB0021042000F029FB46E0C748844226
:100E500008D10121082000F021FB0021082000F02A
:100E60001DFB3AE0C248844208D10121102000F065
:100E700015FB0021102000F011FB2EE0BD4884423C
:100E800008D10121202000F009FB0021202000F0E2
:100E900005FB22E0B848844208D10121402000F03F
:100EA000FDFA0021402000F0F9FA16E0B348844230
:100EB00008D10121802000F0F1FA0021802000F00B
:100EC000EDFA0AE0AE48844207D10121801500F016
:100ED000E5FA0021A01500F0E1FA10BD10B50121DE
:100EE000084600F0DBFA0021012000F0D7FA10BD1F
:100EF0002DE9F041024600250026002000230024B1
:100F0000002791F803C00CF00F0591F803C00CF016
:100F1000100CBCF1000F03D091F802C04CEA05059B
:100F200091F800C0BCF1000F31D0146800202BE014
:100F30004FF0010C0CFA00F3B1F800C00CEA030604
:100F40009E4220D183004FF00F0C0CFA03F7BC43F4
:100F500005FA03FC4CEA040491F803C0BCF1280F25
:100F600006D14FF0010C0CFA00FCC2F814C00AE0E4
:100F700091F803C0BCF1480F05D14FF0010C0CFAF9
:100F800000FCC2F810C0401C0828D1D31460B1F88E
:100F900000C0BCF1FF0F34DD546800202EE000F1EA
:100FA000080C4FF0010808FA0CF3B1F800C00CEA85
:100FB00003069E4221D183004FF00F0C0CFA03F779
:100FC000BC4305FA03FC4CEA040491F803C0BCF1ED
:100FD000280F05D100F1080C08FA0CF8C2F81480AB
:100FE00091F803C0BCF1480F07D100F1080C4FF095
:100FF000010808FA0CF8C2F81080401C0828CED36B
:101000005460BDE8F0814FF6FF71018002218170CC
:101010000421C17070470246002093680B400BB159
:10102000012000E0002070470146886880B27047C8
:1010300002460020D3680B400BB1012000E00020E5
:1010400070470146C86880B27047016170474161CE
:1010500070470AB1016100E041617047C1607047AB
:101060004FF480320A4382618161826182698269C0
:10107000704702460020434B18684FF680731840B3
:1010800040EA021008433F4B186070473E49C86170
:101090007047F0B50A46002300240021002500F027
:1010A0000046B6F1004F02D1364EF16901E0354EEF
:1010B0007168C0F3034583B200F44016B6F5401FD3
:1010C00008D121F070612F4E766826F070662D4FA2
:1010D0007E6012E000F48016B6F5801F06D103266C
:1010E00006FA05F4A14341F0706106E0460D3601B1
:1010F00003FA06F6B14341F0706122B1460D3601A4
:1011000003FA06F6314300F00046B6F1004F02D173
:101110001C4EF16101E01B4E7160F0BD30B5002244
:101120008B071C0F0F2303FA04F2164B08338C10A5
:1011300053F824309343134C08348D1044F8253071
:1011400023468C1053F824308C07240F00FA04F443
:1011500023430C4C08348D1044F8253030BD0A4927
:10116000DC3108607047000000080140000C0140BD
:10117000001001400014014000180140001C014013
:10118000002001400000014000002042DF480068CC
:1011900040F00100DD49086008464068DC4908402D
:1011A000DA49486008460068DA490840D7490860CB
:1011B0000846006820F4802008600846406820F453
:1011C000FE0048604FF41F0088607047CF490968EF
:1011D00021F48031CD4A11601146096821F4802143
:1011E0001160B0F5803F03D0B0F5802F0ED106E03E
:1011F000C649096841F48031C44A116007E0C34917
:10120000096841F4A021C14A116000E000BF00BF9D
:10121000704710B501460022002300204A11012A20
:1012200002D1BA4C236806E0022A02D1B74C236AE5
:1012300001E0B64C636A01F01F02012494401C4097
:101240000CB1012000E0002010BD38B50020009056
:101250000024002500BF3120FFF7DBFF0546009882
:10126000401C00900098B0F5A06F01D0002DF2D086
:101270003120FFF7CEFF08B1012400E00024204612
:1012800038BD01460020A14A106820F0F80040EA6D
:10129000C10010607047A0490860704702460020F6
:1012A0009A4B586820F47C1042EA01031843974B8C
:1012B0005860704798490866704701460020934A75
:1012C000506820F003000843506070478F48406822
:1012D00000F00C007047014600208C4A506820F056
:1012E000F00008435060704701460020874A50686C
:1012F00020F4E06008435060704701460020834AB4
:10130000506820F4605040EAC1005060704729B135
:101310007E4A527A02437D4B5A7204E07B4A527AEB
:1013200082437A4B5A7270477B49D83108607047C4
:1013300001460020754A506820F440400843506040
:1013400070470021714A20321170704A82F82010D3
:10135000012802D004280AD104E001216B4A20327E
:10136000117005E00521694A2032117000E000BFCC
:1013700000BF70476949086070476449096A0143C2
:10138000624A11627047654944390860704730B558
:1013900000210022002400235C4D6D6805F00C0143
:1013A00021B1042905D0082923D105E05C4D056051
:1013B00022E05B4D05601FE0544D6D6805F470122E
:1013C000524D6D6805F48034022505EB92421CB93C
:1013D000544D554305600BE04C4D6D6805F40035E8
:1013E0001DB1504D5543056002E04D4D554305601C
:1013F00002E04B4D056000BF00BF444D6D6805F035
:10140000F0010909484D6B5C0568DD4045603F4DC2
:101410006D6805F4E061090A434D6B5C4568DD4089
:1014200085603A4D6D6805F46051C90A3E4D6B5CAC
:101430004568DD40C560354D6D6805F44041890B58
:101440003A4D6B5CC568B5FBF3F5056130BD29B15C
:101450002E4A526902432D4B5A6104E02B4A5269CD
:1014600082432A4B5A61704729B1284A9269024344
:10147000264B9A6104E0254A92698243234B9A6184
:10148000704729B1214AD2690243204BDA6104E056
:101490001E4AD26982431D4BDA61704729B11B4A4B
:1014A000D2680243194BDA6004E0184AD2688243DA
:1014B000164BDA60704729B1144A12690243134B84
:1014C0001A6104E0114A12698243104B1A61704795
:1014D00012494039086070470F49C86470470B498A
:1014E000C87170470948406A40F0807007494862F7
:1014F000704701460020054A92680A400AB101205F
:1015000000E00020704701498872704700100240D7
:101510000000FFF8FFFFF6FE000042428004424256
:1015200000127A0000093D00140000202400002071
:1015300010B50446FE48844208D10121C014FFF7CB
:10154000ADFF0021E014FFF7A9FFC4E0B4F1804F24
:1015500008D101210846FFF7AEFF00210120FFF767
:10156000AAFFB8E0F348844208D101210220FFF726
:10157000A2FF00210220FFF79EFFACE0EE4884426C
:1015800008D101210420FFF796FF00210420FFF776
:1015900092FFA0E0E948844208D101210820FFF72A
:1015A0008AFF00210820FFF786FF94E0E448844288
:1015B00008D101211020FFF77EFF00211020FFF746
:1015C0007AFF88E0DF48844208D101212020FFF71C
:1015D00072FF00212020FFF76EFF7CE0DA48844292
:1015E00008D101214014FFF759FF00216014FFF7D3
:1015F00055FF70E0D548844209D10121C804FFF7A6
:101600004DFF00214FF40020FFF748FF63E0D04872
:10161000844209D101210805FFF740FF00214FF462
:101620008010FFF73BFF56E0CA48844209D10121F0
:101630004805FFF733FF00214FF40010FFF72EFF9E
:1016400049E0C548844208D101214020FFF733FF1B
:1016500000214020FFF72FFF3DE0C048844208D121
:1016600001218020FFF727FF00218020FFF723FFC3
:1016700031E0BB48844208D101218015FFF71BFFF0
:101680000021A015FFF717FF25E0B648844209D1D5
:1016900001210804FFF702FF00214FF48030FFF71B
:1016A000FDFE18E0B048844209D101214804FFF74B
:1016B000F5FE00214FF40030FFF7F0FE0BE0AB48E1
:1016C000844208D101218804FFF7E8FE00214FF48D
:1016D0008020FFF7E3FE10BD00220288944B984261
:1016E0000ED0994B98420BD0B0F1804F08D0914B5F
:1016F000984205D0904B984202D0904B984204D12A
:101700004FF68F731A404B881A438D4B984207D07F
:101710008C4B984204D04FF6FF431A40CB881A43B3
:1017200002808B8883850B880385814B98420BD080
:10173000854B984208D08B4B984205D08A4B9842F3
:1017400002D08A4B984201D10B7A0386012383820F
:10175000704770B5002400220023058C4FF6FE76FA
:1017600035400584028C8388048B4FF68F752C409E
:10177000B51E2C400D882C43751E2A400D892A4326
:101780004D882A436A4DA8420BD06F4DA84208D01D
:10179000744DA84205D0744DA84202D0734DA842A2
:1017A00013D14FF6F7752A404D892A434FF6FB7542
:1017B0002A408D882A434FF6FF652B404FF6FF5590
:1017C0002B408D892B43CD892B4383800483CD8887
:1017D0008586028470BD70B5002400220023058C2C
:1017E0004FF6EF7635400584028C8388048B48F6EB
:1017F000FF752C404FF6FF452C400D884FF6FF76C5
:1018000006EA05252C434FF6DF752A400D8906EAC6
:1018100005152A434D8806EA05152A43444DA8427A
:1018200002D0494DA8421DD14FF67F752A404D89FF
:101830004FF6FF7606EA05152A434FF6BF752A4094
:101840008D8806EA05152A434FF6FF352B404FF2E7
:10185000FF752B408D8906EA85052B43CD8906EA65
:1018600085052B4383800483CD880587028470BD62
:1018700070B5002400220023058C4FF6FF6635402A
:101880000584028C8388848B4FF68F752C404FF62D
:10189000FC752C400D882C434FF6FF552A400D89CE
:1018A0004FF6FF7606EA05252A434D8806EA052508
:1018B0002A431F4DA84202D0234DA8421DD14FF20A
:1018C000FF752A404D894FF6FF7606EA05252A4323
:1018D0004FF6FF352A408D8806EA05252A434EF645
:1018E000FF752B404DF6FF752B408D8906EA0515D7
:1018F0002B43CD8906EA05152B4383808483CD884D
:101900008587028470BD70B5002200230024058CF9
:101910004EF6FF7635400584038C8488828B48F62A
:10192000FF752A404FF6FF452A400D8820E0000051
:10193000002C01400004004000080040000C004062
:10194000001000400014004000340140004C0140F1
:10195000005001400054014000180040001C0040AD
:101960000020004000400140004401400048014088
:101970004FF6FF7606EA05252A434DF6FF752B4004
:101980000D8906EA05352B434D8806EA05352B43BC
:10199000FA4DA84202D0FA4DA84208D14BF6FF7585
:1019A0002C408D894FF6FF7606EA85152C438480FE
:1019B0008283CD88A0F84050038470BD828B4FF2A3
:1019C000FF331A408283828B4FF6FF7303EA0123B1
:1019D0001A4382837047F0B50C4615460022002159
:1019E0000026078C4EF6FF7C07EA0C070784828BE3
:1019F000018C4FF6FF7707EA043640F6FF473A407E
:101A00004FF6FF7707EA05273A434FF6FF7707EAD5
:101A100003373A43D94FB8420ED0D94FB8420BD012
:101A2000B0F1804F08D0D74FB84205D0D64FB8425A
:101A300002D0D64FB84206D14DF6FF77394046F472
:101A40008057394305E047F6FF57394044F4805743
:101A5000394382830184F0BD828B4FF6F3731A40C1
:101A60008283828B0A4382837047F0B50C46154609
:101A7000002200210026078C4FF6FF6C07EA0C07B6
:101A80000784828B018C4FF6FF7707EA04264FF616
:101A90000C773A404FF6FF7707EA03172F433A4394
:101AA000B64FB8420ED0B64FB8420BD0B0F1804F0F
:101AB00008D0B44FB84205D0B34FB84202D0B34FAC
:101AC000B84206D14FF6FF57394046F48077394384
:101AD00005E04FF2FF57394044F480773943828361
:101AE0000184F0BD028B4FF2FF331A400283028B58
:101AF0004FF6FF7303EA01231A4302837047F0B5E0
:101B00000C461546002200210026078C4FF6EF7C7C
:101B100007EA0C070784028B018C4FF6FF7707EA70
:101B2000041640F6FF473A404FF6FF7707EA0337BF
:101B30003A434FF6FF7707EA05273A438F4FB842FB
:101B40000ED08F4FB8420BD0B0F1804F08D08D4FE0
:101B5000B84205D08C4FB84202D08C4FB84206D163
:101B60004FF6DF77394046F01007394305E04FF66E
:101B70005F77394044F01007394302830184F0BD98
:101B8000028B4FF6F3731A400283028B0A430283DF
:101B90007047F0B50C46154600220021068C4FF622
:101BA000FE773E400684028B018C4FF60C76324065
:101BB0007E1C06EA03162E433243704EB0420ED00E
:101BC0006F4EB0420BD0B0F1804F08D06D4EB04296
:101BD00005D06D4EB04202D06C4EB04206D14FF6E9
:101BE000FD76314044F00106314305E04FF6F576CD
:101BF000314044F00106314302830184F0BD70B5E9
:101C000005460C465D4885420ED05D4885420BD0A6
:101C1000B5F1804F08D05B48854205D05A488542CF
:101C200002D05A48854200D100E000BF208850B958
:101C30002389A28861882846FFF7ABFFE188284600
:101C4000FFF79EFF25E0208804280AD12389A28877
:101C500061882846FFF753FFE1882846FFF742FFD7
:101C600017E0208808280AD12389A288618828469D
:101C7000FFF7FBFEE1882846FFF7EEFE09E0238927
:101C8000A28861882846FFF7A6FEE1882846FFF76C
:101C900095FE70BD2DE9F04105460C460026012752
:101CA000608808B9022600E00026A088012801D13A
:101CB000022700E001272088A0B92389A288618833
:101CC0002846FFF766FFE1882846FFF759FF23897A
:101CD0003A4631462846FFF712FFE1882846FFF7CB
:101CE00001FF13E02389A28861882846FFF707FFD8
:101CF000E1882846FFF7F6FE23893A463146284612
:101D0000FFF747FFE1882846FFF73AFFBDE8F0817B
:101D10000A884B881A438B881A43CB881A430B894D
:101D20001A434B891A438B891A43A0F84420704701
:101D30004FF6FF71818000210180C18041800172D6
:101D400070470021018041808180C18001814181F3
:101D50008181C18170470021018041800121818002
:101D60000021C18001817047002101804180818074
:101D7000C18001814181818170470000002C0140B8
:101D8000003401400004004000080040000C004006
:101D900021B1028842F00102028004E002884FF67D
:101DA000FE731A400280704731B1B0F8442042F40B
:101DB0000042A0F8442005E0B0F84420C2F30E022F
:101DC000A0F8442070471AB183890B43838102E055
:101DD00083898B43838170478182704741EA020384
:101DE000A0F8483070471AB183890B43838102E021
:101DF00083898B438381704701894FF6F8721140C4
:101E0000018170470A46002101894FF68F731940FE
:101E100011430181704730B504460D4629462046DE
:101E2000FFF7F0FF208940F00700208130BD2DE949
:101E3000F04104460D4616461F46602D06D13B462E
:101E4000012231462046FFF75AFE05E03B460122BB
:101E500031462046FFF79DFE29462046FFF7D2FF78
:101E6000208940F007002081BDE8F08130B50C46A4
:101E700000210189C9B24FF6FF7505EA0325154314
:101E800025432943018130BD2DE9F04105460E4629
:101E900017469846002443463A4631462846FFF7FF
:101EA000E5FF2C894FF6F870044044F007044FF624
:101EB0008F70044044F070042C81BDE8F081F0B5CF
:101EC00004460D4616461F463B46324629462046E6
:101ED000FFF7CCFF208940F480402081F0BD0185D0
:101EE000828270470A46002101884FF68F7319409D
:101EF000114301807047F0B50C4615461E4600217F
:101F0000002200230189028B038C4FF6F8773940B9
:101F100021434FF6FC473A4040F201173A434FF64F
:101F2000DD773B404FF6FF7707EA06172F433B4329
:101F3000018102830384F0BD0A460021018B4FF624
:101F40008F7319401143018370470A460021018BAA
:101F500048F6FF7319404FF6FF7303EA0223194353
:101F6000018370470A460021818B4FF68F73194019
:101F70001143818370470A460021818B48F6FF7325
:101F800019404FF6FF7303EA022319438183704718
:101F900021B1028842F08002028004E002884FF6FC
:101FA0007F731A400280704721B1828842F0040298
:101FB000828004E082884FF6FB731A40828070476B
:101FC00021B1828842F00802828004E082884FF6C4
:101FD000F7731A408280704721B1828842F0010273
:101FE000828004E082884FF6FE731A408280704738
:101FF0000A460021018B4FF6F77319401143018304
:1020000070470A460021018B4FF2FF7319404FF6CB
:10201000FF7303EA02231943018370470A46002134
:10202000818B4FF6F77319401143818370470A463D
:102030000021818B4FF2FF7319404FF6FF7303EAC3
:1020400002231943818370470A460021018B4FF612
:10205000FB7319401143018370470A460021018B2D
:102060004FF6FF3319404FF6FF7303EA022319437B
:10207000018370470A460021818B4FF6FB7319409C
:102080001143818370470A460021818B4FF6FF334D
:1020900019404FF6FF7303EA022319438183704707
:1020A0000A460021018B4FF67F73194011430183CB
:1020B00070470A460021018BC1F30E014FF6FF73F2
:1020C00003EA02231943018370470A460021818BEA
:1020D0004FF67F7319401143818370470A460021F0
:1020E000818BC1F30E014FF6FF7303EA02231943FC
:1020F000818370470A460021018C4FF6FD73194019
:102100001143018470470A460021018C4FF6F77392
:1021100019401143018470470A460021018C4FF693
:10212000DF7319404FF6FF7303EA0213194301846A
:1021300070470A460021018C4FF67F7319404FF615
:10214000FF7303EA02131943018470470A46002112
:10215000018C4FF6FF5319404FF6FF7303EA022339
:102160001943018470470A460021018C4FF2FF7326
:1021700019404FF6FF7303EA0223194301847047A5
:102180000A460021018C4DF6FF7319404FF6FF738C
:1021900003EA023319430184704730B50023012458
:1021A0008C40A3B2048C9C430484048C02FA01F595
:1021B000ADB22C43048430BD30B5002304248C40E0
:1021C000A3B2048C9C430484048C02FA01F5ADB2E2
:1021D0002C43048430BD70B503460020002418460B
:1021E000183001258D40ACB21D8CA5431D8409B16A
:1021F000082909D100EB6100056825F0700505602C
:102200000568154305600EE00D1FC5F34E05284413
:10221000056825F4E045056005684FF6FF7606EA97
:1022200002263543056070BD21B1028842F00202EA
:10223000028004E002884FF6FD731A400280704766
:1022400021B1028842F00402028004E002884FF6C5
:10225000FB731A400280704721B1828842F08002ED
:10226000828004E082884FF67F731A408280704734
:1022700002884FF6F7731A40028002880A430280F0
:10228000704782884FF68F731A40828082880A4393
:102290008280704702894FF6F8731A4002810289E2
:1022A0000A430281704702894FF67F731A40028108
:1022B00002890A4302817047818470478185704793
:1022C000818670470187704781877047A0F840106A
:1022D000704702884FF6FF431A40028002880A4383
:1022E000028070470146888E70470146088F70470C
:1022F0000146888F70470146B1F84000704701469B
:10230000888C70470146088D704702460020138A6A
:102310000B400BB1012000E000207047CA4302824D
:10232000704730B50246002000230024158A05EAD4
:102330000103958905EA010413B10CB1012000E005
:10234000002030BDCA4302827047000010B5044629
:10235000FB48844209D101218803FFF79FF800213F
:102360004FF48040FFF79AF832E0F648844209D1F2
:1023700001214804FFF79FF800214FF40030FFF7D8
:102380009AF825E0F048844209D101218804FFF73A
:1023900092F800214FF48020FFF78DF818E0EB4809
:1023A000844209D10121C804FFF785F800214FF4C8
:1023B0000020FFF780F80BE0E548844208D10121B6
:1023C0000805FFF778F800214FF48010FFF773F845
:1023D00010BD2DE9F04786B005460E460024A24602
:1023E00000BFA1460027B08900B100BF2F462C8A4C
:1023F0004CF6FF700440F08804432C82AC894EF602
:10240000F3100440B08831890843718908430443BC
:10241000AC81AC8A4FF6FF400440B0890443AC82E3
:1024200001A8FEF7B4FFC648874202D1DDF810A02C
:1024300001E0DDF80CA0A88900F4004040B10AEBEF
:10244000CA0000EB0A1031684900B0FBF1F807E060
:102450000AEBCA0000EB0A1031688900B0FBF1F802
:102460006420B8FBF0F004012009642101FB10890D
:10247000A88900F4004040B1322000EBC900B0FB55
:10248000F1F000F00700044308E0322000EB0910EF
:102490006421B0FBF1F000F00F0004432C8106B082
:1024A000BDE8F0874FF41651016000218180C180A2
:1024B00001810C21418100218181704710B50246C4
:1024C0000020108A4FF2FF0318400B884C882343EA
:1024D0008C882343CC8823431843108210BD0021ED
:1024E000018041808180C180704721B1828942F49E
:1024F0000052828104E082894DF6FF731A40828186
:102500007047F0B50346002400260025002040F661
:102510006A17B94200D100BF1846C1F3421401F056
:102520001F06012707FA06F5012C01D10C3004E043
:10253000022C01D1103000E014301AB107682F438B
:10254000076002E00768AF430760F0BD1AB1838AF5
:102550000B43838202E0838A8B4383827047028A23
:102560004FF6F0731A400282028A0A4302827047D1
:1025700082894FF2FF731A40828182890A438281E5
:10258000704721B1828942F00202828104E082898F
:102590004FF6FD731A4082817047028A4FF6DF734F
:1025A0001A400282028A0A430282704721B1028ADB
:1025B00042F48042028204E0028A4BF6FF731A4022
:1025C00002827047C1F30802828070470146888802
:1025D000C0F308007047818941F001018181704793
:1025E000028BD2B20283028B42EA0122028370473D
:1025F000028B02F47F420283028B0A4302837047FC
:1026000021B1828A42F02002828204E0828A4FF65F
:10261000DF731A408282704721B1828A42F0100231
:10262000828204E0828A4FF6EF731A4082827047FA
:1026300021B1828A42F00802828204E0828A4FF647
:10264000F7731A408282704721B1828942F40042B6
:10265000828103E08289C2F30E028281704721B138
:10266000828A42F40062828204E0828A4FF2FF731F
:102670001A4082827047828A4FF6FB731A40828228
:10268000828A0A438282704721B1828A42F0020222
:10269000828204E0828A4FF6FD731A40828270477C
:1026A00002460020B1F5007F00D100BF13880B4027
:1026B0000BB1012000E00020704701F40072B2F578
:1026C000007F00D100BFCA430280704770B5024648
:1026D000002400230025002040F66A16B14200D1F4
:1026E00000BFC1F3421501F01F03012606FA03F3F0
:1026F000012D02D19689334006E0022D02D1168ABF
:10270000334001E0968A33400C12012606FA04F4A5
:102710001688344013B10CB1012000E0002070BDD8
:1027200010B50022002340F66A14A14200D100BF78
:102730000A1201249440A3B2DC43048010BD0000BF
:10274000003801400044004000480040004C004078
:10275000005000400948804709480047FEE7FEE76F
:10276000FEE7FEE7FEE7FEE7FEE7FEE7FEE7FEE741
:1027700004480549054A064B7047000099060008C1
:10278000310100089006002090120020900A0020DD
:10279000900A002008B501210920FEF765FE0121FD
:1027A0003048FEF776FC3820ADF8000010208DF898
:1027B000030003208DF8020069462B48FEF798FBC2
:1027C00038212948FEF741FC08BD10B520212648D4
:1027D000FEF73DFC4FF47A7000F033FE10212248E2
:1027E000FEF735FC4FF47A7000F02BFE08211E48EE
:1027F000FEF72DFC4FF47A7000F023FE10BD08B5F3
:1028000001211020FEF730FE8020ADF800004820A6
:102810008DF8030003208DF8020069461348FEF787
:1028200067FB80211148FEF710FC4FF47A7000F02E
:1028300008FE08BD08B501210420FEF715FE102092
:10284000ADF8000048208DF8030003208DF8020049
:1028500069460648FEF74CFB10210448FEF7F5FBDD
:1028600008BD000000023000000C014000100140D3
:10287000704770477FB505460C4601210220FEF7E0
:1028800000FEADF80850ADF804400020ADF80A0095
:10289000ADF8060001A92B48FEF71EFF01221146E4
:1028A0002848FFF790FA1D208DF8000000208DF8D1
:1028B000010003208DF8020001208DF80300684616
:1028C000FDF76FFF00211F48FFF762FA7FBD7FB55C
:1028D00005460C4601210420FEF7D3FDADF8085053
:1028E000ADF804400020ADF80A00ADF8060001A9DB
:1028F0001548FEF7F1FE012211461348FFF763FA6F
:102900001E208DF8000003208DF801008DF80200D4
:1029100001208DF803006846FDF743FF01210A48B6
:10292000FFF736FA7FBD10B501210648FFF7F9FC25
:1029300006490968884203D001210248FFF702FDD9
:1029400010BD000000040040000800409801224231
:1029500010B54FF4967000F074FD0020B349C1F833
:1029600004014FF48071B14802F0BFFCFFF781FF12
:1029700010BD10B54FF4967000F063FD0020AC4917
:10298000C1F804014FF48071A94802F0AEFCFFF7D2
:1029900070FF10BD10B5A7A001F01FF94FF496709D
:1029A00000F04FFDA5A1A14802F04CFCA44908602D
:1029B000FFF7CEFF11E0A3A002F0A8FAFFF7C8FFCF
:1029C0009CA001F00AF94FF4967000F03AFD9BA12B
:1029D000964802F037FC9A49086099480068002838
:1029E000E9D09FA001F0F9F84FF4967000F029FDAE
:1029F000FFF7AEFF9CA001F0F0F84FF4967000F0E6
:102A000020FD9CA1894802F01DFC8D4908600EE064
:102A1000FFF79EFF94A001F0E0F84FF4967000F0ED
:102A200010FD94A1814802F00DFC8549086084489E
:102A300000680028ECD0FFF78BFF8FA001F0CDF8E5
:102A40004FF4967000F0FDFC8EA1784802F0FAFB7E
:102A50007B490860FFF77CFF0EE0FFF779FF86A057
:102A600001F0BBF84FF4967000F0EBFC85A16F48C5
:102A700002F0E8FB72490860714800680028ECD059
:102A8000FFF766FF82A001F0A8F84FF4967000F0FF
:102A9000D8FC82A1654802F0D5FB69490860FFF7C0
:102AA000E8FE10BD10B57FA001F097F8642000F09B
:102AB000C8FC80A001F091F8642000F0C2FC81A065
:102AC00001F08BF8642000F0BCFCFFF741FFFFF73A
:102AD000D0FE10BD10B54FF480717E4802F0E3FBCC
:102AE00041F65A337CA280A17A4802F01BFA794859
:102AF00001F073F84FF4967000F0A3FC83A14B48EB
:102B000002F0A0FB4E49086000208449086015E0EF
:102B100082480068401C814908607CA1434802F05B
:102B200091FB47490860642000F08BFC7B480068FB
:102B3000642803DD00207949086003E0404800680C
:102B40000028E5D000BFFFF703FF10BD70B50446B5
:102B50000D464FF480715F4802F0A5FB224670A13C
:102B60005C4802F0DFF95B4801F037F84FF49670EB
:102B700000F067FC6FA12D4802F064FB304908604B
:102B800012E066480068401C6449086069A1274853
:102B900002F058FB2A49086060480068642803DD99
:102BA00000205E49086003E0254800680028E8D05E
:102BB00000BF284601F011F84FF4967000F041FC78
:102BC0005DA11A4802F03EFB1D49086000205349F0
:102BD000086015E051480068401C5049086056A143
:102BE000124802F02FFB16490860642000F029FC0F
:102BF0004A480068642803DD00204849086003E073
:102C00000F4800680028E5D000BFFFF7A1FE70BDA7
:102C100010B54BA1054802F015FB094908600846AC
:102C2000006808B1FFF794FE10BD000020040020EA
:102C300018030020415445310D0A00004F4B00009D
:102C400028000020B5A5C6ACBBFAD5FDD4DAC1ACCE
:102C5000BDD3C4A3BFE92E2E2E2E2E2E0D0A0000AA
:102C60004154490D0A00000041542B43494D490D80
:102C70000A0000003436300041542B43474154547D
:102C80003F0D0A002B43474154543A2031000000C5
:102C900041542B4353510D0A000000002B43535164
:102CA0003A00000041542B5149434C4F53453D30AD
:102CB0000D0A000041542B5149434C4F53453D31BF
:102CC0000D0A000041542B5149434C4F53453D32AE
:102CD0000D0A00000B0200203131372E37312E3122
:102CE00031312E343100000041542B51494F5045B1
:102CF0004E3D312C302C22544350222C222573225D
:102D00002C25642C302C310D0A0000002B51494F2A
:102D100050454E3A20302C3000000000300000209A
:102D200041542B514953454E443D302C25730D0AD7
:102D3000000000003E00000053454E44204F4B0071
:102D40002B5149555243000070B502460B464FF6D1
:102D5000FF7000210FE0565C86EA1020002407E097
:102D600000F00105400815B14AF201067040641CEC
:102D7000082CF5D3491C9942EDD370BD01460802D9
:102D800000EB112080B27047F8B507460C46154697
:102D90001E4601212846FEF767FBADF800700320B0
:102DA0008DF80200F0B28DF8030069462046FEF768
:102DB0009FF8F8BD10B50022FD4B1B6843F48073EB
:102DC000FB4C2360FB4B03EB8002118010BD0146DE
:102DD0000022F84800EB81021088704770B5034666
:102DE0000020032904DA01F10C04E1B25C1EA3B255
:102DF0004C1C04EB4404052594FBF5F5541C0226F9
:102E000006FB01442C441C4404EBA304642593FBFF
:102E1000F5F5641B4FF4C87593FBF5F52C440725B5
:102E200094FBF5F605FB1644E0B270BD0146CA17E7
:102E300001EB92729210A1EB82022AB9642291FBFB
:102E4000F2F302FB131232B94FF4C87291FBF2F3A2
:102E500002FB13120AB9012070470020FCE7FEB5FF
:102E6000002600240025D4A2D2E900109268CDE902
:102E700001020091D34806883604001D00880644EC
:102E8000D148B6FBF0F4D1480088A0423AD0CF49EF
:102E90000C8040F2B2750EE02846FFF7C7FF30B154
:102EA000B4F5B77F02D3A4F5B77402E006E0A4F24C
:102EB0006D14681C85B2B4F5B67FEDD800BFC44868
:102EC0008580002516E0C2498888FFF7AFFF30B142
:102ED000012D04D11D2C01D31D3C09E00CE01DF88F
:102EE0000500A04203D81DF80500241A00E003E005
:102EF000681C85B21C2CE6D200BF681CB4498871DE
:102F0000601CC871B048B6FBF0F100FB11644FF4CF
:102F10006160B4FBF0F0AE4908704FF46160B4FB3F
:102F2000F0F100FB11403C21B0FBF1F0A8494870E2
:102F30004FF46160B4FBF0F100FB11403C21B0FBA9
:102F4000F1F201FB1200A24988700B46DA799979F7
:102F50009888FFF743FF9E490872FEBD2DE9FF4F99
:102F600004460D4669B2A1F102084FFA88F8B8F19B
:102F7000000107DC01F10C084FFA88F1A4F1010807
:102F80001FFA88F44FF0640994FBF9FA4FEAE479E8
:102F900004EB99794FEAA90BA4F1010940F26D1EE7
:102FA00009FB0EB9A9EB0A094FF4C87A94FBFAFAA7
:102FB00009EB0A0340F26F1801FB08F84FF00C0907
:102FC00098FBF9F808F11D06571E03EB0608B844F4
:102FD000DFF80092A8EB090C0CEB4C09DDF80C8033
:102FE00008EBC908C8EB0819DDF8348008EB89083C
:102FF000C8EB0819DDF8388008EB890004B0BDE89B
:10300000F08F2DE9FC4705460E4617469846DDE948
:103010000A9A002443463A4631462846CDE9009AAA
:10302000FFF79CFF04466C48C06940F080506A4935
:10303000C8610846C06940F00060C8615C4800682B
:1030400040F480705A4908605E481438008840F0A7
:1030500010005C49143908805A49091D0C80200C65
:10306000091F088057481438008820F0100055497F
:103070001439088000BF53481438008800F020003D
:103080000028F8D0FFF7EBFE0020BDE8FC872DE913
:10309000FC410026C824002500274F48C06940F0A5
:1030A00080504D49C8610846C06940F00060C86161
:1030B0003F48006840F480703D4908600020FFF7F9
:1030C00086FE064645F25000864270D04248006AAD
:1030D00040F001004049086204E0601E84B205200F
:1030E00000F0AFF92CB13C48006A00F00200002863
:1030F000F3D03948056A25F44075ACB9406A40F010
:1031000001003549486200BF3348406A00F00200C0
:103110000028F9D045F4007549F63F4745F25101C2
:103120000020FFF747FE08E045F4807547F6FF777B
:1031300045F250010020FFF73DFE45F400452648CA
:10314000056200BF1F481438008800F020000028E6
:10315000F8D000BF1B481438008800F00800002891
:10316000F8D018481838008840F00100154918397F
:1031700008800846008840F00200088000BF11481F
:103180001438008800F020000028F8D00D481438CA
:10319000008840F010000B49143908800020091DF8
:1031A0000880091D0F8007481438008816E030E0B9
:1031B00000700040046C00401F1C1F1E1F1E1F1FBC
:1031C0001E1F1E1F182800408051010034000020DF
:1031D0000C0300203AF90A000010024020F0100011
:1031E0006D49088000BF6C48008800F0200000286E
:1031F000F9D045F2510086424ED037203B210623BC
:103200001622CDE90010042140F2E470FFF7F9FE28
:1032100042E01E2404E0052000F013F9601E84B291
:103220005D48008800F0080008B9002CF3D1642440
:103230005948103005880AE0052000F002F9601EA8
:1032400084B2554810300088A84200D001E0002C1C
:10325000F2D100BF8CB94FF6FF710020FFF7AAFD35
:103260004FF480304D4908620A2000F0EAF800204F
:103270004A4908620120BDE8FC814748001F0088D8
:1032800040F001004449091F088000BF42480088FF
:1032900000F020000028F9D0022303220021084674
:1032A00000F01AF9FFF7DBFD0020E4E70EB53A481D
:1032B000008800F0010038B1FFF7D1FD36480088E2
:1032C00020F00100344908803348008800F00200F3
:1032D000A8B13148008820F002002F49088030480A
:1032E00080782F4949782E4A1278CDE90021029042
:1032F0002B48C379827981882AA001F007FE2648ED
:10330000008820F004002449088000BF224800887B
:1033100000F020000028F9D00EBD2DE9FC4705463D
:103320000E4617469846DDE90A9A002443463A4677
:1033300031462846CDE9009AFFF710FE04461748AB
:10334000C06940F080501549C8610846C06940F026
:103350000060C8611B48006840F48070194908602B
:103360000D48008840F010000B4908800A492031C0
:103370000C80200C091F08800748008820F01000EE
:103380000549088000BF0448008800F0200000289C
:10339000F9D00020BDE8FC8704280040001002405E
:1033A0000C030020416C61726D2054696D653A25F3
:1033B000642D25642D25642025643A25643A25640E
:1033C0000A0000000070004010B56FF00400FDF727
:1033D00032FA2E4800682E49B0FBF1F02D490870F2
:1033E0000846007800EB4001C1EBC0104FF6FF71BA
:1033F00001EAC0002849088010BD0146254A12781C
:103400004A434FF0E0235A6100229A611A4612693A
:1034100042F001021A6100BF4FF0E022106900F093
:1034200001021AB100F48032002AF5D04FF0E022F8
:10343000126922F001024FF0E0231A6100229A6122
:1034400070470146144A12884A434FF0E0235A61FC
:1034500000229A611A46126942F001021A6100BF05
:103460004FF0E022106900F001021AB100F480323E
:10347000002AF5D04FF0E022126922F001024FF04D
:10348000E0231A6100229A617047000000000020CA
:1034900000127A00360000203800002010B54FF4EA
:1034A000A060FDF779F910BD4A0A52020243FE4BB3
:1034B0001A6070470146072323EA01021202FA4B01
:1034C0001B1D18684FF6FF031840F84B18431043B4
:1034D000F54B1B1D186070472DE9F04107468846E3
:1034E00014461D462846FFF7E5FFC5F1040007FA1C
:1034F00000F60F20284100EA0800064306F00F06F8
:10350000E21704EBD2625211920002F1E022D2F8EB
:1035100000212146E31704EBD3635B11A4EB431CAA
:10352000012303FA0CF31A432046E31704EBD36399
:103530005B119B0003F1E023C3F80021DC48005D30
:1035400040EA0610DA490855BDE8F0812DE9F0435C
:1035500003460C460026002000250027DFF854C350
:10356000A3EB0C0C4FEA9C26DFF84CC3DCF818C028
:103570004CF0010CDFF84083C8F818C000BF69E0C8
:103580004FF0010C0CFA00F504EA0507AF4260D1D8
:103590004FEA807C4FEA1C71DFF820C34FEA9008A5
:1035A0005CF828C04FF00F0808FA01F82CEA080C64
:1035B000DFF808834FEA900948F829C0C4464FEA6B
:1035C00090085CF828C006FA01F84CEA080CDFF80D
:1035D000EC824FEA900948F829C0DFF8E4C2DCF831
:1035E00000804FF0010C0CFA00FC48EA0C08DFF8F0
:1035F000D0C2CCF8008002F0010CBCF1000F11D059
:10360000DFF8BCC20CF10C0CDCF800C04FF0010874
:1036100008FA00F84CEA080CDFF8A48208F10C085C
:10362000C8F800C002F0020CBCF1000F11D0DFF8A6
:1036300090C20CF1080CDCF800C04FF0010808FA49
:1036400000F84CEA080CDFF8788208F10808C8F89E
:1036500000C0401C102893D3BDE8F08370B50B4622
:1036600000210024944DAD6945F00105924EB561ED
:1036700000BF03E04900491C651CECB29C42F9DB29
:103680008E4D083D6D6801FA00F6B5438B4E083E3D
:10369000756035466D6802FA00F63543874E083E80
:1036A000756070BD2DE9F04F0E461D46DDE909C479
:1036B000002100278846002300BF64E04FF0010985
:1036C00009FA01F706EA0708B8455BD10023012A89
:1036D00001D0022A0AD10CF0030305F0010943EAE4
:1036E0008903A2F1010943EAC90318E0BAB90CB988
:1036F000042314E00823D0F80C904FF0010A0AFAD2
:1037000001FA29EA0A09C0F80C90D0F80CA004F0DC
:10371000010909FA01F94AEA090AC0F80CA00729C7
:1037200016D8D0F800904FEA810B4FF00F0A0AFA32
:103730000BFA29EA0A09C0F80090D0F800904FEA85
:10374000810A03FA0AFA49EA0A09C0F8009019E066
:10375000D0F80490A1F1080A4FEA8A0B4FF00F0A43
:103760000AFA0BFA29EA0A09C0F80490D0F8049082
:10377000A1F1080A4FEA8A0A03FA0AFA49EA0A0991
:10378000C0F80490491C102998D3BDE8F08F02F0CE
:1037900001031BB103690B43036103E0036943EABF
:1037A00001430361704702469068084008B1012058
:1037B00070470020FCE730BF704772B6704762B6B2
:1037C000704710B504462046FCF745FD10BD00B516
:1037D0003948C06940F080503749C861394840686D
:1037E00040F48070374948600846006840F00400A3
:1037F00008600846006840F0020008602A48083067
:10380000006840F00400284908310860FFF7D3FF42
:1038100000BD2648001D2449091D0860704710B5E9
:10382000024600210020244B1B6843F48033224CC5
:1038300023600AE000BF204B1B6803F400331BB178
:10384000B1F5004F00D904E0491C4FF6F0739942DE
:10385000F0D300BF4FF6F073994201D3012042E04C
:103860004FF48063144C6360921E23465B6843EA06
:103870008243636023465B6843F4803363601023B4
:10388000114C236023461B6843F0020323600A4B5C
:103890001B6843F08073084C236000BF064B1B6815
:1038A0005B0E002BFAD011E008ED00E00000FA05F5
:1038B00000E400E000080140001002400800014060
:1038C0000004014000700040002002401F4B5B6874
:1038D00043F002031D4C636000BF1C4B5B68C3F3E5
:1038E0008103022BF9D110BD10B504460020174901
:1038F0000861C8601420486100208861C8610846DA
:10390000006840F00100086008464068104908401F
:103910000E494860084600680E4908400B49086097
:103920000846006820F4802008600846406820F4BB
:10393000FE0048604FF41F0088602046FFF76FFFCD
:1039400000214FF00060FFF7AFFD10BD00100240F6
:103950000000FFF8FFFFF6FE014600BF704700BF02
:10396000F64A128802F04002002AF9D0C2B2F34BA4
:103970001B1D1A80704710B5044600BF8021EF4818
:10398000FEF78EFE0028F9D02146EC48FEF71AFE1D
:1039900010BD10B5044600BF8021E948FEF780FE47
:1039A0000028F9D02146E648FEF70CFE10BD10B500
:1039B000044600BF8021E348FEF772FE0028F9D0DC
:1039C0002146E048FEF7FEFD10BD10B586B0044666
:1039D000012144F20400FDF747FDD848FEF7B6FC8C
:1039E0004FF40070ADF8140003208DF81600182075
:1039F0008DF8170005A9D448FDF77AFA4FF48060D6
:103A0000ADF8140048208DF8170005A9CE48FDF741
:103A10006FFA25208DF8000003208DF801008DF845
:103A2000020001208DF803006846FCF7BAFE0194FD
:103A30000020ADF80800ADF80A00ADF80C00ADF8B4
:103A400010000C20ADF80E0001A9BC48FEF7C1FC27
:103A5000012240F22441B948FEF753FD012240F211
:103A60002551B648FEF74DFD0121B448FEF73DFD56
:103A700006B010BD10B586B0044601210420FDF744
:103A8000F3FC01214804FDF7FCFCAD48FEF75EFCA9
:103A90000420ADF8140003208DF8160018208DF8CE
:103AA000170005A9A848FDF723FA0820ADF814006F
:103AB00004208DF8170005A9A348FDF719FA262060
:103AC0008DF8000000208DF8010001208DF8020023
:103AD0008DF803006846FCF764FE01940020ADF801
:103AE0000800ADF80A00ADF80C00ADF810000C208D
:103AF000ADF80E0001A99248FEF76BFC012240F2DE
:103B000025518F48FEF7FDFC01218D48FEF7EDFCA5
:103B100006B010BD10B586B0044601210820FDF79F
:103B2000A3FC01218804FDF7ACFC8648FEF70EFCDF
:103B30004FF48060ADF8140003208DF816001820B3
:103B40008DF8170005A98148FDF7D2F94FF4006000
:103B5000ADF8140004208DF8170005A97B48FDF787
:103B6000C7F927208DF8000000208DF80100012002
:103B70008DF802008DF803006846FCF712FE0194F0
:103B80000020ADF80800ADF80A00ADF80C00ADF863
:103B900010000C20ADF80E0001A96A48FEF719FCD0
:103BA000012240F225516748FEF7ABFC0121654830
:103BB000FEF79BFC06B010BD0BE000BF5F49098813
:103BC00001F040010029F9D001785C4A121D1180F2
:103BD000401C01780029F0D1704710B504460BE075
:103BE00000BF5748008800F040000028F9D0207836
:103BF0005349091D0880641C20780028F0D1FEF785
:103C000038FE10BD0BE000BF4E49098801F04001AD
:103C10000029F9D001784B4A121D1180401C01780F
:103C20000029F0D170474A49D1F80411FF2904D97D
:103C30000021474AC2F804110AE04549D1F804219D
:103C4000D1F80411491C424BC3F804111946885499
:103C5000704710B500BF40F225513848FEF736FDD9
:103C600030B13648FEF7B2FCC4B22046FFF7DBFFA6
:103C700040F224413148FEF729FD30B12F48FEF7CC
:103C8000A5FCC4B22046FFF7CEFF20212B48FEF74B
:103C900014FD10BD2F49D1F80411FF2904D90021CA
:103CA0002C4AC2F804110AE02A49D1F80421D1F8BB
:103CB0000411491C274BC3F8041119468854704756
:103CC00010B540F225511E48FEF700FD01280BD12A
:103CD0001B48FEF77BFCC4B22046FFF7DBFF40F237
:103CE00025511748FEF71CFD08211548FEF7D8FCA2
:103CF00001280AD11248FEF769FCC4B22046FFF73A
:103D0000C9FF08210E48FEF7D8FC10BD10B540F2DF
:103D100025510C48FEF7DAFC70B10A48FEF756FC54
:103D2000C1B20D48D0F80421D0F80401401C0A4B60
:103D3000C3F804011846815410BD0000003801404A
:103D4000004400400048004000080140000C0140D1
:103D500018030020200400202805002010B58CB096
:103D600004461E230BAA03A9204600F0CBFE0090B8
:103D7000009810B101200CB010BD9DF82C00044437
:103D800000200B900EE040489DF82C2050F82210A7
:103D900003A800F001FE00B908E09DF82C00401CCB
:103DA000C0B20B909DF82C000728ECD300BF9DF803
:103DB0002C00072863D2DFE800F004053C5E656450
:103DC000630000BF31A001F0A1F831A001F09EF81E
:103DD0003FA001F09BF84EA001F098F85CA001F024
:103DE00095F86BA001F092F879A001F08FF887A008
:103DF00001F08CF88CA001F089F894A001F086F80D
:103E000098A001F083F89DA001F080F8A2A001F035
:103E10007DF8A8A001F07AF8B4A001F077F8C1A06D
:103E200001F074F8CCA001F071F8D8A001F06EF8A0
:103E3000A2E216A001F06AF8E4A001F067F8002001
:103E40000B900EE0F14800689DF82C2000EBC200BA
:103E50004168EFA001F05AF89DF82C00401CC0B258
:103E60000B90EA48007D9DF82C108842EADC07A000
:103E700001F04CF880E205A001F048F8CCE179E2CD
:103E80004DE221E2F4E10000400000200D0A0000B4
:103E90002D2D2D2D2D2D2D2D2D2D2D2D2D2D2D2D52
:103EA0002D2D2D2D2D2D2D2D55534D415254205658
:103EB000332E352D2D2D2D2D2D2D2D2D2D2D2D2D23
:103EC0002D2D2D2D2D2D2D2D2D2D2D200D0A0000CC
:103ED0002020202055534D415254CAC7D3C9414CCC
:103EE00049454E54454BBFAAB7A2B5C4D2BBB8F69C
:103EF000C1E9C7C9B5C4B4AEBFDAB5F7CAD4BBA56A
:103F0000BDBBD7E9BCFE2CCDA8B9FD200D0A000031
:103F1000CBFC2CC4E3BFC9D2D4CDA8B9FDB4AEBF8D
:103F2000DAD6FACAD6B5F7D3C3B3CCD0F2C0EFC352
:103F3000E6B5C4C8CEBACEBAAFCAFD2CB2A2D6B4CA
:103F4000D0D02ED2F2B4CB2CC4E3BFC90D0A0000EE
:103F5000D2D4CBE6D2E2B8FCB8C4BAAFCAFDB5C47D
:103F6000CAE4C8EBB2CECAFD28D6A7B3D6CAFDD7DD
:103F7000D62831302F3136BDF8D6C62CD6A7B3D6C9
:103F8000B8BACAFD29A1A2D7D6B7FBB4AE0D0A00B4
:103F9000A1A2BAAFCAFDC8EBBFDAB5D8D6B7B5C8CB
:103FA000D7F7CEAAB2CECAFD292CB5A5B8F6BAAFBE
:103FB000CAFDD7EEB6E0D6A7B3D63130B8F6CAE41C
:103FC000C8EBB2CECAFD2CB2A2D6A7B3D60D0A005A
:103FD000BAAFCAFDB7B5BBD8D6B5CFD4CABE2ED6F8
:103FE000A7B3D6B2CECAFDCFD4CABEBDF8D6C6C915
:103FF000E8D6C3B9A6C4DC2CD6A7B3D6BDF8D6C6BE
:10400000D7AABBBBB9A6C4DC2E0D0A00BCBCCAF53E
:10401000D6A7B3D63A7777772E6F70656E656476DC
:104020002E636F6D0D0A000055534D415254D3D08D
:1040300037B8F6CFB5CDB3C3FCC1EE28B1D8D0EBBD
:10404000D0A1D0B4293A0D0A000000003F3A202048
:1040500020202020BBF1C8A1B0EFD6FAD0C5CFA256
:104060000D0A000068656C703A202020BBF1C8A1E1
:10407000B0EFD6FAD0C5CFA20D0A00006C697374F8
:104080003A202020BFC9D3C3B5C4BAAFCAFDC1D03E
:10409000B1ED0D0A0A00000069643A2020202020BA
:1040A000BFC9D3C3BAAFCAFDB5C44944C1D0B1ED8D
:1040B0000D0A0A006865783A20202020B2CECAFD99
:1040C0003136BDF8D6C6CFD4CABE2CBAF3B8FABFC3
:1040D000D5B8F12BCAFDD7D6BCB4D6B4D0D0BDF874
:1040E000D6C6D7AABBBB0D0A0A0000006465633AB6
:1040F00020202020B2CECAFD3130BDF8D6C6CFD4A4
:10410000CABE2CBAF3B8FABFD5B8F12BCAFDD7D6C0
:10411000BCB4D6B4D0D0BDF8D6C6D7AABBBB0D0AA6
:104120000A00000072756E74696D653A312CBFAA81
:10413000C6F4BAAFCAFDD4CBD0D0BCC6CAB13B30EE
:104140002CB9D8B1D5BAAFCAFDD4CBD0D0BCC6CA71
:10415000B13B0D0A0A000000C7EBB0B4D5D5B3CC13
:10416000D0F2B1E0D0B4B8F1CABDCAE4C8EBBAAF7E
:10417000CAFDC3FBBCB0B2CECAFDB2A2D2D4BBD87A
:10418000B3B5BCFCBDE1CAF82E0D0A002D2D2D2DB6
:104190002D2D2D2D2D2D2D2D2D2D2D2D2D2D2D2D4F
:1041A0002D2D2D2D2D2DD5FDB5E3D4ADD7D32D2D12
:1041B0002D2D2D2D2D2D2D2D2D2D2D2D2D2D2D2D2F
:1041C0002D2D2D2D2D2D2D200D0A00002D2D2D2DC9
:1041D0002D2D2D2D2D2D2D2D2D2D2D2D2D2D2D2D0F
:1041E0002D2D2D2D2DBAAFCAFDC7E5B5A52D2D2D31
:1041F0002D2D2D2D2D2D2D2D2D2D2D2D2D2D2D2DEF
:104200002D2D2D2D2D2D2D2D200D0A00A40000204B
:1042100025730D0A00000000EFA000F077FE0020DB
:104220000B901AE0FC4909689DF82C2001EBC201B3
:1042300001AB02AA486803A900F08AFCF6480068AE
:104240009DF82C1050F8312003A9F4A000F05EFE78
:104250009DF82C00401CC0B20B90EF48007D9DF8EB
:104260002C108842DEDCAFF2DC3000F04FFE83E041
:10427000AFF2E83000F04AFE0BAA03A9204600F096
:1042800043FD9DF82C00C8B9694603A800F0B7FBB0
:104290000B909DF82C0020B9E5A0009900F036FEA7
:1042A0000EE09DF82C00042801D0022063E5E3A075
:1042B00000F02CFE0120D849C87501E002205AE523
:1042C000DDA000F023FE57E0DBA000F01FFE0BAAEC
:1042D00003A9204600F018FD9DF82C00C8B96946D6
:1042E00003A800F08CFB0B909DF82C0020B9D8A0FF
:1042F000009900F00BFE0EE09DF82C00042801D080
:10430000022038E5D5A000F001FE0020C249C875A2
:1043100001E002202FE5C8A000F0F8FD2CE0C6A0C7
:1043200000F0F4FD0BAA03A9204600F0EDFC9DF877
:104330002C00C8B9694603A800F061FB0B909DF8FA
:104340002C0078B9B449009881F8EC00084690F840
:10435000EC0018B1C6A000F0D9FD07E0CBA000F03A
:10436000D5FD03E0022006E5022004E5B2A000F03E
:10437000CDFD01E00120FEE400BF0020FBE410B50C
:104380000446204600F0B6FA0120A349C87510BDC6
:1043900030B595B0054613AB12AA09A9284600F01E
:1043A000D7FB044614B1204615B030BD0020149050
:1043B00026E0994909689DF8502001EBC20113AB32
:1043C00011AA486801A900F0C3FB04460CB12046BD
:1043D000EAE709A901A800F0DFFA60B99DF84400F6
:1043E0009DF84810884201DD0220DDE79DF850006D
:1043F000894988750AE09DF85000401CC0B21490AD
:104400008548007D9DF850108842D2DC00BF82486C
:10441000007D9DF85010884201D10420C4E714A902
:10442000284600F0E8FC04460CB12046BCE79DF8A5
:104430005000794948750020B6E72DE9F0419AB05F
:104440007548847D007DA04202DC1AB0BDE8F08191
:104450007149096801EBC40106AB07AA486808A9BD
:1044600000F076FB08A990A000F050FD002644E083
:104470006948008B0121B1400840D8B122218CA0AD
:1044800000F044FD304600F0A9FC63492431471890
:10449000394688A000F03AFD222185A000F036FDC3
:1044A000304600F09BFC5C492431084410A941F8D7
:1044B000260018E0304600F091FC57492431085896
:1044C00010A941F826005448C07D30B910A850F812
:1044D000261079A000F01AFD05E010A850F826106B
:1044E00076A000F013FD9DF81C00401EB04202D0E3
:1044F00074A000F00BFD701CC6B29DF81C00864233
:10450000B6DB71A000F002FD00F0C5F94248407D25
:104510000B280DD2DFE800F0060D151E27323F4EA6
:10452000DAEFED003C49096851F834008047054650
:104530000DE1394A126852F8341010988847054640
:1045400005E1354B1B6853F83420DDE91001904735
:104550000546FCE0304F3F6857F8343010A807C8D4
:1045600098470546F3E0DFF8B0C0DCF800C05CF81F
:10457000347010A80FC8B8470546E8E01498DFF873
:1045800098C00090DCF800C05CF8347010A80FC828
:10459000B8470546DBE0DDE91401DFF87CC0CDE972
:1045A0000001DCF800C05CF8347010A80FC8B847F0
:1045B0000546CCE0DDE914121698DFF85CC0CDE9C1
:1045C00000120290DCF800C05CF8347010A80FC82C
:1045D000B8470546BBE000002D2D2D2D2D2D2D2D8E
:1045E0002D2D2D2D2D2D2D2D2D2D2D2D2D2D2D2DFB
:1045F0002DBAAFCAFD204944202D2D2D2D2D2D2D56
:104600002D2D2D2D2D2D2D2D2D2D2D2D2D2D2D2DDA
:104610002D2D2D2D200D0A00A400002025732069CA
:10462000642069733A0D0A3058253038580D0A0055
:104630004845583A305825580D0A00003136BDF823
:10464000D6C6B2CECAFDCFD4CABE210D0A00000024
:104650004445433A256C750D0A0000003130BDF821
:10466000D6C6B2CECAFDCFD4CABE210D0A00000004
:1046700052756E2054696D652043616C63756C6181
:1046800074696F6E204F4E0D0A00000052756E2047
:1046900054696D652043616C63756C6174696F6EFC
:1046A000204F46460D0A00000D0A25732800000021
:1046B0002563000025730000256C640030582558E0
:1046C000000000002C00000029000000DDE9142398
:1046D000DDE91610DFF848C1CDE90023CDE902106D
:1046E000DCF800C05CF8347010A80FC8B847054665
:1046F0002DE015E0FFE7DDE91523DDE91710CDE931
:104700000123CDE903101498DFF814C10090DCF800
:1047100000C05CF8347010A80FC8B847054616E012
:10472000DDE91623DDE91810CDE90223CDE90410F7
:10473000DDE91401DFF8E8C0CDE90001DCF800C0D4
:104740005CF8347010A80FC8B847054600BF00BF1A
:1047500000F0B4F89DF8180001280CD13048C07D55
:1047600020B929462FA000F0D1FB07E029462FA051
:1047700000F0CCFB02E02CA000F0C8FB284890F829
:10478000EC0088B12648D0F8F0000A21B0FBF1F225
:1047900001FB12072248D0F8F000B0FBF1F83A46CE
:1047A000414625A000F0B2FB00BF4EE670B50026E2
:1047B00000F06EF8064606B970BD194881683046AB
:1047C000884704461CB91649C868804721E030462E
:1047D000FFF7C4FA0546012D00D02C46CCB1012CC0
:1047E00006D0022C08D0032C0AD0042C10D10BE0E8
:1047F00019A000F08BFB0BE01AA000F087FB07E08C
:104800001BA000F083FB03E01CA000F07FFB00BFB7
:1048100000BF00BFD0E701460868704701607047DD
:10482000A40000203D256C753B0D0A003D30582545
:10483000583B0D0A0000000046756E6374696F6E88
:104840002052756E2054696D653A25642E253164B9
:104850006D730D0A00000000BAAFCAFDB4EDCEF3CF
:10486000210D0A00B2CECAFDB4EDCEF3210D0A002F
:10487000B2CECAFDCCABB6E0210D0A00CEB4D5D283
:10488000B5BDC6A5C5E4B5C4BAAFCAFD210D0A00C1
:1048900000203D4870473D48008820F001003B491A
:1048A00008804FF6FF7039491C31088000203749D5
:1048B000143108803649C1F8F00070473348008849
:1048C00000F0010040B13248D0F8F0004FF6FF711F
:1048D00008442F49C1F8F0002D48D0F8F0002B49CA
:1048E0001431098808442A49C1F8F0000846D0F874
:1048F000F000704710B5044600BF2648C06940F07C
:1049000004002449C86100BF4FF47A701F491C316C
:10491000088004EBC40000EB04100121C1EB80000F
:104920001A49183108801948001F008840F001001A
:104930001649091F088015481038008840F001000A
:1049400012491039088002231E2203210846FEF76F
:10495000C3FD10BD10B50D48008800F0010058B12E
:104960000B490869804700200849143108804FF43A
:104970007A7006491C3108800448008820F0010044
:104980000249088010BD00002805002010080040E2
:10499000A40000200010024002460AE010780B78C4
:1049A000984201D001207047107800B902E0521CF3
:1049B000491CF3E700BF0020F5E706E002780A7023
:1049C000027802B902E0401C491CF7E700BF7047BB
:1049D0000146002005E00A7802B903E0421CD0B28B
:1049E000491CF8E700BF704710B50246012000E0FF
:1049F00050430B1EA1F10104E1B2F9D110BD2DE924
:104A0000F04F05460F4600264FF00A09B3462C46E4
:104A10000020386034E02078392802DC2078302803
:104A200011DA28782D2802D028782B2800D156B109
:104A30002078462802DC2078412804DA207858289B
:104A400017D1012E15D12078412801DB4FF0100934
:104A500028782D2803D14FF0020B6D1C0FE0287829
:104A60002B2803D14FF0010B6D1C08E0701CC6B25F
:104A700005E0207800B904E00120BDE8F08F641C57
:104A8000C9E700BF2C46B9F1100F0FD1032E01DA90
:104A90000220F2E72078302806D16078582803D128
:104AA000A41CB01EC6B204E00320E6E70EB9042041
:104AB000E3E71BE00EB1701EC6B22078392806DC91
:104AC0002078302803DB2078A0F1300A02E020783B
:104AD000A0F1370A31464846FFF786FF39680AFBDE
:104AE00000103860641C207800B900E0E2E700BFE5
:104AF000BBF1020F04D13868C0F10008C7F800808C
:104B00000020BAE710B50446002010700BE02078B2
:104B10000870641C491C1078401C10701078984272
:104B200001DB012010BD2078202802D02078002849
:104B3000EDD10020087000BFF4E70146491C00E0F9
:104B4000491C0878202801D10029F9D1087870473C
:104B50002DE9FF4F85B0804689460027002004904C
:104B60000390012002904FF0000B002544461DE009
:104B70002078202816D005F07F00052812DA0DB91C
:104B800045F0800505F07F00042803D120782A280D
:104B900000D00EE0207805F07F010DF80100681CC0
:104BA000C5B202E0852D00D103E0641C2078002806
:104BB000DED100BF8DB1002005F07F010DF80100AE
:104BC000CEA16846FFF7E8FE18B9002108980170E9
:104BD00002E001210898017000254FF0000A4446C8
:104BE00014E0641C0AF1010000F0FF0A207820287C
:104BF00002D020782A2809D12046FFF79EFF0646DA
:104C0000282E03D02A2E01D0CDF810A020782828F5
:104C100002D020780028E4D14446049810B10498CA
:104C2000401C04444FF0000A002654E0207810B9DC
:104C30004FF0010A50E02078282803D116B9781CDB
:104C4000C7B213E02078292808D13EB917B1781EE1
:104C5000C7B201E04FF0010A47B93DE020782228B1
:104C600004D10EB9012000E00020064647B92078A3
:104C700020282FD0207889F8000009F1010929E0C7
:104C800020782C2804D101200290681CC5B214E0C1
:104C90002078202811D0207828280ED04DB9BBF1DB
:104CA000050F06DA20780DF80B000BF1010000F07B
:104CB000FF0B0298401CC0B20290012F0AD102984B
:104CC000022807D10298401CC0B202900398401CF1
:104CD000C0B20390641CA9E700BF0398012809D162
:104CE00000200DF80B0085A16846FFF755FE08B9B6
:104CF00000200390079903980870002089F80000AD
:104D0000504609B0BDE8F08FF0B5034615460020C7
:104D10000022002600245BE01F782C2F01D104B96B
:104D200001221F78292F01D01F780FB904B950E054
:104D3000002E3AD11F78302F02DB1F78392F17DD74
:104D40001F782D2F14D01F782B2F11D01F78612F93
:104D500002DB1F78662F0BDD1F78412F02DB1F78E7
:104D6000462F05DD1F78582F02D01F78782F0CD1E1
:104D700002B12EE01F78612F03DB1F78203F0F70F8
:104D800001E01F780F70491C1FE01F78222F04D10B
:104D900002B11EE00126012417E01F78202F14D055
:104DA0001F782C2F11D0FF2613E01F78222F00D15F
:104DB000002402B10DE044B11F785C2F02D15B1CCE
:104DC000471CF8B21F780F70491C471CF8B25B1CD7
:104DD000A2E700BF00270F702E70F0BD0246002032
:104DE000002105E0474B5B5C0344D8B24B1CD9B2B1
:104DF0009142F7DB70472DE9F043B5B005460F4609
:104E00000024002604E000213E488155701CC6B2F3
:104E10000A2EF8DB06E06D1C287818B9012035B0A1
:104E2000BDE8F08328782828F5D16D1C61E034AA0C
:104E300069462846FFF768FF064635449DF8D000CE
:104E400020B1012827D0FF284CD149E09DF800006F
:104E500000B333A96846FFF7D2FD06460EB1022023
:104E6000DDE72046FFF7BAFF26490A31339A0A5098
:104E7000A1F12400008B0121A140884321491A3966
:104E8000088304211F480155601CC4B20A2C01DDAF
:104E90000320C4E726E06846FFF79AFD401C00F0B7
:104EA000FF082046FFF79AFF16490A3100EB010977
:104EB00049466846FFF781FD12481A38018B0120E8
:104EC000A040014388B20F491A3908830D4800F801
:104ED0000480601CC4B20A2C01DD03209FE701E0BE
:104EE00002209CE700BF2878292801D0287800B943
:104EF00000E09CE700BF3C70002090E7766F69649B
:104F000000000000BE000020704700000FB40449FC
:104F100010B503AA029800F0AFFC10BC5DF814FBBA
:104F20003C0000200FB41CB5074B06AA7B44694621
:104F30000090059800F071FC0020694600F080FCAC
:104F40001CBC5DF814FB00001109000070B504469C
:104F500085690068C10601D5302600E02026C0071B
:104F600007D070BDD4E9012130469047206A401C2B
:104F700020626D1EF6D570BD70B504468569007857
:104F8000C00707D170BDD4E9012120209047206AD5
:104F9000401C20626D1EF6D570BD70B50C460546EE
:104FA000012A05D02878800600D5EA69002302E0AE
:104FB000012305E05B1C934202D2E05C0028F9D19A
:104FC000A869E618C01AA861286A18442862284609
:104FD000FFF7BCFF04E0D5E9012114F8010B90476D
:104FE000B442F8D32846FFF7C7FF70BD2DE9F04162
:104FF0000646002410687529314616A510D0AFF377
:105000000080002802DA404213A507E031688A07D1
:1050100001D512A502E0490704D511A5012401E03C
:10502000AFF3008000210A2206F1240709E0B0FB5B
:10503000F2FCB0FBF2F302FB1C003030785418464F
:10504000491C0028F3D123462A463046BDE8F041EA
:1050500000F076B9000000002D0000002B000000D9
:105060002000000070B504460D4621461068AFF3DD
:1050700000802188090502D50F4A7A4402E00E4AD1
:105080007A440E32002104F1240305E000F00F06FB
:105090000009965D5E54491C0028F7D12078002352
:1050A000000704D5702D02D009B102231132204629
:1050B000BDE8704000F044B9801600002DE9F05FB3
:1050C000894604464FF0000ADFF874B1FB44C0F88B
:1050D00020A02046E1688847002874D0252806D003
:1050E000D4E901219047206A401C2062F1E70026A4
:1050F0005F462046E16888472028054607DB312DBA
:1051000005D2781910F8200C08B10643F1E7B00772
:1051100001D526F00406C4F81CA00027C4F818A086
:105120002A2D09D0284601F007F938B304EB870887
:10513000303DC8F8185019E059F8041B204604EB1C
:1051400087029161E1688847012F054618D1E0691F
:10515000002820DA26F020061DE0D8F8180000EB21
:10516000800005EB40003038C8F818002046E168A0
:105170008847054601F0E0F80028EED1012F0AD05B
:105180002E2D08D12046E16888477F1C0546022F56
:1051900046F02006C4DBA069002803DA404246F04E
:1051A0000106A061F00701D026F010066C2D0BD08F
:1051B000682D09D04C2D39D06A2D35D0742D35D0BD
:1051C0007A2D33D016E038E0E1682F462046884734
:1051D000B842054609D16C2F26D04FF48060E168B3
:1051E000064320468847054604E06C2F1AD04FF44A
:1051F000807006430DB3A5F14100192802D820356F
:1052000046F400664A462946204626604E46FAF78E
:10521000E9FF80B101280BD0F61D26F0070000F150
:10522000080956E74020E4E78020D8E70020D6E7C9
:1052300006F104094DE7284652E7206ABDE8F09FD1
:105240005616000030B505460B462A4613F8014BAA
:1052500012F8010B08B1A042F8D01CB1002802D00E
:105260006D1CF1E7284630BD10B5431C02E010F874
:10527000011B71B18107FAD14FF0013202C88C1ABB
:105280008C4314EAC211F9D0C01A0A0603D0C01E1A
:1052900010BDC01A10BD0A0401D0801E10BD090245
:1052A000FCD0401E10BD4FF000020429C0F0128057
:1052B00010F0030C00F01B80CCF1040CBCF1020FC9
:1052C00018BF00F8012BA8BF20F8022BA1EB0C019E
:1052D00000F00DB85FEAC17C24BF00F8012B00F894
:1052E000012B48BF00F8012B70474FF0000200B5BA
:1052F000134694469646203922BFA0E80C50A0E8F9
:105300000C50B1F12001BFF4F7AF090728BFA0E8A6
:105310000C5048BF0CC05DF804EB890028BF40F872
:10532000042B08BF704748BF20F8022B11F0804FB4
:1053300018BF00F8012B70477047704770477047DF
:105340002DE9F0470D4699469246044600F124089F
:105350000168880604D5E06921F01001216000E0B1
:105360000120A84201DD471B00E00027A1697A194E
:1053700002EB0900081AA0612078C00602D420467A
:10538000FFF7E4FD002608E0D4E901211AF8060041
:105390009047206A401C761C20624E45F4DB207842
:1053A000C0060AD52046FFF7D1FD06E0D4E9012169
:1053B00030209047206A401C2062381EA7F1010768
:1053C000F4DC07E0D4E9012118F805009047206AD1
:1053D000401C2062281EA5F10105F3DC2046FFF7E2
:1053E000CBFD2078000602D50220BDE8F087012021
:1053F000FBE770472DE9FF4F0C461E464FF0FF3785
:105400008BB0D2E90001DDF860800A908A46C1F3D2
:105410000A5505B93D46002108464FF00000BAF193
:10542000000F00F4400005DA00EB80004FF440016B
:1054300001EA50004FEA9059B9F1010F00DDB94679
:105440000A9850EA4A000ED044F61050A5F2FF35F3
:1054500045432F14B8F1000F1ED07542291E1EDDE2
:10546000C9F100021CE0B8F1010F4FF0000001D0BB
:10547000302103E0F24305E02154401CB042FBDB45
:1054800030460022002121540B99C1F80880C1E95F
:1054900000200FB0BDE8F08FBD1B6D1CDEE74A4653
:1054A00000DA694206A800F083FA06AB93E8070029
:1054B00003AB83E8070050460A9900F061FB8DE8D2
:1054C0000700A0F500501F3800900398002D0ADD5A
:1054D00042F21F014A460844002303A9039068468C
:1054E00000F0CAFD09E0A0F500504A461F3800232D
:1054F00003A90390684600F0D4FD8DE8070000047E
:10550000000C03D04FF0FF30410800E01046B8F126
:10551000000F03D00022009215461EE0751E05D430
:1055200000F0C0F9303262556D1EF9D5B346012244
:10553000084302D000227F1C04E02078302801D1EB
:1055400000227F1E002A099784D01DE0112D07DA62
:1055500000F0A8F9303262556D1C50EA0102F5D115
:10556000084302D00098C8B10EE00021681E05E093
:10557000235C625C63542254401E491C8142F7DB69
:10558000AB46A81B401E0990002004F80B000B98A6
:10559000099AC0F80880C0E9002B7AE711264FF07D
:1055A000000857E72DE9F04F88460446D21D22F047
:1055B000070191B0D1E90001CDE90A0100F0A8FE90
:1055C00002460B98C00F01D02D2007E0206881070C
:1055D00001D52B2002E0202101EAC000032A099016
:1055E00001D0072A05DB03464146204600F0A0F91A
:1055F0000BE12078800601D5E06900E00620B8F1D3
:10560000650F814606D0B8F1660F18D0B8F1670F64
:1056100070D131E00020B9F1110F009001DB1123AE
:1056200001E009F101030AAA01A90CA8FFF7E2FEB3
:10563000DDE90C70002609F10105834647E00120F1
:105640004B4600904FF000470AAA01A90CA8FFF7AB
:10565000D1FEDDE90DB00C995D46002610B909F1C7
:1056600001000D18B9EB050003D4C0F1FF3609F1B4
:105670000105A5EB09002BE0B9F1010F01DA4FF0AC
:1056800001090020B9F1110F0090484601DD1123F6
:1056900000E003460AAA01A90CA8FFF7ABFEDDE96A
:1056A0000C704D4600268346207800070AD4AB458F
:1056B00000DA5D4601A8012D04DD411911F8011C35
:1056C000302907D04F4502DA17F1040F04DA012020
:1056D00082460FE06D1EEEE7002F02DCED1B3E441C
:1056E00003E0781CA84200DD7D1CB81B00F1010A14
:1056F0004FF000472078000703D4AA4501DB4FF0A4
:10570000FF3A0021B7F1004F0DF143088DF8431027
:1057100024D002202B23002F01DA7F422D230A21DF
:10572000021EA0F1010000DC5FB197FBF1FC97FBCA
:10573000F1F201FB1C7C17460CF1300C08F801CD8E
:10574000EEE7A8F1010003702188090501D5452184
:1057500000E06521A0F1010800F8011C09980FA9DB
:10576000A1EB0807FF1D00B10120411901EBEA7010
:10577000A1693844081A401EA0612078C00602D4EE
:105780002046FFF7E3FB099828B1D4E901219047AF
:10579000206A401C20622078C00622D52046FFF7F0
:1057A000D5FB1EE0002E04DBB34502DD01A8805DC1
:1057B00000E03020D4E901219047206A401C20629B
:1057C000761CAAF101005FEA000A0AD100F066F82F
:1057D000C0680168405CD4E901219047206A401C00
:1057E0002062281EA5F10105DCDC07E0D4E90121D7
:1057F00018F8010B9047206A401C2062381EA7F160
:105800000107F3DC2046FFF7B7FB032011B041E6A8
:1058100001694A1C02610878704700B58FB0CDE974
:1058200001310021059105497944CDE90310114664
:105830006846FFF743FC0FB000BD0000E5FFFFFF27
:105840000A6802F8010B0A60704710B5436913B18A
:10585000AFF3008001E0FFF7A0FB012010BD12783C
:1058600000F124010A7000224A700122EDE711685C
:105870004FF0FF32E9E70000074B70B50D467B445F
:10588000FFF7CBFF0446284600F004F910B14FF0B3
:10589000FF3070BD204670BDDDE0FFFF004870475F
:1058A0005006002030B5B0F10A024FEA900E71F1B7
:1058B00000034EEA817EB0EB0E0061EB91014FEAEE
:1058C000101E4EEA017E10EB0E0041EB11114FEA63
:1058D000102E4EEA016E10EB0E0041EB11214FEA43
:1058E000104E4EEA014E10EB0E0041EB11414018F4
:1058F00041F100014FEAD00040EA41704FEAD10186
:1059000010EB80054FEA810444EA907444EB0104F3
:105910006D1944EB0404521BA3414FF0000348BF30
:105920000A3200D530BD401C41F1000130BD0000FD
:105930002DE9F0411F46044603260168072A01F4B9
:10594000006004DB08B116A505E016A503E008B168
:1059500015A500E015A521F010002060A069C01E6B
:10596000A0610FB1401EA0612046FFF7EFFA4FB1D2
:10597000D4E9012138469047206A401C2062C01CAF
:10598000206206E0206AFAE7D4E9012115F8010B4C
:105990009047761EF8D22046FFF7EEFABDE8F08178
:1059A0004E414E006E616E00494E4600696E6600C3
:1059B0002DE9F047814616468AB0354878440DC82F
:1059C0008DE80D0032487844801C03AC0DC884E893
:1059D0000D0041F69B300844372190FBF1F290FB1B
:1059E000F1F5A5F1800501FB12041B3C02D56442D0
:1059F000012000E00020DFF898A080460027FA444C
:105A0000AAF1BE0A0EE0E0070AD03246684607EB6C
:105A1000470101230AEB810100F043FB8DE80700F9
:105A200064107F1C002CEED1194F7F44AE3F19E06B
:105A3000E80715D007EB04100DF1180A90E80E00E6
:105A40008AE80E00C068F04201D1981908903246E9
:105A5000012306A903A800F024FB03AB83E8070099
:105A60006D10641C002DE3D14FF0010332466946EE
:105A7000B8F1000F03A802D000F0FEFA01E000F038
:105A800010FBC9E90001C9F808200AB0BDE8F08799
:105A9000F40D0000007B00F0800070470048704764
:105AA000300600207546FFF7F9FFAE46050069464F
:105AB000534620F00700854618B020B5FCF758FE85
:105AC000BDE820404FF000064FF000074FF00008FF
:105AD0004FF0000B21F00701AC46ACE8C009ACE880
:105AE000C009ACE8C009ACE8C0098D46704710B5E4
:105AF0000446AFF300802046BDE81040FAF79BBB98
:105B00004FF0013C50F8042B51F8043B9A4221D14C
:105B1000A2EB0C03934313EACC1317D150F8042BD8
:105B200051F8043B9A4215D1A2EB0C03934313EABC
:105B3000CC130BD150F8042B51F8043B9A4209D1F5
:105B4000A2EB0C03934313EACC13DBD04FF000001D
:105B5000704700BFD01A01BAB1FA81F101F0180103
:105B600022FA01F0CB40C1F12001DBB2C0B2C01A71
:105B70002CFA01F3D11A914311EAC311E6D170470F
:105B80005FEA400C08BF91F0000F4FEA8C234FEA08
:105B9000C12243EA51514FEA1C5018BF00F5F040B2
:105BA0004FEA300018BF41F000415FEA6C5C00F042
:105BB0002980BCF1FF3F08BF40F080407047130CC4
:105BC00006BF12044FF0100C4FF0000C130E04BF70
:105BD00012020CF1080C130F04BF12010CF1040C9B
:105BE000930F04BF92000CF1020CD30F04BF5200BC
:105BF0000CF1010C11464FF00002A0F11F00A0EBC8
:105C00000C00704711F0004F08BF704731F00041A1
:105C10003FF4D5AF0B0C06BF09044FF0100C4FF04A
:105C2000000C0B0E04BF09020CF1080C0B0F04BF93
:105C300009010CF1040C8B0F04BF89000CF1020C5C
:105C4000CB0F04BF49000CF1010CCCF12003A0EBF9
:105C50000C0022FA03F302FA0CF241EA030100F10C
:105C60000100704720F07F4C80EA030023F07F475B
:105C7000ACEB070303F57C5300F0004003F1FF0396
:105C80002DE980494FEA154B09B44FEA144325EA40
:105C90000B4E24EA03480FF2042606EB13274908AB
:105CA0003E785FEA320203FB0667C7F5000707FB91
:105CB00006F64FEA54374FEAD64606F1020607FBCE
:105CC000066CCCF1005C4FEA1C472CEA074C07FB42
:105CD00006F40CFB06F504EB15464FEA961634BFA6
:105CE00000204FF000404FEAD13706FB07FC4FEA97
:105CF0001C4C0CFB0BF7D21B03FB0CF761EB0701F1
:105D00000CFB0EF7B0EB074072EB17420CFB08F7E9
:105D100034BFA2EB0742B2EB074261EB17414FEAF7
:105D20000C444FEA910706FB07FC4FEA1C4C0CFBA6
:105D30000BF7B0EBC74072EB573203FB0CF734BFE5
:105D4000A2EBC742B2EBC74261EB57310CFB0EF737
:105D5000B0EBC70072EB57720CFB08F734BFA2EB35
:105D6000C702B2EBC70261EB5771039F4FEA816133
:105D700041EA921104EBCC044FEAD1374FEA826238
:105D800006FB07FC42EA90124FEA80604FEA1C4C87
:105D90000CFB0BF7D21B03FB0CF761EB07010CFBB1
:105DA0000EF7B0EB074072EB17420CFB08F734BF5D
:105DB000A2EB0742B2EB074261EB17414FEA8C5569
:105DC0004FEA910704EB9C2406FB07FC4FEA1C4CAE
:105DD0000CFB0BF7B0EBC74072EB573203FB0CF731
:105DE00034BFA2EBC742B2EBC74261EB57310CFBA9
:105DF0000EF7B0EBC70072EB57720CFB08F734BF1D
:105E0000A2EBC702B2EBC70261EB577115EB4C2551
:105E10004FEA816141EA92114FEA82624FEAD1373B
:105E200042EA901206FB07FC44F100044FEA80604E
:105E30004FEA1C4C0CFB0BF7D21B03FB0CF761EB7E
:105E400007010CFB0EF7B0EB074072EB17420CFB9F
:105E500008F734BFA2EB0742B2EB074261EB1741F0
:105E600015EB1C154FEA813141EA92414FEA82322B
:105E700042EA90424FEA80304FEA0C7644F1000447
:105E800048EA03434EEA0B484FF0000EB2EB080C11
:105E900071EB030724BF624639464EEB0E0E4FF0FE
:105EA000000B0018524149414BEB0B0BB2EB080CB5
:105EB00071EB03077BF1000B24BF624639464EEBC2
:105EC0000E0E4FF0000B0018524149414BEB0B0BEB
:105ED000B2EB080C71EB03077BF1000B24BF6246A9
:105EE00039464EEB0E0E51EA020718BF46F0010686
:105EF00016EB0E7655F1000254F1000103D5BDE812
:105F00008901BDE80088BDE88901BDE80048B619EF
:105F1000524141EB0101A3F10103704780807F7E74
:105F20007D7C7B7A7978777676757473727171700F
:105F30006F6E6E6D6C6C6B6A6A69686867666665C1
:105F40006464636362616160605F5F5E5E5D5D5C4F
:105F50005C5B5B5A5A5959585857575656555555C0
:105F60005454535352525251515050504F4F4F4E20
:105F70004E4D4D4D4C4C4C4B4B4B4A4A4A4949496E
:105F800048484847474747464646454545444444B0
:105F9000444343434342424242414141002B9C46D9
:105FA00030D477002BD01CB54FEA370703B44FF03D
:105FB00010004FF01001BAF1000F06D0BCF1000F35
:105FC000DCBF40F0080040F008014FF000000FBCBB
:105FD000BDE810400BF1010BBBF1010F08BF5FEAF8
:105FE000170722BF12F1010211F101014FF0004128
:105FF00043F1000300F0004043EA00007047F9D38A
:106000005708D0E746EA064613F1400F4FEA164616
:106010001FDD13F1200FDFBF16430A460021203396
:106020005B42BED0C3F1200746EA064602FA07F7F4
:106030004FEA164646EA0706C3F1200722FA03F2A2
:1060400001FA07F721FA03F14FF0000342EA0702D1
:10605000A7E746EA020646EA06464FEA164646EA39
:106060000106BCBF46EA0646360C4FF000034FF06F
:1060700000024FF0000194E72DE9804C9A469346C8
:1060800070B491E8380007C831EA400C48BF34EAE0
:10609000430C03D5FFF7E6FDFFF780FFF0BCBDE83A
:1060A000008C2DE9804C9A46934670B491E83800F4
:1060B00007C810F0804F08BF13F0804F03D100F0E5
:1060C00005F8FFF76BFFF0BCBDE8008C20F07F47C0
:1060D00080EA030023F07F4C07EB0C03A3F57C530D
:1060E00000F00040A3F1FE0392F0000F00F0B38037
:1060F00095F0000F00F077802DE901494FEA11403B
:106100004FEA144621EA004800FB06FC24EA064751
:1061100008FB06F607FB08F800FB07F718EB064834
:106120004CEB164C4FEA124B18EB07484FEA15465A
:106130004CEB174022EA0B4E0BFB06FC25EA064708
:106140000EFB06F607FB0EFE0BFB07F71EEB064EDB
:106150004CEB164C4FF000061EEB074E4CEB174B6A
:1061600018EB0B0840F1000018EB0E0B58EB000881
:1061700040F100008F1A4FF000013CBFC943661B7D
:1061800014BFB5EB040C00213CBFC943F61B4FEA1A
:1061900017444EEA8E0E27EA04454FEA1C4704FBDB
:1061A00007622CEA074C05FB07F70CFB05F604FB1E
:1061B0000CFC16EB074642EB174216EB0C4642EB83
:1061C0001C421BEB060658EB0202414146EA9E06C2
:1061D00001D5BDE80189B619524141EB0101A3F196
:1061E0000103BDE801894FEA14454FEA114724EA4B
:1061F000054621EA074C05FB07F406FB07F70CFBF5
:1062000006F105FB0CFC11EB074144EB17444FEA88
:10621000124711EB0C4144EB1C4422EA074C05FBEE
:1062200007F206FB07F70CFB06F605FB0CFC16EB6A
:10623000074642EB174216EB0C4642EB1C456A1828
:1062400054F1000148BF7047B619524141EB0101BA
:10625000A3F10103704795F0000F37D04FEA1142C8
:106260004FEA144721EA024624EA074C02FB07F1F1
:1062700006FB07F70CFB06F402FB0CFC14EB0744CF
:1062800041EB17414FEA154714EB0C4441EB1C411D
:1062900025EA074C02FB07F506FB07F70CFB06F6A1
:1062A00002FB0CFC16EB074645EB174516EB0C46BC
:1062B00045EB1C42121951F1000148BF7047B61955
:1062C000524141EB0101A3F1010370474FEA14452C
:1062D0004FEA114724EA054621EA074C05FB07F17E
:1062E00006FB07F70CFB06F24FF0000605FB0CFC63
:1062F00012EB074241EB174112EB0C4251EB1C41F0
:1063000048BF7047921841EB0101A3F101037047A8
:10631000490050EAC12018BF04204A0D18BF40F0C0
:10632000010040F2FF72B2EB515F08BF40F0020083
:10633000012808BF0520704730380A2801D2012003
:10634000704700207047000010B500290AD0087877
:10635000002807D005487844FFF7D2FB002801D079
:10636000002010BD0248784410BD00001607000050
:106370000E0700002DE9C04130B4DFF8A0C23CEAAE
:10638000111418BF3CEA131400F0EC8081EA0305F5
:106390001CEA111444EAD57418BF1CEA131500F066
:1063A000C780A4EB05044FF0004545EAC12145EA4A
:1063B000C32341EA505143EA525304F17F74994296
:1063C00004F500344FEAC0204FEAC22208BF9042D1
:1063D00000F09C804FEA13650FF24016765D4FEA9D
:1063E000134506FB05F7C7F1807706FB07F74FEA71
:1063F000D737A7FB03687642C8F58038A7FB06CEDF
:1064000038BFA8F1010807FB08E64FF0000EA6FB15
:10641000028CE6FB03CEDCF1000CCEF1004E38BF5F
:10642000AEF1010EA6FB0C584FF000074FF000052F
:10643000E6FB0E87A1FB08C6A0FB07CE16EB0E06F7
:1064400045F10005E1FB076515F1E04E7EBFA4F5BF
:1064500080345FEA46066D4116F1800745F100057C
:106460004FEA17274FEA066647EA0567A6F1DE46B8
:10647000B6F1805F4FEA15251FD9384624F0010C8C
:1064800005EBC471BCF1FE6F01EB0C1102D8F0BC3E
:10649000BDE8008124425CBF01F5801E9EEAC47FF6
:1064A00002D4F0BCBDE80081244238D4F0BCA1F194
:1064B000C041BDE8004100F01AB94FEAD22242EAD9
:1064C00043524FEAD323A7FB02864FEAD02040EA8B
:1064D000415007FB03661EEA0E0F4FEAD12105FB70
:1064E000026658BFA6EB0056B6EB00564FEA520EB6
:1064F0004EEAC37E18EB0E0E56EB530EBDD518EBCD
:1065000002085E417F1C55F10005B6E74FF4801587
:106510004FF000074FF000064FF00008ADE7F0BC69
:106520004FF0000001F1C04101F00041BDE80081E1
:1065300011EA0C1F0CEA131500D00CE013EA0C1F33
:1065400000F025804FF00000F0BC81EA030101F06B
:106550000041BDE80081F0BCBDE8004181EA0301D3
:1065600000F0C5B8F0BCBDE8004170B500F071F8AE
:10657000097EFC3E00F007B881EA03014FF00000FD
:1065800001F00041704781EA030100F0B0B8F0BCAF
:10659000BDE800414FF0000021497047FFFDFBF9C5
:1065A000F7F5F4F2F0EEEDEBE9E8E6E4E3E1E0DE46
:1065B000DDDBDAD8D7D5D4D3D1D0CFCDCCCBCAC8B8
:1065C000C7C6C5C4C2C1C0BFBEBDBCBBBAB9B8B7DF
:1065D000B6B5B4B3B2B1B0AFAEADACABAAA9A8A8D2
:1065E000A7A6A5A4A3A3A2A1A09F9F9E9D9C9C9BA0
:1065F0009A9999989797969595949393929191904B
:106600008F8F8E8E8D8C8C8B8B8A898988888787DB
:106610008685858484838382828181800000FF0750
:106620000000F87F10F0004248BF4042B0FA80F30B
:1066300010FA03F10AD0C3F11D0303F580634FEA9A
:10664000415002EB035202EBD12170474FF00000A2
:1066500070470EF1020E2EF0030E5EF8046B364208
:1066600005D4012A43EB030515F5001F12D80128B4
:1066700041EB010C1CF5001F0CD80ED14FEAD17C68
:1066800015F5001F0CEB4C0C0CF1020C08BF4CEB89
:10669000D37C04E04FF0080C01E04FEAD37C0CEB14
:1066A0004C0526FA05F606F00706B6F1040C06D2EC
:1066B0000EEB860CBDE870404CF0010C6047DFE843
:1066C0000CF0090B02024FF000414FF00000A1F561
:1066D000002170BD19461046012851EB010418BF76
:1066E000D4F5001484BF002001F0004170BD0808FB
:1066F000A0F500114FEA31017047FEF753BF30316A
:1067000032333435363738394142434445464030D8
:10671000580030313233343536373839616263648A
:1067200065664030780004000008000000000000AA
:10673000000200010000100002400000000000A064
:106740000000000005400000000000C8000000003C
:106750000C4000000000409C0000000019400000B8
:106760000020BCBE0000000034400000BFC91B8EEA
:1067700000000004B5400000504BCFD06607E2CFC8
:10678000010000006C4100003E8251AADFEEA734F8
:1067900001000000D9420000DCB5A0E23A301F97AA
:1067A000FFFFFFFFB4450000FD25A0C8E9A3C14FCE
:1067B000FFFFFFFFFF3F000000000080000000001F
:1067C000FF3F00000000008000000000514E3D250A
:1067D000733030303B53543D25733B434E3D25735E
:1067E0003B50573D25733B4D4E3D25733B466C61F9
:1067F000673D25733B43503D2626446174615469CF
:106800006D653D25733B25733B25733B7A303030F6
:1068100030312D52533D313B7730303030312D52B5
:10682000533D3126260000003F00000064656300F0
:106830006964000072756E74696D650068656C70DE
:10684000000000006C697374000000006865780047
:10685000766F6964207274635F77726974655F62D2
:106860006B722875696E7433325F7420626B727854
:106870002C2075696E7431365F74206461746129EF
:106880000000000075696E74385F74207274635F75
:106890007365745F74696D652875696E7431365FF0
:1068A000742073796561722C2075696E74385F7419
:1068B00020736D6F6E2C2075696E74385F74207351
:1068C0006461792C2075696E74385F7420686F7507
:1068D000722C2075696E74385F74206D696E2C207F
:1068E00075696E74385F7420736563290000000059
:1068F00075696E74385F74207274635F7365745F5A
:10690000616C61726D2875696E7431365F742073C5
:10691000796561722C2075696E74385F7420736DAF
:106920006F6E2C2075696E74385F742073646179A2
:106930002C2075696E74385F7420686F75722C2016
:1069400075696E74385F74206D696E2C2075696E80
:1069500074385F742073656329000000766F696482
:106960002077726974655F616464722875696E74FA
:1069700033325F7420616464722C75696E743332D3
:106980005F742076616C290075696E7433325F74B0
:1069900020726561645F616464722875696E743326
:1069A000325F74206164647229000000766F69644C
:1069B0002064656C61795F6D732875696E7431361A
:1069C0005F74206E6D732900766F69642064656C56
:1069D00061795F75732875696E7433325F74206EE8
:1069E0007573290075696E7431365F742072746333
:1069F0005F726561645F626B722875696E743332B1
:106A00005F7420626B7278290000000075696E74F3
:106A1000385F74207274635F6765745F7765656B58
:106A20002875696E7431365F7420796561722C2027
:106A300075696E74385F74206D6F6E74682C207584
:106A4000696E74385F74206461792900886A00086F
:106A500000000020980100006C0100080C6B000889
:106A600098010020F8100000C80100081C00000078
:106A700043000000F8FFFFFF0C0000000E000000C4
:106A80000F0000002E0000001184A24A04680901D2
:106A9000020304060708090C691005180204060819
:106AA0001328681B083C041A44041A30041A4C04C6
:106AB0001A2C041A3404131748140888691B081D7B
:106AC000081A5C081343341B08AC0813FB331B087B
:106AD000C80813CF2D1B08E4081AB5081A50301A3D
:106AE000DD08130C6A140803301B0884101A1B28D5
:106AF0001AF008225C14207F431B089104133B44C6
:0C6B00001408AD4729A502DC01000000CC
:0400000508000131BD
:00000001FF
