Component: ARM Compiler 5.06 update 6 (build 750) Tool: armlink [4d35ed]

==============================================================================

Section Cross References

    main.o(.text) refers to _printf_percent.o(.ARM.Collect$$_printf_percent$$00000000) for _printf_percent
    main.o(.text) refers to _printf_d.o(.ARM.Collect$$_printf_percent$$00000009) for _printf_d
    main.o(.text) refers to _printf_dec.o(.text) for _printf_int_dec
    main.o(.text) refers to _printf_f.o(.ARM.Collect$$_printf_percent$$00000003) for _printf_f
    main.o(.text) refers to printf1.o(x$fpl$printf1) for _printf_fp_dec
    main.o(.text) refers to _printf_pad.o(.text) for _printf_pre_padding
    main.o(.text) refers to _printf_s.o(.ARM.Collect$$_printf_percent$$00000014) for _printf_s
    main.o(.text) refers to _printf_str.o(.text) for _printf_str
    main.o(.text) refers to _printf_x.o(.ARM.Collect$$_printf_percent$$0000000C) for _printf_x
    main.o(.text) refers to _printf_hex_int.o(.text) for _printf_longlong_hex
    main.o(.text) refers to delay.o(.text) for delay_init
    main.o(.text) refers to sys.o(.text) for NVIC_Configuration
    main.o(.text) refers to led.o(.text) for CSTX_4GCTR_Init
    main.o(.text) refers to unit.o(.text) for GPIO_ModeX
    main.o(.text) refers to rtc.o(.text) for rtc_init
    main.o(.text) refers to usart.o(.text) for uart_init
    main.o(.text) refers to wdg.o(.text) for IWDG_Init
    main.o(.text) refers to 4g.o(.text) for CSTX_4G_Init
==============================================================================

Removing Unused input sections from the image.

    Removing stm32f10x_adc.o(.text), (1102 bytes).
    Removing stm32f10x_bkp.o(.text), (196 bytes).
    Removing stm32f10x_can.o(.text), (2544 bytes).
    Removing stm32f10x_cec.o(.text), (288 bytes).
    Removing stm32f10x_crc.o(.text), (72 bytes).
    Removing stm32f10x_dac.o(.text), (396 bytes).
    Removing stm32f10x_dbgmcu.o(.text), (48 bytes).
    Removing stm32f10x_dma.o(.text), (596 bytes).
    Removing stm32f10x_exti.o(.text), (284 bytes).
    Removing stm32f10x_fsmc.o(.text), (1548 bytes).
    Removing stm32f10x_i2c.o(.text), (1028 bytes).
    Removing stm32f10x_iwdg.o(.text), (64 bytes).
    Removing stm32f10x_pwr.o(.text), (204 bytes).
    Removing stm32f10x_rtc.o(.text), (328 bytes).
    Removing stm32f10x_sdio.o(.text), (468 bytes).
    Removing stm32f10x_spi.o(.text), (780 bytes).
    Removing stm32f10x_wwdg.o(.text), (136 bytes).
    Removing hj212.o(.text), (54 bytes).
==============================================================================

Image Symbol Table

    Local Symbols

    Symbol Name                              Value     Ov Type        Size  Object(Section)

    ../clib/angel/boardlib.s                 0x00000000   Number         0  boardinit1.o ABSOLUTE
    ../clib/angel/boardlib.s                 0x00000000   Number         0  boardshut.o ABSOLUTE
    ../clib/angel/boardlib.s                 0x00000000   Number         0  boardinit2.o ABSOLUTE
    ../clib/angel/boardlib.s                 0x00000000   Number         0  boardinit3.o ABSOLUTE
    ../clib/angel/dczerorl2.s                0x00000000   Number         0  __dczerorl2.o ABSOLUTE
    ../clib/angel/handlers.s                 0x00000000   Number         0  __scatter_zi.o ABSOLUTE
    ../clib/angel/kernel.s                   0x00000000   Number         0  __rtentry2.o ABSOLUTE
    ../clib/angel/kernel.s                   0x00000000   Number         0  __rtentry.o ABSOLUTE
    ../clib/angel/kernel.s                   0x00000000   Number         0  rtexit2.o ABSOLUTE
    ../clib/angel/kernel.s                   0x00000000   Number         0  rtexit.o ABSOLUTE
    ../clib/angel/kernel.s                   0x00000000   Number         0  __rtentry4.o ABSOLUTE
    ../clib/angel/rt.s                       0x00000000   Number         0  rt_raise.o ABSOLUTE
    ../clib/angel/rt.s                       0x00000000   Number         0  rt_locale.o ABSOLUTE
    ../clib/angel/rt.s                       0x00000000   Number         0  rt_locale_intlibspace.o ABSOLUTE
    ../clib/angel/scatter.s                  0x00000000   Number         0  __scatter.o ABSOLUTE
    ../clib/angel/startup.s                  0x00000000   Number         0  __main.o ABSOLUTE
    ../clib/angel/sys.s                      0x00000000   Number         0  libspace.o ABSOLUTE
    ../clib/angel/sys.s                      0x00000000   Number         0  sys_stackheap_outer.o ABSOLUTE
    ../clib/angel/sys.s                      0x00000000   Number         0  use_no_semi_2.o ABSOLUTE
    ../clib/angel/sys.s                      0x00000000   Number         0  indicate_semi.o ABSOLUTE
    ../clib/angel/sys.s                      0x00000000   Number         0  use_no_semi.o ABSOLUTE
    ../clib/angel/sysapp.c                   0x00000000   Number         0  sys_wrch.o ABSOLUTE
    ../clib/angel/sysapp.c                   0x00000000   Number         0  sys_command.o ABSOLUTE
    ../clib/armsys.c                         0x00000000   Number         0  argv_veneer.o ABSOLUTE
    ../clib/armsys.c                         0x00000000   Number         0  argv_veneer.o ABSOLUTE
    ../clib/armsys.c                         0x00000000   Number         0  no_argv.o ABSOLUTE
    ../clib/armsys.c                         0x00000000   Number         0  _get_argv_nomalloc.o ABSOLUTE
    ../clib/bigflt.c                         0x00000000   Number         0  bigflt0.o ABSOLUTE
    ../clib/btod.s                           0x00000000   Number         0  btod.o ABSOLUTE
    ../clib/heapalloc.c                      0x00000000   Number         0  hrguard.o ABSOLUTE
    ../clib/heapaux.c                        0x00000000   Number         0  heapauxi.o ABSOLUTE
    ../clib/libinit.s                        0x00000000   Number         0  libinit2.o ABSOLUTE
    ../clib/libinit.s                        0x00000000   Number         0  libshutdown.o ABSOLUTE
    ../clib/libinit.s                        0x00000000   Number         0  libshutdown2.o ABSOLUTE
    ../clib/libinit.s                        0x00000000   Number         0  libinit.o ABSOLUTE
    ../clib/locale.s                         0x00000000   Number         0  lc_numeric_c.o ABSOLUTE
    ../clib/longlong.s                       0x00000000   Number         0  lludiv10.o ABSOLUTE
    ../clib/memcpset.s                       0x00000000   Number         0  rt_memclr.o ABSOLUTE
    ../clib/memcpset.s                       0x00000000   Number         0  strcmpv7m.o ABSOLUTE
    ../clib/memcpset.s                       0x00000000   Number         0  rt_memclr_w.o ABSOLUTE
    ../clib/misc.s                           0x00000000   Number         0  printf_stubs.o ABSOLUTE
    ../clib/printf.c                         0x00000000   Number         0  _printf_hex_ll.o ABSOLUTE
    ../clib/printf.c                         0x00000000   Number         0  _printf_dec.o ABSOLUTE
    ../clib/printf.c                         0x00000000   Number         0  _printf_fp_infnan.o ABSOLUTE
    ../clib/printf.c                         0x00000000   Number         0  _printf_str.o ABSOLUTE
    ../clib/printf.c                         0x00000000   Number         0  __printf_nopercent.o ABSOLUTE
    ../clib/printf.c                         0x00000000   Number         0  _printf_pad.o ABSOLUTE
    ../clib/printf.c                         0x00000000   Number         0  noretval__2sprintf.o ABSOLUTE
    ../clib/printf.c                         0x00000000   Number         0  noretval__2printf.o ABSOLUTE
    ../clib/printf.c                         0x00000000   Number         0  __2sprintf.o ABSOLUTE
    ../clib/printf.c                         0x00000000   Number         0  __2printf.o ABSOLUTE
    ../clib/printf.c                         0x00000000   Number         0  _printf_hex_int_ll.o ABSOLUTE
    ../clib/printf.c                         0x00000000   Number         0  __printf.o ABSOLUTE
    ../clib/printf.c                         0x00000000   Number         0  _printf_hex_int_ll_ptr.o ABSOLUTE
    ../clib/printf.c                         0x00000000   Number         0  _printf_hex_ll_ptr.o ABSOLUTE
    ../clib/printf.c                         0x00000000   Number         0  _printf_hex_int_ptr.o ABSOLUTE
    ../clib/printf.c                         0x00000000   Number         0  __printf_flags.o ABSOLUTE
    ../clib/printf.c                         0x00000000   Number         0  __printf_ss.o ABSOLUTE
    ../clib/printf.c                         0x00000000   Number         0  __printf_flags_ss.o ABSOLUTE
    ../clib/printf.c                         0x00000000   Number         0  __printf_wp.o ABSOLUTE
    ../clib/printf.c                         0x00000000   Number         0  __printf_flags_wp.o ABSOLUTE
    ../clib/printf.c                         0x00000000   Number         0  __printf_ss_wp.o ABSOLUTE
    ../clib/printf.c                         0x00000000   Number         0  __printf_flags_ss_wp.o ABSOLUTE
    ../clib/printf.c                         0x00000000   Number         0  _printf_char_file.o ABSOLUTE
    ../clib/printf.c                         0x00000000   Number         0  _printf_char.o ABSOLUTE
    ../clib/printf.c                         0x00000000   Number         0  _sputc.o ABSOLUTE
    ../clib/printf.c                         0x00000000   Number         0  _printf_char_common.o ABSOLUTE
    ../clib/printf.c                         0x00000000   Number         0  _printf_fp_dec.o ABSOLUTE
    ../clib/printf.c                         0x00000000   Number         0  _printf_intcommon.o ABSOLUTE
    ../clib/printf.c                         0x00000000   Number         0  _printf_hex_ptr.o ABSOLUTE
    ../clib/printf.c                         0x00000000   Number         0  _printf_hex_int.o ABSOLUTE
    ../clib/printf_percent.s                 0x00000000   Number         0  _printf_c.o ABSOLUTE
    ../clib/printf_percent.s                 0x00000000   Number         0  _printf_d.o ABSOLUTE
    ../clib/printf_percent.s                 0x00000000   Number         0  _printf_percent.o ABSOLUTE
    ../clib/printf_percent.s                 0x00000000   Number         0  _printf_f.o ABSOLUTE
    ../clib/printf_percent.s                 0x00000000   Number         0  _printf_s.o ABSOLUTE
    ../clib/printf_percent.s                 0x00000000   Number         0  _printf_x.o ABSOLUTE
    ../clib/printf_percent.s                 0x00000000   Number         0  _printf_u.o ABSOLUTE
    ../clib/printf_percent.s                 0x00000000   Number         0  _printf_percent_end.o ABSOLUTE
    ../clib/signal.c                         0x00000000   Number         0  defsig_segv_inner.o ABSOLUTE
    ../clib/signal.c                         0x00000000   Number         0  defsig_general.o ABSOLUTE
    ../clib/signal.c                         0x00000000   Number         0  __raise.o ABSOLUTE
    ../clib/signal.c                         0x00000000   Number         0  defsig_abrt_inner.o ABSOLUTE
    ../clib/signal.c                         0x00000000   Number         0  defsig_rtmem_inner.o ABSOLUTE
    ../clib/signal.c                         0x00000000   Number         0  defsig_exit.o ABSOLUTE
    ../clib/signal.c                         0x00000000   Number         0  defsig_fpe_inner.o ABSOLUTE
    ../clib/signal.c                         0x00000000   Number         0  defsig_rtred_inner.o ABSOLUTE
    ../clib/signal.c                         0x00000000   Number         0  defsig_rtmem_outer.o ABSOLUTE
    ../clib/signal.c                         0x00000000   Number         0  defsig_stak_inner.o ABSOLUTE
    ../clib/signal.c                         0x00000000   Number         0  defsig_pvfn_inner.o ABSOLUTE
    ../clib/signal.c                         0x00000000   Number         0  defsig_cppl_inner.o ABSOLUTE
    ../clib/signal.c                         0x00000000   Number         0  defsig_rtmem_formal.o ABSOLUTE
    ../clib/signal.c                         0x00000000   Number         0  defsig_other.o ABSOLUTE
    ../clib/signal.s                         0x00000000   Number         0  defsig.o ABSOLUTE
    ../clib/stdio.c                          0x00000000   Number         0  ferror_locked.o ABSOLUTE
    ../clib/stdio.c                          0x00000000   Number         0  ferror.o ABSOLUTE
    ../clib/stdlib.c                         0x00000000   Number         0  exit.o ABSOLUTE
    ../clib/string.c                         0x00000000   Number         0  strlen.o ABSOLUTE
    ../clib/string.c                         0x00000000   Number         0  strstr.o ABSOLUTE
    ../fplib/ddiv.s                          0x00000000   Number         0  ddiv.o ABSOLUTE
    ../fplib/dflt.s                          0x00000000   Number         0  dflt_clz.o ABSOLUTE
    ../fplib/dnaninf.s                       0x00000000   Number         0  dnaninf.o ABSOLUTE
    ../fplib/dretinf.s                       0x00000000   Number         0  dretinf.o ABSOLUTE
    ../fplib/fpinit.s                        0x00000000   Number         0  fpinit.o ABSOLUTE
    ../fplib/istatus.s                       0x00000000   Number         0  istatus.o ABSOLUTE
    ../fplib/printf1.s                       0x00000000   Number         0  printf1.o ABSOLUTE
    ../fplib/usenofp.s                       0x00000000   Number         0  usenofp.o ABSOLUTE
    ../mathlib/fpclassify.c                  0x00000000   Number         0  fpclassify.o ABSOLUTE
    ..\CORE\core_cm3.c                       0x00000000   Number         0  core_cm3.o ABSOLUTE
    ..\CORE\startup_stm32f10x_hd.s           0x00000000   Number         0  startup_stm32f10x_hd.o ABSOLUTE
    ..\HARDWARE\4G\4G.c                      0x00000000   Number         0  4g.o ABSOLUTE
    ..\HARDWARE\HJ212\hj212.c                0x00000000   Number         0  hj212.o ABSOLUTE
    ..\HARDWARE\LED\led.c                    0x00000000   Number         0  led.o ABSOLUTE
    ..\HARDWARE\RTC\rtc.c                    0x00000000   Number         0  rtc.o ABSOLUTE
    ..\HARDWARE\TIMER\timer.c                0x00000000   Number         0  timer.o ABSOLUTE
    ..\HARDWARE\USMART\usmart.c              0x00000000   Number         0  usmart.o ABSOLUTE
    ..\HARDWARE\USMART\usmart_config.c       0x00000000   Number         0  usmart_config.o ABSOLUTE
    ..\HARDWARE\USMART\usmart_port.c         0x00000000   Number         0  usmart_port.o ABSOLUTE
    ..\HARDWARE\USMART\usmart_str.c          0x00000000   Number         0  usmart_str.o ABSOLUTE
    ..\HARDWARE\WDG\wdg.c                    0x00000000   Number         0  wdg.o ABSOLUTE
    ..\HARDWARE\crc\crc.c                    0x00000000   Number         0  crc.o ABSOLUTE
    ..\HARDWARE\unit\unit.c                  0x00000000   Number         0  unit.o ABSOLUTE
    ..\STM32F10x_FWLib\src\misc.c            0x00000000   Number         0  misc.o ABSOLUTE
    ..\STM32F10x_FWLib\src\stm32f10x_adc.c   0x00000000   Number         0  stm32f10x_adc.o ABSOLUTE
    ..\STM32F10x_FWLib\src\stm32f10x_bkp.c   0x00000000   Number         0  stm32f10x_bkp.o ABSOLUTE
    ..\STM32F10x_FWLib\src\stm32f10x_can.c   0x00000000   Number         0  stm32f10x_can.o ABSOLUTE
    ..\STM32F10x_FWLib\src\stm32f10x_cec.c   0x00000000   Number         0  stm32f10x_cec.o ABSOLUTE
    ..\STM32F10x_FWLib\src\stm32f10x_crc.c   0x00000000   Number         0  stm32f10x_crc.o ABSOLUTE
    ..\STM32F10x_FWLib\src\stm32f10x_dac.c   0x00000000   Number         0  stm32f10x_dac.o ABSOLUTE
    ..\STM32F10x_FWLib\src\stm32f10x_dbgmcu.c 0x00000000   Number         0  stm32f10x_dbgmcu.o ABSOLUTE
    ..\STM32F10x_FWLib\src\stm32f10x_dma.c   0x00000000   Number         0  stm32f10x_dma.o ABSOLUTE
    ..\STM32F10x_FWLib\src\stm32f10x_exti.c  0x00000000   Number         0  stm32f10x_exti.o ABSOLUTE
    ..\STM32F10x_FWLib\src\stm32f10x_flash.c 0x00000000   Number         0  stm32f10x_flash.o ABSOLUTE
    ..\STM32F10x_FWLib\src\stm32f10x_fsmc.c  0x00000000   Number         0  stm32f10x_fsmc.o ABSOLUTE
    ..\STM32F10x_FWLib\src\stm32f10x_gpio.c  0x00000000   Number         0  stm32f10x_gpio.o ABSOLUTE
    ..\STM32F10x_FWLib\src\stm32f10x_i2c.c   0x00000000   Number         0  stm32f10x_i2c.o ABSOLUTE
    ..\STM32F10x_FWLib\src\stm32f10x_iwdg.c  0x00000000   Number         0  stm32f10x_iwdg.o ABSOLUTE
    ..\STM32F10x_FWLib\src\stm32f10x_pwr.c   0x00000000   Number         0  stm32f10x_pwr.o ABSOLUTE
    ..\STM32F10x_FWLib\src\stm32f10x_rcc.c   0x00000000   Number         0  stm32f10x_rcc.o ABSOLUTE
    ..\STM32F10x_FWLib\src\stm32f10x_rtc.c   0x00000000   Number         0  stm32f10x_rtc.o ABSOLUTE
    ..\STM32F10x_FWLib\src\stm32f10x_sdio.c  0x00000000   Number         0  stm32f10x_sdio.o ABSOLUTE
    ..\STM32F10x_FWLib\src\stm32f10x_spi.c   0x00000000   Number         0  stm32f10x_spi.o ABSOLUTE
    ..\STM32F10x_FWLib\src\stm32f10x_tim.c   0x00000000   Number         0  stm32f10x_tim.o ABSOLUTE
    ..\STM32F10x_FWLib\src\stm32f10x_usart.c 0x00000000   Number         0  stm32f10x_usart.o ABSOLUTE
    ..\STM32F10x_FWLib\src\stm32f10x_wwdg.c  0x00000000   Number         0  stm32f10x_wwdg.o ABSOLUTE
    ..\SYSTEM\delay\delay.c                  0x00000000   Number         0  delay.o ABSOLUTE
    ..\SYSTEM\sys\sys.c                      0x00000000   Number         0  sys.o ABSOLUTE
    ..\SYSTEM\usart\usart.c                  0x00000000   Number         0  usart.o ABSOLUTE
    ..\\CORE\\core_cm3.c                     0x00000000   Number         0  core_cm3.o ABSOLUTE
    dc.s                                     0x00000000   Number         0  dc.o ABSOLUTE
    main.c                                   0x00000000   Number         0  main.o ABSOLUTE
    stm32f10x_it.c                           0x00000000   Number         0  stm32f10x_it.o ABSOLUTE
    system_stm32f10x.c                       0x00000000   Number         0  system_stm32f10x.o ABSOLUTE
    RESET                                    0x08000000   Section      304  startup_stm32f10x_hd.o(RESET)
    !!!main                                  0x08000130   Section        8  __main.o(!!!main)
    !!!scatter                               0x08000138   Section       52  __scatter.o(!!!scatter)
    !!dczerorl2                              0x0800016c   Section       90  __dczerorl2.o(!!dczerorl2)
    !!handler_zi                             0x080001c8   Section       28  __scatter_zi.o(!!handler_zi)
    .ARM.Collect$$_printf_percent$$00000000  0x080001e4   Section        0  _printf_percent.o(.ARM.Collect$$_printf_percent$$00000000)
    .ARM.Collect$$_printf_percent$$00000003  0x080001e4   Section        6  _printf_f.o(.ARM.Collect$$_printf_percent$$00000003)
    .ARM.Collect$$_printf_percent$$00000009  0x080001ea   Section        6  _printf_d.o(.ARM.Collect$$_printf_percent$$00000009)
    .ARM.Collect$$_printf_percent$$0000000A  0x080001f0   Section        6  _printf_u.o(.ARM.Collect$$_printf_percent$$0000000A)
    .ARM.Collect$$_printf_percent$$0000000C  0x080001f6   Section        6  _printf_x.o(.ARM.Collect$$_printf_percent$$0000000C)
    .ARM.Collect$$_printf_percent$$00000013  0x080001fc   Section        6  _printf_c.o(.ARM.Collect$$_printf_percent$$00000013)
    .ARM.Collect$$_printf_percent$$00000014  0x08000202   Section        6  _printf_s.o(.ARM.Collect$$_printf_percent$$00000014)
    .ARM.Collect$$_printf_percent$$00000017  0x08000208   Section        4  _printf_percent_end.o(.ARM.Collect$$_printf_percent$$00000017)
    .ARM.Collect$$libinit$$00000000          0x0800020c   Section        2  libinit.o(.ARM.Collect$$libinit$$00000000)
    .ARM.Collect$$libinit$$00000002          0x0800020e   Section        0  libinit2.o(.ARM.Collect$$libinit$$00000002)
    .ARM.Collect$$libinit$$00000004          0x0800020e   Section        0  libinit2.o(.ARM.Collect$$libinit$$00000004)
    .ARM.Collect$$libinit$$0000000A          0x0800020e   Section        0  libinit2.o(.ARM.Collect$$libinit$$0000000A)
    .ARM.Collect$$libinit$$0000000C          0x0800020e   Section        0  libinit2.o(.ARM.Collect$$libinit$$0000000C)
    .ARM.Collect$$libinit$$0000000E          0x0800020e   Section        0  libinit2.o(.ARM.Collect$$libinit$$0000000E)
    .ARM.Collect$$libinit$$0000000F          0x0800020e   Section        6  libinit2.o(.ARM.Collect$$libinit$$0000000F)
    .ARM.Collect$$libinit$$00000011          0x08000214   Section        0  libinit2.o(.ARM.Collect$$libinit$$00000011)
    .ARM.Collect$$libinit$$00000013          0x08000214   Section        0  libinit2.o(.ARM.Collect$$libinit$$00000013)
    .ARM.Collect$$libinit$$00000015          0x08000214   Section        0  libinit2.o(.ARM.Collect$$libinit$$00000015)
    .ARM.Collect$$libinit$$00000016          0x08000214   Section       10  libinit2.o(.ARM.Collect$$libinit$$00000016)
    .ARM.Collect$$libinit$$00000017          0x0800021e   Section        0  libinit2.o(.ARM.Collect$$libinit$$00000017)
    .ARM.Collect$$libinit$$00000019          0x0800021e   Section        0  libinit2.o(.ARM.Collect$$libinit$$00000019)
    .ARM.Collect$$libinit$$0000001B          0x0800021e   Section        0  libinit2.o(.ARM.Collect$$libinit$$0000001B)
    .ARM.Collect$$libinit$$0000001D          0x0800021e   Section        0  libinit2.o(.ARM.Collect$$libinit$$0000001D)
    .ARM.Collect$$libinit$$0000001F          0x0800021e   Section        0  libinit2.o(.ARM.Collect$$libinit$$0000001F)
    .ARM.Collect$$libinit$$00000021          0x0800021e   Section        0  libinit2.o(.ARM.Collect$$libinit$$00000021)
    .ARM.Collect$$libinit$$00000023          0x0800021e   Section        0  libinit2.o(.ARM.Collect$$libinit$$00000023)
    .ARM.Collect$$libinit$$00000025          0x0800021e   Section        0  libinit2.o(.ARM.Collect$$libinit$$00000025)
    .ARM.Collect$$libinit$$0000002C          0x0800021e   Section        0  libinit2.o(.ARM.Collect$$libinit$$0000002C)
    .ARM.Collect$$libinit$$0000002E          0x0800021e   Section        0  libinit2.o(.ARM.Collect$$libinit$$0000002E)
    .ARM.Collect$$libinit$$00000030          0x0800021e   Section        0  libinit2.o(.ARM.Collect$$libinit$$00000030)
    .ARM.Collect$$libinit$$00000032          0x0800021e   Section        0  libinit2.o(.ARM.Collect$$libinit$$00000032)
    .ARM.Collect$$libinit$$00000033          0x0800021e   Section        2  libinit2.o(.ARM.Collect$$libinit$$00000033)
    .ARM.Collect$$libshutdown$$00000000      0x08000220   Section        2  libshutdown.o(.ARM.Collect$$libshutdown$$00000000)
    .ARM.Collect$$libshutdown$$00000002      0x08000222   Section        0  libshutdown2.o(.ARM.Collect$$libshutdown$$00000002)
    .ARM.Collect$$libshutdown$$00000004      0x08000222   Section        0  libshutdown2.o(.ARM.Collect$$libshutdown$$00000004)
    .ARM.Collect$$libshutdown$$00000007      0x08000222   Section        0  libshutdown2.o(.ARM.Collect$$libshutdown$$00000007)
    .ARM.Collect$$libshutdown$$0000000A      0x08000222   Section        0  libshutdown2.o(.ARM.Collect$$libshutdown$$0000000A)
    .ARM.Collect$$libshutdown$$0000000C      0x08000222   Section        0  libshutdown2.o(.ARM.Collect$$libshutdown$$0000000C)
    .ARM.Collect$$libshutdown$$0000000F      0x08000222   Section        0  libshutdown2.o(.ARM.Collect$$libshutdown$$0000000F)
    .ARM.Collect$$libshutdown$$00000010      0x08000222   Section        2  libshutdown2.o(.ARM.Collect$$libshutdown$$00000010)
    .ARM.Collect$$rtentry$$00000000          0x08000224   Section        0  __rtentry.o(.ARM.Collect$$rtentry$$00000000)
    .ARM.Collect$$rtentry$$00000002          0x08000224   Section        0  __rtentry2.o(.ARM.Collect$$rtentry$$00000002)
    .ARM.Collect$$rtentry$$00000004          0x08000224   Section        6  __rtentry4.o(.ARM.Collect$$rtentry$$00000004)
    .ARM.Collect$$rtentry$$00000009          0x0800022a   Section        0  __rtentry2.o(.ARM.Collect$$rtentry$$00000009)
    .ARM.Collect$$rtentry$$0000000A          0x0800022a   Section        4  __rtentry2.o(.ARM.Collect$$rtentry$$0000000A)
    .ARM.Collect$$rtentry$$0000000C          0x0800022e   Section        0  __rtentry2.o(.ARM.Collect$$rtentry$$0000000C)
    .ARM.Collect$$rtentry$$0000000D          0x0800022e   Section        8  __rtentry2.o(.ARM.Collect$$rtentry$$0000000D)
    .ARM.Collect$$rtexit$$00000000           0x08000236   Section        2  rtexit.o(.ARM.Collect$$rtexit$$00000000)
    .ARM.Collect$$rtexit$$00000002           0x08000238   Section        0  rtexit2.o(.ARM.Collect$$rtexit$$00000002)
    .ARM.Collect$$rtexit$$00000003           0x08000238   Section        4  rtexit2.o(.ARM.Collect$$rtexit$$00000003)
    .ARM.Collect$$rtexit$$00000004           0x0800023c   Section        6  rtexit2.o(.ARM.Collect$$rtexit$$00000004)
    .emb_text                                0x08000244   Section       32  core_cm3.o(.emb_text)
    .text                                    0x08000264   Section        0  main.o(.text)
    .text                                    0x08000530   Section        0  stm32f10x_it.o(.text)
    .text                                    0x0800054c   Section        0  system_stm32f10x.o(.text)
    SetSysClockTo72                          0x080005bb   Thumb Code   214  system_stm32f10x.o(.text)
    SetSysClock                              0x08000691   Thumb Code     8  system_stm32f10x.o(.text)
    .text                                    0x08000798   Section        0  misc.o(.text)
    .text                                    0x08000874   Section        0  stm32f10x_flash.o(.text)
    .text                                    0x08000e30   Section        0  stm32f10x_gpio.o(.text)
    .text                                    0x0800118c   Section        0  stm32f10x_rcc.o(.text)
    .text                                    0x08001530   Section        0  stm32f10x_tim.o(.text)
    TI4_Config                               0x080019d7   Thumb Code   130  stm32f10x_tim.o(.text)
    TI3_Config                               0x08001a6b   Thumb Code   122  stm32f10x_tim.o(.text)
    TI2_Config                               0x08001aff   Thumb Code   130  stm32f10x_tim.o(.text)
    TI1_Config                               0x08001b93   Thumb Code   108  stm32f10x_tim.o(.text)
    .text                                    0x0800234c   Section        0  stm32f10x_usart.o(.text)
    .text                                    0x08002754   Section       64  startup_stm32f10x_hd.o(.text)
    .text                                    0x08002794   Section        0  led.o(.text)
    .text                                    0x08002870   Section        0  wdg.o(.text)
    .text                                    0x08002874   Section        0  timer.o(.text)
    .text                                    0x08002950   Section        0  4g.o(.text)
    .text                                    0x08002d48   Section        0  crc.o(.text)
    .text                                    0x08002d88   Section        0  unit.o(.text)
    .text                                    0x08002db4   Section        0  rtc.o(.text)
    rtc_is_leap_year                         0x08002e2d   Thumb Code    50  rtc.o(.text)
    rtc_date2sec                             0x08002f5d   Thumb Code   166  rtc.o(.text)
    .text                                    0x080033c8   Section        0  delay.o(.text)
    .text                                    0x0800349c   Section        0  sys.o(.text)
    sys_nvic_priority_group_config           0x080034b5   Thumb Code    36  sys.o(.text)
    .text                                    0x08003958   Section        0  usart.o(.text)
    .text                                    0x08003d5c   Section        0  usmart.o(.text)
    .text                                    0x08004890   Section        0  usmart_port.o(.text)
    .text                                    0x08004998   Section        0  usmart_str.o(.text)
    .text                                    0x08004f08   Section        2  use_no_semi_2.o(.text)
    .text                                    0x08004f0c   Section        0  noretval__2printf.o(.text)
    .text                                    0x08004f24   Section        0  noretval__2sprintf.o(.text)
    .text                                    0x08004f4c   Section        0  _printf_pad.o(.text)
    .text                                    0x08004f9a   Section        0  _printf_str.o(.text)
    .text                                    0x08004fec   Section        0  _printf_dec.o(.text)
    .text                                    0x08005064   Section        0  _printf_hex_int.o(.text)
    .text                                    0x080050bc   Section        0  __printf_flags_ss_wp.o(.text)
    .text                                    0x08005244   Section        0  strstr.o(.text)
    .text                                    0x08005268   Section        0  strlen.o(.text)
    .text                                    0x080052a6   Section       68  rt_memclr.o(.text)
    .text                                    0x080052ea   Section       78  rt_memclr_w.o(.text)
    .text                                    0x08005338   Section        0  heapauxi.o(.text)
    .text                                    0x0800533e   Section        2  use_no_semi.o(.text)
    .text                                    0x08005340   Section        0  _printf_intcommon.o(.text)
    .text                                    0x080053f2   Section        0  _printf_fp_dec.o(.text)
    _fp_digits                               0x080053f5   Thumb Code   432  _printf_fp_dec.o(.text)
    .text                                    0x08005810   Section        0  _printf_char_common.o(.text)
    _printf_input_char                       0x08005811   Thumb Code    10  _printf_char_common.o(.text)
    .text                                    0x08005840   Section        0  _sputc.o(.text)
    .text                                    0x0800584a   Section        0  _printf_char.o(.text)
    .text                                    0x08005878   Section        0  _printf_char_file.o(.text)
    .text                                    0x0800589c   Section        8  rt_locale_intlibspace.o(.text)
    .text                                    0x080058a4   Section      138  lludiv10.o(.text)
    .text                                    0x08005930   Section        0  _printf_fp_infnan.o(.text)
    .text                                    0x080059b0   Section        0  bigflt0.o(.text)
    .text                                    0x08005a94   Section        0  ferror.o(.text)
    .text                                    0x08005a9c   Section        8  libspace.o(.text)
    .text                                    0x08005aa4   Section       74  sys_stackheap_outer.o(.text)
    .text                                    0x08005aee   Section        0  exit.o(.text)
    .text                                    0x08005b00   Section      128  strcmpv7m.o(.text)
    CL$$btod_d2e                             0x08005b80   Section       62  btod.o(CL$$btod_d2e)
    CL$$btod_d2e_denorm_low                  0x08005bbe   Section       70  btod.o(CL$$btod_d2e_denorm_low)
    CL$$btod_d2e_norm_op1                    0x08005c04   Section       96  btod.o(CL$$btod_d2e_norm_op1)
    CL$$btod_div_common                      0x08005c64   Section      824  btod.o(CL$$btod_div_common)
    CL$$btod_e2e                             0x08005f9c   Section      220  btod.o(CL$$btod_e2e)
    CL$$btod_ediv                            0x08006078   Section       42  btod.o(CL$$btod_ediv)
    CL$$btod_emul                            0x080060a2   Section       42  btod.o(CL$$btod_emul)
    CL$$btod_mult_common                     0x080060cc   Section      580  btod.o(CL$$btod_mult_common)
    i.__ARM_fpclassify                       0x08006310   Section        0  fpclassify.o(i.__ARM_fpclassify)
    i._is_digit                              0x08006338   Section        0  __printf_wp.o(i._is_digit)
    locale$$code                             0x08006348   Section       44  lc_numeric_c.o(locale$$code)
    x$fpl$ddiv                               0x08006374   Section      688  ddiv.o(x$fpl$ddiv)
    ddiv_entry                               0x0800637b   Thumb Code     0  ddiv.o(x$fpl$ddiv)
    x$fpl$dflt                               0x08006624   Section       46  dflt_clz.o(x$fpl$dflt)
    x$fpl$dnaninf                            0x08006652   Section      156  dnaninf.o(x$fpl$dnaninf)
    x$fpl$dretinf                            0x080066ee   Section       12  dretinf.o(x$fpl$dretinf)
    x$fpl$printf1                            0x080066fa   Section        4  printf1.o(x$fpl$printf1)
    .constdata                               0x080066fe   Section       40  _printf_hex_int.o(.constdata)
    x$fpl$usenofp                            0x080066fe   Section        0  usenofp.o(x$fpl$usenofp)
    uc_hextab                                0x080066fe   Data          20  _printf_hex_int.o(.constdata)
    lc_hextab                                0x08006712   Data          20  _printf_hex_int.o(.constdata)
    .constdata                               0x08006726   Section       17  __printf_flags_ss_wp.o(.constdata)
    maptable                                 0x08006726   Data          17  __printf_flags_ss_wp.o(.constdata)
    .constdata                               0x08006738   Section      148  bigflt0.o(.constdata)
    tenpwrs_x                                0x08006738   Data          60  bigflt0.o(.constdata)
    tenpwrs_i                                0x08006774   Data          64  bigflt0.o(.constdata)
    .conststring                             0x080067cc   Section       90  main.o(.conststring)
    .conststring                             0x08006828   Section       40  usmart.o(.conststring)
    .conststring                             0x08006850   Section      508  usmart_config.o(.conststring)
    locale$$data                             0x08006a6c   Section       28  lc_numeric_c.o(locale$$data)
    __lcnum_c_name                           0x08006a70   Data           2  lc_numeric_c.o(locale$$data)
    __lcnum_c_start                          0x08006a78   Data           0  lc_numeric_c.o(locale$$data)
    __lcnum_c_point                          0x08006a84   Data           0  lc_numeric_c.o(locale$$data)
    __lcnum_c_thousands                      0x08006a86   Data           0  lc_numeric_c.o(locale$$data)
    __lcnum_c_grouping                       0x08006a87   Data           0  lc_numeric_c.o(locale$$data)
    __lcnum_c_end                            0x08006a88   Data           0  lc_numeric_c.o(locale$$data)
    .data                                    0x20000000   Section       20  system_stm32f10x.o(.data)
    .data                                    0x20000014   Section       20  stm32f10x_rcc.o(.data)
    APBAHBPrescTable                         0x20000014   Data          16  stm32f10x_rcc.o(.data)
    ADCPrescTable                            0x20000024   Data           4  stm32f10x_rcc.o(.data)
    .data                                    0x20000028   Section       12  4g.o(.data)
    .data                                    0x20000034   Section        2  rtc.o(.data)
    daycnt                                   0x20000034   Data           2  rtc.o(.data)
    .data                                    0x20000036   Section        4  delay.o(.data)
    fac_us                                   0x20000036   Data           1  delay.o(.data)
    fac_ms                                   0x20000038   Data           2  delay.o(.data)
    .data                                    0x2000003c   Section        4  usart.o(.data)
    .data                                    0x20000040   Section       28  usmart.o(.data)
    .data                                    0x2000005c   Section      316  usmart_config.o(.data)
    .bss                                     0x20000198   Section      371  4g.o(.bss)
    .bss                                     0x2000030c   Section       10  rtc.o(.bss)
    .bss                                     0x20000318   Section      792  usart.o(.bss)
    .bss                                     0x20000630   Section       96  libspace.o(.bss)
    HEAP                                     0x20000690   Section     1024  startup_stm32f10x_hd.o(HEAP)
    Heap_Mem                                 0x20000690   Data        1024  startup_stm32f10x_hd.o(HEAP)
    STACK                                    0x20000a90   Section     2048  startup_stm32f10x_hd.o(STACK)
    Stack_Mem                                0x20000a90   Data        2048  startup_stm32f10x_hd.o(STACK)
    __initial_sp                             0x20001290   Data           0  startup_stm32f10x_hd.o(STACK)

    Global Symbols

    Symbol Name                              Value     Ov Type        Size  Object(Section)

    BuildAttributes$$THM_ISAv4$P$D$K$B$S$PE$A:L22UL41UL21$X:L11$S22US41US21$IEEE1$IW$USESV6$~STKCKD$USESV7$~SHL$OTIME$ROPI$IEEEJ$EBA8$UX$STANDARDLIB$REQ8$PRES8$EABIv2 0x00000000   Number         0  anon$$obj.o ABSOLUTE
    __ARM_use_no_argv                        0x00000000   Number         0  main.o ABSOLUTE
    _printf_flags                            0x00000000   Number         0  printf_stubs.o ABSOLUTE
    _printf_return_value                     0x00000000   Number         0  printf_stubs.o ABSOLUTE
    _printf_sizespec                         0x00000000   Number         0  printf_stubs.o ABSOLUTE
    _printf_widthprec                        0x00000000   Number         0  printf_stubs.o ABSOLUTE
    __ARM_exceptions_init                     - Undefined Weak Reference
    __alloca_initialize                       - Undefined Weak Reference
    __arm_preinit_                            - Undefined Weak Reference
    __cpp_initialize__aeabi_                  - Undefined Weak Reference
    __cxa_finalize                            - Undefined Weak Reference
    __sigvec_lookup                           - Undefined Weak Reference
    _atexit_init                              - Undefined Weak Reference
    _call_atexit_fns                          - Undefined Weak Reference
    _clock_init                               - Undefined Weak Reference
    _fp_trap_init                             - Undefined Weak Reference
    _fp_trap_shutdown                         - Undefined Weak Reference
    _get_lc_collate                           - Undefined Weak Reference
    _get_lc_ctype                             - Undefined Weak Reference
    _get_lc_monetary                          - Undefined Weak Reference
    _get_lc_time                              - Undefined Weak Reference
    _getenv_init                              - Undefined Weak Reference
    _handle_redirection                       - Undefined Weak Reference
    _init_alloc                               - Undefined Weak Reference
    _init_user_alloc                          - Undefined Weak Reference
    _initio                                   - Undefined Weak Reference
    _mutex_acquire                            - Undefined Weak Reference
    _mutex_release                            - Undefined Weak Reference
    _printf_mbtowc                            - Undefined Weak Reference
    _printf_truncate_signed                   - Undefined Weak Reference
    _printf_truncate_unsigned                 - Undefined Weak Reference
    _rand_init                                - Undefined Weak Reference
    _signal_finish                            - Undefined Weak Reference
    _signal_init                              - Undefined Weak Reference
    _terminate_alloc                          - Undefined Weak Reference
    _terminate_user_alloc                     - Undefined Weak Reference
    _terminateio                              - Undefined Weak Reference
    __Vectors_Size                           0x00000130   Number         0  startup_stm32f10x_hd.o ABSOLUTE
    __Vectors                                0x08000000   Data           4  startup_stm32f10x_hd.o(RESET)
    __Vectors_End                            0x08000130   Data           0  startup_stm32f10x_hd.o(RESET)
    __main                                   0x08000131   Thumb Code     8  __main.o(!!!main)
    __scatterload                            0x08000139   Thumb Code     0  __scatter.o(!!!scatter)
    __scatterload_rt2                        0x08000139   Thumb Code    44  __scatter.o(!!!scatter)
    __scatterload_rt2_thumb_only             0x08000139   Thumb Code     0  __scatter.o(!!!scatter)
    __scatterload_null                       0x08000147   Thumb Code     0  __scatter.o(!!!scatter)
    __decompress                             0x0800016d   Thumb Code    90  __dczerorl2.o(!!dczerorl2)
    __decompress1                            0x0800016d   Thumb Code     0  __dczerorl2.o(!!dczerorl2)
    __scatterload_zeroinit                   0x080001c9   Thumb Code    28  __scatter_zi.o(!!handler_zi)
    _printf_f                                0x080001e5   Thumb Code     0  _printf_f.o(.ARM.Collect$$_printf_percent$$00000003)
    _printf_percent                          0x080001e5   Thumb Code     0  _printf_percent.o(.ARM.Collect$$_printf_percent$$00000000)
    _printf_d                                0x080001eb   Thumb Code     0  _printf_d.o(.ARM.Collect$$_printf_percent$$00000009)
    _printf_u                                0x080001f1   Thumb Code     0  _printf_u.o(.ARM.Collect$$_printf_percent$$0000000A)
    _printf_x                                0x080001f7   Thumb Code     0  _printf_x.o(.ARM.Collect$$_printf_percent$$0000000C)
    _printf_c                                0x080001fd   Thumb Code     0  _printf_c.o(.ARM.Collect$$_printf_percent$$00000013)
    _printf_s                                0x08000203   Thumb Code     0  _printf_s.o(.ARM.Collect$$_printf_percent$$00000014)
    _printf_percent_end                      0x08000209   Thumb Code     0  _printf_percent_end.o(.ARM.Collect$$_printf_percent$$00000017)
    __rt_lib_init                            0x0800020d   Thumb Code     0  libinit.o(.ARM.Collect$$libinit$$00000000)
    __rt_lib_init_fp_1                       0x0800020f   Thumb Code     0  libinit2.o(.ARM.Collect$$libinit$$00000002)
    __rt_lib_init_heap_1                     0x0800020f   Thumb Code     0  libinit2.o(.ARM.Collect$$libinit$$0000000A)
    __rt_lib_init_lc_common                  0x0800020f   Thumb Code     0  libinit2.o(.ARM.Collect$$libinit$$0000000F)
    __rt_lib_init_preinit_1                  0x0800020f   Thumb Code     0  libinit2.o(.ARM.Collect$$libinit$$00000004)
    __rt_lib_init_rand_1                     0x0800020f   Thumb Code     0  libinit2.o(.ARM.Collect$$libinit$$0000000E)
    __rt_lib_init_user_alloc_1               0x0800020f   Thumb Code     0  libinit2.o(.ARM.Collect$$libinit$$0000000C)
    __rt_lib_init_lc_collate_1               0x08000215   Thumb Code     0  libinit2.o(.ARM.Collect$$libinit$$00000011)
    __rt_lib_init_lc_ctype_1                 0x08000215   Thumb Code     0  libinit2.o(.ARM.Collect$$libinit$$00000013)
    __rt_lib_init_lc_monetary_1              0x08000215   Thumb Code     0  libinit2.o(.ARM.Collect$$libinit$$00000015)
    __rt_lib_init_lc_numeric_2               0x08000215   Thumb Code     0  libinit2.o(.ARM.Collect$$libinit$$00000016)
    __rt_lib_init_alloca_1                   0x0800021f   Thumb Code     0  libinit2.o(.ARM.Collect$$libinit$$0000002E)
    __rt_lib_init_argv_1                     0x0800021f   Thumb Code     0  libinit2.o(.ARM.Collect$$libinit$$0000002C)
    __rt_lib_init_atexit_1                   0x0800021f   Thumb Code     0  libinit2.o(.ARM.Collect$$libinit$$0000001B)
    __rt_lib_init_clock_1                    0x0800021f   Thumb Code     0  libinit2.o(.ARM.Collect$$libinit$$00000021)
    __rt_lib_init_cpp_1                      0x0800021f   Thumb Code     0  libinit2.o(.ARM.Collect$$libinit$$00000032)
    __rt_lib_init_exceptions_1               0x0800021f   Thumb Code     0  libinit2.o(.ARM.Collect$$libinit$$00000030)
    __rt_lib_init_fp_trap_1                  0x0800021f   Thumb Code     0  libinit2.o(.ARM.Collect$$libinit$$0000001F)
    __rt_lib_init_getenv_1                   0x0800021f   Thumb Code     0  libinit2.o(.ARM.Collect$$libinit$$00000023)
    __rt_lib_init_lc_numeric_1               0x0800021f   Thumb Code     0  libinit2.o(.ARM.Collect$$libinit$$00000017)
    __rt_lib_init_lc_time_1                  0x0800021f   Thumb Code     0  libinit2.o(.ARM.Collect$$libinit$$00000019)
    __rt_lib_init_return                     0x0800021f   Thumb Code     0  libinit2.o(.ARM.Collect$$libinit$$00000033)
    __rt_lib_init_signal_1                   0x0800021f   Thumb Code     0  libinit2.o(.ARM.Collect$$libinit$$0000001D)
    __rt_lib_init_stdio_1                    0x0800021f   Thumb Code     0  libinit2.o(.ARM.Collect$$libinit$$00000025)
    __rt_lib_shutdown                        0x08000221   Thumb Code     0  libshutdown.o(.ARM.Collect$$libshutdown$$00000000)
    __rt_lib_shutdown_cpp_1                  0x08000223   Thumb Code     0  libshutdown2.o(.ARM.Collect$$libshutdown$$00000002)
    __rt_lib_shutdown_fp_trap_1              0x08000223   Thumb Code     0  libshutdown2.o(.ARM.Collect$$libshutdown$$00000007)
    __rt_lib_shutdown_heap_1                 0x08000223   Thumb Code     0  libshutdown2.o(.ARM.Collect$$libshutdown$$0000000F)
    __rt_lib_shutdown_return                 0x08000223   Thumb Code     0  libshutdown2.o(.ARM.Collect$$libshutdown$$00000010)
    __rt_lib_shutdown_signal_1               0x08000223   Thumb Code     0  libshutdown2.o(.ARM.Collect$$libshutdown$$0000000A)
    __rt_lib_shutdown_stdio_1                0x08000223   Thumb Code     0  libshutdown2.o(.ARM.Collect$$libshutdown$$00000004)
    __rt_lib_shutdown_user_alloc_1           0x08000223   Thumb Code     0  libshutdown2.o(.ARM.Collect$$libshutdown$$0000000C)
    __rt_entry                               0x08000225   Thumb Code     0  __rtentry.o(.ARM.Collect$$rtentry$$00000000)
    __rt_entry_presh_1                       0x08000225   Thumb Code     0  __rtentry2.o(.ARM.Collect$$rtentry$$00000002)
    __rt_entry_sh                            0x08000225   Thumb Code     0  __rtentry4.o(.ARM.Collect$$rtentry$$00000004)
    __rt_entry_li                            0x0800022b   Thumb Code     0  __rtentry2.o(.ARM.Collect$$rtentry$$0000000A)
    __rt_entry_postsh_1                      0x0800022b   Thumb Code     0  __rtentry2.o(.ARM.Collect$$rtentry$$00000009)
    __rt_entry_main                          0x0800022f   Thumb Code     0  __rtentry2.o(.ARM.Collect$$rtentry$$0000000D)
    __rt_entry_postli_1                      0x0800022f   Thumb Code     0  __rtentry2.o(.ARM.Collect$$rtentry$$0000000C)
    __rt_exit                                0x08000237   Thumb Code     0  rtexit.o(.ARM.Collect$$rtexit$$00000000)
    __rt_exit_ls                             0x08000239   Thumb Code     0  rtexit2.o(.ARM.Collect$$rtexit$$00000003)
    __rt_exit_prels_1                        0x08000239   Thumb Code     0  rtexit2.o(.ARM.Collect$$rtexit$$00000002)
    __rt_exit_exit                           0x0800023d   Thumb Code     0  rtexit2.o(.ARM.Collect$$rtexit$$00000004)
    __get_PSP                                0x08000245   Thumb Code     6  core_cm3.o(.emb_text)
    __set_PSP                                0x0800024b   Thumb Code     6  core_cm3.o(.emb_text)
    __get_MSP                                0x08000251   Thumb Code     6  core_cm3.o(.emb_text)
    __set_MSP                                0x08000257   Thumb Code     6  core_cm3.o(.emb_text)
    __REV16                                  0x0800025d   Thumb Code     4  core_cm3.o(.emb_text)
    __REVSH                                  0x08000261   Thumb Code     4  core_cm3.o(.emb_text)
    main                                     0x08000265   Thumb Code   542  main.o(.text)
    NMI_Handler                              0x08000531   Thumb Code     2  stm32f10x_it.o(.text)
    HardFault_Handler                        0x08000533   Thumb Code     4  stm32f10x_it.o(.text)
    MemManage_Handler                        0x08000537   Thumb Code     4  stm32f10x_it.o(.text)
    BusFault_Handler                         0x0800053b   Thumb Code     4  stm32f10x_it.o(.text)
    UsageFault_Handler                       0x0800053f   Thumb Code     4  stm32f10x_it.o(.text)
    SVC_Handler                              0x08000543   Thumb Code     2  stm32f10x_it.o(.text)
    DebugMon_Handler                         0x08000545   Thumb Code     2  stm32f10x_it.o(.text)
    PendSV_Handler                           0x08000547   Thumb Code     2  stm32f10x_it.o(.text)
    SysTick_Handler                          0x08000549   Thumb Code     2  stm32f10x_it.o(.text)
    RCC_Configuration                        0x0800054d   Thumb Code   110  system_stm32f10x.o(.text)
    SystemInit                               0x08000699   Thumb Code    78  system_stm32f10x.o(.text)
    SystemCoreClockUpdate                    0x080006e7   Thumb Code   142  system_stm32f10x.o(.text)
    NVIC_PriorityGroupConfig                 0x08000799   Thumb Code    10  misc.o(.text)
    NVIC_Init                                0x080007a3   Thumb Code   100  misc.o(.text)
    NVIC_SetVectorTable                      0x08000807   Thumb Code    14  misc.o(.text)
    NVIC_SystemLPConfig                      0x08000815   Thumb Code    34  misc.o(.text)
    SysTick_CLKSourceConfig                  0x08000837   Thumb Code    40  misc.o(.text)
    FLASH_SetLatency                         0x08000875   Thumb Code    18  stm32f10x_flash.o(.text)
    FLASH_HalfCycleAccessCmd                 0x08000887   Thumb Code    22  stm32f10x_flash.o(.text)
    FLASH_PrefetchBufferCmd                  0x0800089d   Thumb Code    22  stm32f10x_flash.o(.text)
    FLASH_Unlock                             0x080008b3   Thumb Code    12  stm32f10x_flash.o(.text)
    FLASH_UnlockBank1                        0x080008bf   Thumb Code    12  stm32f10x_flash.o(.text)
    FLASH_Lock                               0x080008cb   Thumb Code    14  stm32f10x_flash.o(.text)
    FLASH_LockBank1                          0x080008d9   Thumb Code    14  stm32f10x_flash.o(.text)
    FLASH_GetBank1Status                     0x080008e7   Thumb Code    48  stm32f10x_flash.o(.text)
    FLASH_WaitForLastOperation               0x08000917   Thumb Code    38  stm32f10x_flash.o(.text)
    FLASH_ErasePage                          0x0800093d   Thumb Code    72  stm32f10x_flash.o(.text)
    FLASH_EraseAllPages                      0x08000985   Thumb Code    68  stm32f10x_flash.o(.text)
    FLASH_WaitForLastBank1Operation          0x080009c9   Thumb Code    38  stm32f10x_flash.o(.text)
    FLASH_EraseAllBank1Pages                 0x080009ef   Thumb Code    68  stm32f10x_flash.o(.text)
    FLASH_GetReadOutProtectionStatus         0x08000a33   Thumb Code    20  stm32f10x_flash.o(.text)
    FLASH_EraseOptionBytes                   0x08000a47   Thumb Code   150  stm32f10x_flash.o(.text)
    FLASH_ProgramWord                        0x08000add   Thumb Code   102  stm32f10x_flash.o(.text)
    FLASH_ProgramHalfWord                    0x08000b43   Thumb Code    60  stm32f10x_flash.o(.text)
    FLASH_ProgramOptionByteData              0x08000b7f   Thumb Code    72  stm32f10x_flash.o(.text)
    FLASH_EnableWriteProtection              0x08000bc7   Thumb Code   200  stm32f10x_flash.o(.text)
    FLASH_ReadOutProtection                  0x08000c8f   Thumb Code   156  stm32f10x_flash.o(.text)
    FLASH_UserOptionByteConfig               0x08000d2b   Thumb Code    88  stm32f10x_flash.o(.text)
    FLASH_GetUserOptionByte                  0x08000d83   Thumb Code     8  stm32f10x_flash.o(.text)
    FLASH_GetWriteProtectionOptionByte       0x08000d8b   Thumb Code     6  stm32f10x_flash.o(.text)
    FLASH_GetPrefetchBufferStatus            0x08000d91   Thumb Code    20  stm32f10x_flash.o(.text)
    FLASH_ITConfig                           0x08000da5   Thumb Code    26  stm32f10x_flash.o(.text)
    FLASH_GetFlagStatus                      0x08000dbf   Thumb Code    42  stm32f10x_flash.o(.text)
    FLASH_ClearFlag                          0x08000de9   Thumb Code     6  stm32f10x_flash.o(.text)
    FLASH_GetStatus                          0x08000def   Thumb Code    48  stm32f10x_flash.o(.text)
    GPIO_DeInit                              0x08000e31   Thumb Code   172  stm32f10x_gpio.o(.text)
    GPIO_AFIODeInit                          0x08000edd   Thumb Code    20  stm32f10x_gpio.o(.text)
    GPIO_Init                                0x08000ef1   Thumb Code   278  stm32f10x_gpio.o(.text)
    GPIO_StructInit                          0x08001007   Thumb Code    16  stm32f10x_gpio.o(.text)
    GPIO_ReadInputDataBit                    0x08001017   Thumb Code    18  stm32f10x_gpio.o(.text)
    GPIO_ReadInputData                       0x08001029   Thumb Code     8  stm32f10x_gpio.o(.text)
    GPIO_ReadOutputDataBit                   0x08001031   Thumb Code    18  stm32f10x_gpio.o(.text)
    GPIO_ReadOutputData                      0x08001043   Thumb Code     8  stm32f10x_gpio.o(.text)
    GPIO_SetBits                             0x0800104b   Thumb Code     4  stm32f10x_gpio.o(.text)
    GPIO_ResetBits                           0x0800104f   Thumb Code     4  stm32f10x_gpio.o(.text)
    GPIO_WriteBit                            0x08001053   Thumb Code    10  stm32f10x_gpio.o(.text)
    GPIO_Write                               0x0800105d   Thumb Code     4  stm32f10x_gpio.o(.text)
    GPIO_PinLockConfig                       0x08001061   Thumb Code    18  stm32f10x_gpio.o(.text)
    GPIO_EventOutputConfig                   0x08001073   Thumb Code    26  stm32f10x_gpio.o(.text)
    GPIO_EventOutputCmd                      0x0800108d   Thumb Code     6  stm32f10x_gpio.o(.text)
    GPIO_PinRemapConfig                      0x08001093   Thumb Code   138  stm32f10x_gpio.o(.text)
    GPIO_EXTILineConfig                      0x0800111d   Thumb Code    66  stm32f10x_gpio.o(.text)
    GPIO_ETH_MediaInterfaceConfig            0x0800115f   Thumb Code     8  stm32f10x_gpio.o(.text)
    RCC_DeInit                               0x0800118d   Thumb Code    64  stm32f10x_rcc.o(.text)
    RCC_HSEConfig                            0x080011cd   Thumb Code    70  stm32f10x_rcc.o(.text)
    RCC_GetFlagStatus                        0x08001213   Thumb Code    56  stm32f10x_rcc.o(.text)
    RCC_WaitForHSEStartUp                    0x0800124b   Thumb Code    56  stm32f10x_rcc.o(.text)
    RCC_AdjustHSICalibrationValue            0x08001283   Thumb Code    20  stm32f10x_rcc.o(.text)
    RCC_HSICmd                               0x08001297   Thumb Code     6  stm32f10x_rcc.o(.text)
    RCC_PLLConfig                            0x0800129d   Thumb Code    24  stm32f10x_rcc.o(.text)
    RCC_PLLCmd                               0x080012b5   Thumb Code     6  stm32f10x_rcc.o(.text)
    RCC_SYSCLKConfig                         0x080012bb   Thumb Code    18  stm32f10x_rcc.o(.text)
    RCC_GetSYSCLKSource                      0x080012cd   Thumb Code    10  stm32f10x_rcc.o(.text)
    RCC_HCLKConfig                           0x080012d7   Thumb Code    18  stm32f10x_rcc.o(.text)
    RCC_PCLK1Config                          0x080012e9   Thumb Code    18  stm32f10x_rcc.o(.text)
    RCC_PCLK2Config                          0x080012fb   Thumb Code    20  stm32f10x_rcc.o(.text)
    RCC_ITConfig                             0x0800130f   Thumb Code    26  stm32f10x_rcc.o(.text)
    RCC_USBCLKConfig                         0x08001329   Thumb Code     8  stm32f10x_rcc.o(.text)
    RCC_ADCCLKConfig                         0x08001331   Thumb Code    18  stm32f10x_rcc.o(.text)
    RCC_LSEConfig                            0x08001343   Thumb Code    50  stm32f10x_rcc.o(.text)
    RCC_LSICmd                               0x08001375   Thumb Code     6  stm32f10x_rcc.o(.text)
    RCC_RTCCLKConfig                         0x0800137b   Thumb Code    12  stm32f10x_rcc.o(.text)
    RCC_RTCCLKCmd                            0x08001387   Thumb Code     8  stm32f10x_rcc.o(.text)
    RCC_GetClocksFreq                        0x0800138f   Thumb Code   192  stm32f10x_rcc.o(.text)
    RCC_AHBPeriphClockCmd                    0x0800144f   Thumb Code    26  stm32f10x_rcc.o(.text)
    RCC_APB2PeriphClockCmd                   0x08001469   Thumb Code    26  stm32f10x_rcc.o(.text)
    RCC_APB1PeriphClockCmd                   0x08001483   Thumb Code    26  stm32f10x_rcc.o(.text)
    RCC_APB2PeriphResetCmd                   0x0800149d   Thumb Code    26  stm32f10x_rcc.o(.text)
    RCC_APB1PeriphResetCmd                   0x080014b7   Thumb Code    26  stm32f10x_rcc.o(.text)
    RCC_BackupResetCmd                       0x080014d1   Thumb Code     8  stm32f10x_rcc.o(.text)
    RCC_ClockSecuritySystemCmd               0x080014d9   Thumb Code     6  stm32f10x_rcc.o(.text)
    RCC_MCOConfig                            0x080014df   Thumb Code     6  stm32f10x_rcc.o(.text)
    RCC_ClearFlag                            0x080014e5   Thumb Code    14  stm32f10x_rcc.o(.text)
    RCC_GetITStatus                          0x080014f3   Thumb Code    20  stm32f10x_rcc.o(.text)
    RCC_ClearITPendingBit                    0x08001507   Thumb Code     6  stm32f10x_rcc.o(.text)
    TIM_DeInit                               0x08001531   Thumb Code   424  stm32f10x_tim.o(.text)
    TIM_TimeBaseInit                         0x080016d9   Thumb Code   122  stm32f10x_tim.o(.text)
    TIM_OC1Init                              0x08001753   Thumb Code   132  stm32f10x_tim.o(.text)
    TIM_OC2Init                              0x080017d7   Thumb Code   154  stm32f10x_tim.o(.text)
    TIM_OC3Init                              0x08001871   Thumb Code   150  stm32f10x_tim.o(.text)
    TIM_OC4Init                              0x08001907   Thumb Code   182  stm32f10x_tim.o(.text)
    TIM_SetIC4Prescaler                      0x080019bd   Thumb Code    26  stm32f10x_tim.o(.text)
    TIM_SetIC3Prescaler                      0x08001a59   Thumb Code    18  stm32f10x_tim.o(.text)
    TIM_SetIC2Prescaler                      0x08001ae5   Thumb Code    26  stm32f10x_tim.o(.text)
    TIM_SetIC1Prescaler                      0x08001b81   Thumb Code    18  stm32f10x_tim.o(.text)
    TIM_ICInit                               0x08001bff   Thumb Code   150  stm32f10x_tim.o(.text)
    TIM_PWMIConfig                           0x08001c95   Thumb Code   124  stm32f10x_tim.o(.text)
    TIM_BDTRConfig                           0x08001d11   Thumb Code    32  stm32f10x_tim.o(.text)
    TIM_TimeBaseStructInit                   0x08001d31   Thumb Code    18  stm32f10x_tim.o(.text)
    TIM_OCStructInit                         0x08001d43   Thumb Code    20  stm32f10x_tim.o(.text)
    TIM_ICStructInit                         0x08001d57   Thumb Code    18  stm32f10x_tim.o(.text)
    TIM_BDTRStructInit                       0x08001d69   Thumb Code    40  stm32f10x_tim.o(.text)
    TIM_Cmd                                  0x08001d91   Thumb Code    24  stm32f10x_tim.o(.text)
    TIM_CtrlPWMOutputs                       0x08001da9   Thumb Code    30  stm32f10x_tim.o(.text)
    TIM_ITConfig                             0x08001dc7   Thumb Code    18  stm32f10x_tim.o(.text)
    TIM_GenerateEvent                        0x08001dd9   Thumb Code     4  stm32f10x_tim.o(.text)
    TIM_DMAConfig                            0x08001ddd   Thumb Code    10  stm32f10x_tim.o(.text)
    TIM_DMACmd                               0x08001de7   Thumb Code    18  stm32f10x_tim.o(.text)
    TIM_InternalClockConfig                  0x08001df9   Thumb Code    12  stm32f10x_tim.o(.text)
    TIM_SelectInputTrigger                   0x08001e05   Thumb Code    18  stm32f10x_tim.o(.text)
    TIM_ITRxExternalClockConfig              0x08001e17   Thumb Code    24  stm32f10x_tim.o(.text)
    TIM_TIxExternalClockConfig               0x08001e2f   Thumb Code    62  stm32f10x_tim.o(.text)
    TIM_ETRConfig                            0x08001e6d   Thumb Code    28  stm32f10x_tim.o(.text)
    TIM_ETRClockMode1Config                  0x08001e89   Thumb Code    54  stm32f10x_tim.o(.text)
    TIM_ETRClockMode2Config                  0x08001ebf   Thumb Code    32  stm32f10x_tim.o(.text)
    TIM_PrescalerConfig                      0x08001edf   Thumb Code     6  stm32f10x_tim.o(.text)
    TIM_CounterModeConfig                    0x08001ee5   Thumb Code    18  stm32f10x_tim.o(.text)
    TIM_EncoderInterfaceConfig               0x08001ef7   Thumb Code    66  stm32f10x_tim.o(.text)
    TIM_ForcedOC1Config                      0x08001f39   Thumb Code    18  stm32f10x_tim.o(.text)
    TIM_ForcedOC2Config                      0x08001f4b   Thumb Code    26  stm32f10x_tim.o(.text)
    TIM_ForcedOC3Config                      0x08001f65   Thumb Code    18  stm32f10x_tim.o(.text)
    TIM_ForcedOC4Config                      0x08001f77   Thumb Code    26  stm32f10x_tim.o(.text)
    TIM_ARRPreloadConfig                     0x08001f91   Thumb Code    24  stm32f10x_tim.o(.text)
    TIM_SelectCOM                            0x08001fa9   Thumb Code    24  stm32f10x_tim.o(.text)
    TIM_SelectCCDMA                          0x08001fc1   Thumb Code    24  stm32f10x_tim.o(.text)
    TIM_CCPreloadControl                     0x08001fd9   Thumb Code    24  stm32f10x_tim.o(.text)
    TIM_OC1PreloadConfig                     0x08001ff1   Thumb Code    18  stm32f10x_tim.o(.text)
    TIM_OC2PreloadConfig                     0x08002003   Thumb Code    26  stm32f10x_tim.o(.text)
    TIM_OC3PreloadConfig                     0x0800201d   Thumb Code    18  stm32f10x_tim.o(.text)
    TIM_OC4PreloadConfig                     0x0800202f   Thumb Code    26  stm32f10x_tim.o(.text)
    TIM_OC1FastConfig                        0x08002049   Thumb Code    18  stm32f10x_tim.o(.text)
    TIM_OC2FastConfig                        0x0800205b   Thumb Code    26  stm32f10x_tim.o(.text)
    TIM_OC3FastConfig                        0x08002075   Thumb Code    18  stm32f10x_tim.o(.text)
    TIM_OC4FastConfig                        0x08002087   Thumb Code    26  stm32f10x_tim.o(.text)
    TIM_ClearOC1Ref                          0x080020a1   Thumb Code    18  stm32f10x_tim.o(.text)
    TIM_ClearOC2Ref                          0x080020b3   Thumb Code    24  stm32f10x_tim.o(.text)
    TIM_ClearOC3Ref                          0x080020cb   Thumb Code    18  stm32f10x_tim.o(.text)
    TIM_ClearOC4Ref                          0x080020dd   Thumb Code    24  stm32f10x_tim.o(.text)
    TIM_OC1PolarityConfig                    0x080020f5   Thumb Code    18  stm32f10x_tim.o(.text)
    TIM_OC1NPolarityConfig                   0x08002107   Thumb Code    18  stm32f10x_tim.o(.text)
    TIM_OC2PolarityConfig                    0x08002119   Thumb Code    26  stm32f10x_tim.o(.text)
    TIM_OC2NPolarityConfig                   0x08002133   Thumb Code    26  stm32f10x_tim.o(.text)
    TIM_OC3PolarityConfig                    0x0800214d   Thumb Code    26  stm32f10x_tim.o(.text)
    TIM_OC3NPolarityConfig                   0x08002167   Thumb Code    26  stm32f10x_tim.o(.text)
    TIM_OC4PolarityConfig                    0x08002181   Thumb Code    26  stm32f10x_tim.o(.text)
    TIM_CCxCmd                               0x0800219b   Thumb Code    30  stm32f10x_tim.o(.text)
    TIM_CCxNCmd                              0x080021b9   Thumb Code    30  stm32f10x_tim.o(.text)
    TIM_SelectOCxM                           0x080021d7   Thumb Code    82  stm32f10x_tim.o(.text)
    TIM_UpdateDisableConfig                  0x08002229   Thumb Code    24  stm32f10x_tim.o(.text)
    TIM_UpdateRequestConfig                  0x08002241   Thumb Code    24  stm32f10x_tim.o(.text)
    TIM_SelectHallSensor                     0x08002259   Thumb Code    24  stm32f10x_tim.o(.text)
    TIM_SelectOnePulseMode                   0x08002271   Thumb Code    18  stm32f10x_tim.o(.text)
    TIM_SelectOutputTrigger                  0x08002283   Thumb Code    18  stm32f10x_tim.o(.text)
    TIM_SelectSlaveMode                      0x08002295   Thumb Code    18  stm32f10x_tim.o(.text)
    TIM_SelectMasterSlaveMode                0x080022a7   Thumb Code    18  stm32f10x_tim.o(.text)
    TIM_SetCounter                           0x080022b9   Thumb Code     4  stm32f10x_tim.o(.text)
    TIM_SetAutoreload                        0x080022bd   Thumb Code     4  stm32f10x_tim.o(.text)
    TIM_SetCompare1                          0x080022c1   Thumb Code     4  stm32f10x_tim.o(.text)
    TIM_SetCompare2                          0x080022c5   Thumb Code     4  stm32f10x_tim.o(.text)
    TIM_SetCompare3                          0x080022c9   Thumb Code     4  stm32f10x_tim.o(.text)
    TIM_SetCompare4                          0x080022cd   Thumb Code     6  stm32f10x_tim.o(.text)
    TIM_SetClockDivision                     0x080022d3   Thumb Code    18  stm32f10x_tim.o(.text)
    TIM_GetCapture1                          0x080022e5   Thumb Code     6  stm32f10x_tim.o(.text)
    TIM_GetCapture2                          0x080022eb   Thumb Code     6  stm32f10x_tim.o(.text)
    TIM_GetCapture3                          0x080022f1   Thumb Code     6  stm32f10x_tim.o(.text)
    TIM_GetCapture4                          0x080022f7   Thumb Code     8  stm32f10x_tim.o(.text)
    TIM_GetCounter                           0x080022ff   Thumb Code     6  stm32f10x_tim.o(.text)
    TIM_GetPrescaler                         0x08002305   Thumb Code     6  stm32f10x_tim.o(.text)
    TIM_GetFlagStatus                        0x0800230b   Thumb Code    18  stm32f10x_tim.o(.text)
    TIM_ClearFlag                            0x0800231d   Thumb Code     6  stm32f10x_tim.o(.text)
    TIM_GetITStatus                          0x08002323   Thumb Code    34  stm32f10x_tim.o(.text)
    TIM_ClearITPendingBit                    0x08002345   Thumb Code     6  stm32f10x_tim.o(.text)
    USART_DeInit                             0x0800234d   Thumb Code   134  stm32f10x_usart.o(.text)
    USART_Init                               0x080023d3   Thumb Code   210  stm32f10x_usart.o(.text)
    USART_StructInit                         0x080024a5   Thumb Code    24  stm32f10x_usart.o(.text)
    USART_ClockInit                          0x080024bd   Thumb Code    34  stm32f10x_usart.o(.text)
    USART_ClockStructInit                    0x080024df   Thumb Code    12  stm32f10x_usart.o(.text)
    USART_Cmd                                0x080024eb   Thumb Code    24  stm32f10x_usart.o(.text)
    USART_ITConfig                           0x08002503   Thumb Code    74  stm32f10x_usart.o(.text)
    USART_DMACmd                             0x0800254d   Thumb Code    18  stm32f10x_usart.o(.text)
    USART_SetAddress                         0x0800255f   Thumb Code    18  stm32f10x_usart.o(.text)
    USART_WakeUpConfig                       0x08002571   Thumb Code    18  stm32f10x_usart.o(.text)
    USART_ReceiverWakeUpCmd                  0x08002583   Thumb Code    24  stm32f10x_usart.o(.text)
    USART_LINBreakDetectLengthConfig         0x0800259b   Thumb Code    18  stm32f10x_usart.o(.text)
    USART_LINCmd                             0x080025ad   Thumb Code    24  stm32f10x_usart.o(.text)
    USART_SendData                           0x080025c5   Thumb Code     8  stm32f10x_usart.o(.text)
    USART_ReceiveData                        0x080025cd   Thumb Code    10  stm32f10x_usart.o(.text)
    USART_SendBreak                          0x080025d7   Thumb Code    10  stm32f10x_usart.o(.text)
    USART_SetGuardTime                       0x080025e1   Thumb Code    16  stm32f10x_usart.o(.text)
    USART_SetPrescaler                       0x080025f1   Thumb Code    16  stm32f10x_usart.o(.text)
    USART_SmartCardCmd                       0x08002601   Thumb Code    24  stm32f10x_usart.o(.text)
    USART_SmartCardNACKCmd                   0x08002619   Thumb Code    24  stm32f10x_usart.o(.text)
    USART_HalfDuplexCmd                      0x08002631   Thumb Code    24  stm32f10x_usart.o(.text)
    USART_OverSampling8Cmd                   0x08002649   Thumb Code    22  stm32f10x_usart.o(.text)
    USART_OneBitMethodCmd                    0x0800265f   Thumb Code    24  stm32f10x_usart.o(.text)
    USART_IrDAConfig                         0x08002677   Thumb Code    18  stm32f10x_usart.o(.text)
    USART_IrDACmd                            0x08002689   Thumb Code    24  stm32f10x_usart.o(.text)
    USART_GetFlagStatus                      0x080026a1   Thumb Code    26  stm32f10x_usart.o(.text)
    USART_ClearFlag                          0x080026bb   Thumb Code    18  stm32f10x_usart.o(.text)
    USART_GetITStatus                        0x080026cd   Thumb Code    84  stm32f10x_usart.o(.text)
    USART_ClearITPendingBit                  0x08002721   Thumb Code    52  stm32f10x_usart.o(.text)
    Reset_Handler                            0x08002755   Thumb Code     8  startup_stm32f10x_hd.o(.text)
    ADC1_2_IRQHandler                        0x0800276f   Thumb Code     0  startup_stm32f10x_hd.o(.text)
    ADC3_IRQHandler                          0x0800276f   Thumb Code     0  startup_stm32f10x_hd.o(.text)
    CAN1_RX1_IRQHandler                      0x0800276f   Thumb Code     0  startup_stm32f10x_hd.o(.text)
    CAN1_SCE_IRQHandler                      0x0800276f   Thumb Code     0  startup_stm32f10x_hd.o(.text)
    DMA1_Channel1_IRQHandler                 0x0800276f   Thumb Code     0  startup_stm32f10x_hd.o(.text)
    DMA1_Channel2_IRQHandler                 0x0800276f   Thumb Code     0  startup_stm32f10x_hd.o(.text)
    DMA1_Channel3_IRQHandler                 0x0800276f   Thumb Code     0  startup_stm32f10x_hd.o(.text)
    DMA1_Channel4_IRQHandler                 0x0800276f   Thumb Code     0  startup_stm32f10x_hd.o(.text)
    DMA1_Channel5_IRQHandler                 0x0800276f   Thumb Code     0  startup_stm32f10x_hd.o(.text)
    DMA1_Channel6_IRQHandler                 0x0800276f   Thumb Code     0  startup_stm32f10x_hd.o(.text)
    DMA1_Channel7_IRQHandler                 0x0800276f   Thumb Code     0  startup_stm32f10x_hd.o(.text)
    DMA2_Channel1_IRQHandler                 0x0800276f   Thumb Code     0  startup_stm32f10x_hd.o(.text)
    DMA2_Channel2_IRQHandler                 0x0800276f   Thumb Code     0  startup_stm32f10x_hd.o(.text)
    DMA2_Channel3_IRQHandler                 0x0800276f   Thumb Code     0  startup_stm32f10x_hd.o(.text)
    DMA2_Channel4_5_IRQHandler               0x0800276f   Thumb Code     0  startup_stm32f10x_hd.o(.text)
    EXTI0_IRQHandler                         0x0800276f   Thumb Code     0  startup_stm32f10x_hd.o(.text)
    EXTI15_10_IRQHandler                     0x0800276f   Thumb Code     0  startup_stm32f10x_hd.o(.text)
    EXTI1_IRQHandler                         0x0800276f   Thumb Code     0  startup_stm32f10x_hd.o(.text)
    EXTI2_IRQHandler                         0x0800276f   Thumb Code     0  startup_stm32f10x_hd.o(.text)
    EXTI3_IRQHandler                         0x0800276f   Thumb Code     0  startup_stm32f10x_hd.o(.text)
    EXTI4_IRQHandler                         0x0800276f   Thumb Code     0  startup_stm32f10x_hd.o(.text)
    EXTI9_5_IRQHandler                       0x0800276f   Thumb Code     0  startup_stm32f10x_hd.o(.text)
    FLASH_IRQHandler                         0x0800276f   Thumb Code     0  startup_stm32f10x_hd.o(.text)
    FSMC_IRQHandler                          0x0800276f   Thumb Code     0  startup_stm32f10x_hd.o(.text)
    I2C1_ER_IRQHandler                       0x0800276f   Thumb Code     0  startup_stm32f10x_hd.o(.text)
    I2C1_EV_IRQHandler                       0x0800276f   Thumb Code     0  startup_stm32f10x_hd.o(.text)
    I2C2_ER_IRQHandler                       0x0800276f   Thumb Code     0  startup_stm32f10x_hd.o(.text)
    I2C2_EV_IRQHandler                       0x0800276f   Thumb Code     0  startup_stm32f10x_hd.o(.text)
    PVD_IRQHandler                           0x0800276f   Thumb Code     0  startup_stm32f10x_hd.o(.text)
    RCC_IRQHandler                           0x0800276f   Thumb Code     0  startup_stm32f10x_hd.o(.text)
    RTCAlarm_IRQHandler                      0x0800276f   Thumb Code     0  startup_stm32f10x_hd.o(.text)
    SDIO_IRQHandler                          0x0800276f   Thumb Code     0  startup_stm32f10x_hd.o(.text)
    SPI1_IRQHandler                          0x0800276f   Thumb Code     0  startup_stm32f10x_hd.o(.text)
    SPI2_IRQHandler                          0x0800276f   Thumb Code     0  startup_stm32f10x_hd.o(.text)
    SPI3_IRQHandler                          0x0800276f   Thumb Code     0  startup_stm32f10x_hd.o(.text)
    TAMPER_IRQHandler                        0x0800276f   Thumb Code     0  startup_stm32f10x_hd.o(.text)
    TIM1_BRK_IRQHandler                      0x0800276f   Thumb Code     0  startup_stm32f10x_hd.o(.text)
    TIM1_CC_IRQHandler                       0x0800276f   Thumb Code     0  startup_stm32f10x_hd.o(.text)
    TIM1_TRG_COM_IRQHandler                  0x0800276f   Thumb Code     0  startup_stm32f10x_hd.o(.text)
    TIM1_UP_IRQHandler                       0x0800276f   Thumb Code     0  startup_stm32f10x_hd.o(.text)
    TIM2_IRQHandler                          0x0800276f   Thumb Code     0  startup_stm32f10x_hd.o(.text)
    TIM5_IRQHandler                          0x0800276f   Thumb Code     0  startup_stm32f10x_hd.o(.text)
    TIM6_IRQHandler                          0x0800276f   Thumb Code     0  startup_stm32f10x_hd.o(.text)
    TIM7_IRQHandler                          0x0800276f   Thumb Code     0  startup_stm32f10x_hd.o(.text)
    TIM8_BRK_IRQHandler                      0x0800276f   Thumb Code     0  startup_stm32f10x_hd.o(.text)
    TIM8_CC_IRQHandler                       0x0800276f   Thumb Code     0  startup_stm32f10x_hd.o(.text)
    TIM8_TRG_COM_IRQHandler                  0x0800276f   Thumb Code     0  startup_stm32f10x_hd.o(.text)
    TIM8_UP_IRQHandler                       0x0800276f   Thumb Code     0  startup_stm32f10x_hd.o(.text)
    UART4_IRQHandler                         0x0800276f   Thumb Code     0  startup_stm32f10x_hd.o(.text)
    UART5_IRQHandler                         0x0800276f   Thumb Code     0  startup_stm32f10x_hd.o(.text)
    USBWakeUp_IRQHandler                     0x0800276f   Thumb Code     0  startup_stm32f10x_hd.o(.text)
    USB_HP_CAN1_TX_IRQHandler                0x0800276f   Thumb Code     0  startup_stm32f10x_hd.o(.text)
    USB_LP_CAN1_RX0_IRQHandler               0x0800276f   Thumb Code     0  startup_stm32f10x_hd.o(.text)
    WWDG_IRQHandler                          0x0800276f   Thumb Code     0  startup_stm32f10x_hd.o(.text)
    __user_initial_stackheap                 0x08002771   Thumb Code     0  startup_stm32f10x_hd.o(.text)
    LED_Init                                 0x08002795   Thumb Code    54  led.o(.text)
    LED_Run                                  0x080027cb   Thumb Code    52  led.o(.text)
    CSTX_4GCTR_Init                          0x080027ff   Thumb Code    54  led.o(.text)
    CSTX_ZD_Init                             0x08002835   Thumb Code    46  led.o(.text)
    IWDG_Init                                0x08002871   Thumb Code     2  wdg.o(.text)
    IWDG_Feed                                0x08002873   Thumb Code     2  wdg.o(.text)
    TIM3_Int_Init                            0x08002875   Thumb Code    90  timer.o(.text)
    TIM4_Int_Init                            0x080028cf   Thumb Code    88  timer.o(.text)
    TIM3_IRQHandler                          0x08002927   Thumb Code    28  timer.o(.text)
    Clear_Buffer                             0x08002951   Thumb Code    34  4g.o(.text)
    Clear1_Buffer                            0x08002973   Thumb Code    34  4g.o(.text)
    CSTX_4G_Init                             0x08002995   Thumb Code   272  4g.o(.text)
    CSTX_4G_ConTCP                           0x08002aa5   Thumb Code    48  4g.o(.text)
    CSTX_4G_CreateTCPSokcet                  0x08002ad5   Thumb Code   120  4g.o(.text)
    CSTX_4G_Senddata                         0x08002b4d   Thumb Code   196  4g.o(.text)
    CSTX_4G_RECTCPData                       0x08002c11   Thumb Code    26  4g.o(.text)
    CRC16_Checkout                           0x08002d49   Thumb Code    52  crc.o(.text)
    MyConvert                                0x08002d7d   Thumb Code    12  crc.o(.text)
    GPIO_ModeX                               0x08002d89   Thumb Code    44  unit.o(.text)
    rtc_write_bkr                            0x08002db5   Thumb Code    26  rtc.o(.text)
    rtc_read_bkr                             0x08002dcf   Thumb Code    14  rtc.o(.text)
    rtc_get_week                             0x08002ddd   Thumb Code    80  rtc.o(.text)
    rtc_get_time                             0x08002e5f   Thumb Code   254  rtc.o(.text)
    rtc_set_time                             0x08003003   Thumb Code   140  rtc.o(.text)
    rtc_init                                 0x0800308f   Thumb Code   542  rtc.o(.text)
    RTC_IRQHandler                           0x080032ad   Thumb Code   110  rtc.o(.text)
    rtc_set_alarm                            0x0800331b   Thumb Code   126  rtc.o(.text)
    delay_init                               0x080033c9   Thumb Code    50  delay.o(.text)
    delay_us                                 0x080033fb   Thumb Code    72  delay.o(.text)
    delay_ms                                 0x08003443   Thumb Code    72  delay.o(.text)
    NVIC_Configuration                       0x0800349d   Thumb Code    12  sys.o(.text)
    sys_nvic_set_vector_table                0x080034a9   Thumb Code    12  sys.o(.text)
    sys_nvic_init                            0x080034d9   Thumb Code   116  sys.o(.text)
    sys_nvic_ex_config                       0x0800354d   Thumb Code   272  sys.o(.text)
    sys_gpio_remap_set                       0x0800365d   Thumb Code    72  sys.o(.text)
    sys_gpio_set                             0x080036a5   Thumb Code   234  sys.o(.text)
    sys_gpio_pin_set                         0x0800378f   Thumb Code    24  sys.o(.text)
    sys_gpio_pin_get                         0x080037a7   Thumb Code    16  sys.o(.text)
    sys_wfi_set                              0x080037b7   Thumb Code     4  sys.o(.text)
    sys_intx_disable                         0x080037bb   Thumb Code     4  sys.o(.text)
    sys_intx_enable                          0x080037bf   Thumb Code     4  sys.o(.text)
    sys_msr_msp                              0x080037c3   Thumb Code    12  sys.o(.text)
    sys_standby                              0x080037cf   Thumb Code    68  sys.o(.text)
    sys_soft_reset                           0x08003813   Thumb Code    12  sys.o(.text)
    sys_clock_set                            0x0800381f   Thumb Code   202  sys.o(.text)
    sys_stm32_clock_init                     0x080038e9   Thumb Code   100  sys.o(.text)
    _sys_exit                                0x08003959   Thumb Code     6  usart.o(.text)
    fputc                                    0x0800395f   Thumb Code    24  usart.o(.text)
    UART1_send_byte                          0x08003977   Thumb Code    28  usart.o(.text)
    UART2_send_byte                          0x08003993   Thumb Code    28  usart.o(.text)
    UART3_send_byte                          0x080039af   Thumb Code    28  usart.o(.text)
    uart_init                                0x080039cb   Thumb Code   170  usart.o(.text)
    uart2_init                               0x08003a75   Thumb Code   160  usart.o(.text)
    uart3_init                               0x08003b15   Thumb Code   164  usart.o(.text)
    Uart1_SendStr                            0x08003bb9   Thumb Code    34  usart.o(.text)
    Uart2_SendStr                            0x08003bdb   Thumb Code    42  usart.o(.text)
    Uart3_SendStr                            0x08003c05   Thumb Code    34  usart.o(.text)
    UART1_receive_process_event              0x08003c27   Thumb Code    44  usart.o(.text)
    USART1_IRQHandler                        0x08003c53   Thumb Code    66  usart.o(.text)
    ec200x_receive_process_event             0x08003c95   Thumb Code    44  usart.o(.text)
    USART2_IRQHandler                        0x08003cc1   Thumb Code    76  usart.o(.text)
    USART3_IRQHandler                        0x08003d0d   Thumb Code    46  usart.o(.text)
    usmart_sys_cmd_exe                       0x08003d5d   Thumb Code  1570  usmart.o(.text)
    usmart_init                              0x0800437f   Thumb Code    18  usmart.o(.text)
    usmart_cmd_rec                           0x08004391   Thumb Code   170  usmart.o(.text)
    usmart_exe                               0x0800443b   Thumb Code   882  usmart.o(.text)
    usmart_scan                              0x080047ad   Thumb Code   106  usmart.o(.text)
    read_addr                                0x08004817   Thumb Code     6  usmart.o(.text)
    write_addr                               0x0800481d   Thumb Code     4  usmart.o(.text)
    usmart_get_input_string                  0x08004891   Thumb Code     6  usmart_port.o(.text)
    usmart_timx_reset_time                   0x08004897   Thumb Code    38  usmart_port.o(.text)
    usmart_timx_get_time                     0x080048bd   Thumb Code    56  usmart_port.o(.text)
    usmart_timx_init                         0x080048f5   Thumb Code    96  usmart_port.o(.text)
    TIM4_IRQHandler                          0x08004955   Thumb Code    50  usmart_port.o(.text)
    usmart_strcmp                            0x08004999   Thumb Code    34  usmart_str.o(.text)
    usmart_strcopy                           0x080049bb   Thumb Code    22  usmart_str.o(.text)
    usmart_strlen                            0x080049d1   Thumb Code    24  usmart_str.o(.text)
    usmart_pow                               0x080049e9   Thumb Code    22  usmart_str.o(.text)
    usmart_str2num                           0x080049ff   Thumb Code   262  usmart_str.o(.text)
    usmart_get_cmdname                       0x08004b05   Thumb Code    54  usmart_str.o(.text)
    usmart_search_nextc                      0x08004b3b   Thumb Code    22  usmart_str.o(.text)
    usmart_get_fname                         0x08004b51   Thumb Code   440  usmart_str.o(.text)
    usmart_get_aparm                         0x08004d09   Thumb Code   212  usmart_str.o(.text)
    usmart_get_parmpos                       0x08004ddd   Thumb Code    26  usmart_str.o(.text)
    usmart_get_fparam                        0x08004df7   Thumb Code   262  usmart_str.o(.text)
    __use_no_semihosting                     0x08004f09   Thumb Code     2  use_no_semi_2.o(.text)
    __2printf                                0x08004f0d   Thumb Code    20  noretval__2printf.o(.text)
    __2sprintf                               0x08004f25   Thumb Code    34  noretval__2sprintf.o(.text)
    _printf_pre_padding                      0x08004f4d   Thumb Code    44  _printf_pad.o(.text)
    _printf_post_padding                     0x08004f79   Thumb Code    34  _printf_pad.o(.text)
    _printf_str                              0x08004f9b   Thumb Code    82  _printf_str.o(.text)
    _printf_int_dec                          0x08004fed   Thumb Code   104  _printf_dec.o(.text)
    _printf_int_hex                          0x08005065   Thumb Code    84  _printf_hex_int.o(.text)
    _printf_longlong_hex                     0x08005065   Thumb Code     0  _printf_hex_int.o(.text)
    __printf                                 0x080050bd   Thumb Code   388  __printf_flags_ss_wp.o(.text)
    strstr                                   0x08005245   Thumb Code    36  strstr.o(.text)
    strlen                                   0x08005269   Thumb Code    62  strlen.o(.text)
    __aeabi_memclr                           0x080052a7   Thumb Code     0  rt_memclr.o(.text)
    __rt_memclr                              0x080052a7   Thumb Code    68  rt_memclr.o(.text)
    _memset                                  0x080052ab   Thumb Code     0  rt_memclr.o(.text)
    __aeabi_memclr4                          0x080052eb   Thumb Code     0  rt_memclr_w.o(.text)
    __aeabi_memclr8                          0x080052eb   Thumb Code     0  rt_memclr_w.o(.text)
    __rt_memclr_w                            0x080052eb   Thumb Code    78  rt_memclr_w.o(.text)
    _memset_w                                0x080052ef   Thumb Code     0  rt_memclr_w.o(.text)
    __use_two_region_memory                  0x08005339   Thumb Code     2  heapauxi.o(.text)
    __rt_heap_escrow$2region                 0x0800533b   Thumb Code     2  heapauxi.o(.text)
    __rt_heap_expand$2region                 0x0800533d   Thumb Code     2  heapauxi.o(.text)
    __I$use$semihosting                      0x0800533f   Thumb Code     0  use_no_semi.o(.text)
    __use_no_semihosting_swi                 0x0800533f   Thumb Code     2  use_no_semi.o(.text)
    _printf_int_common                       0x08005341   Thumb Code   178  _printf_intcommon.o(.text)
    __lib_sel_fp_printf                      0x080053f3   Thumb Code     2  _printf_fp_dec.o(.text)
    _printf_fp_dec_real                      0x080055a5   Thumb Code   620  _printf_fp_dec.o(.text)
    _printf_char_common                      0x0800581b   Thumb Code    32  _printf_char_common.o(.text)
    _sputc                                   0x08005841   Thumb Code    10  _sputc.o(.text)
    _printf_cs_common                        0x0800584b   Thumb Code    20  _printf_char.o(.text)
    _printf_char                             0x0800585f   Thumb Code    16  _printf_char.o(.text)
    _printf_string                           0x0800586f   Thumb Code     8  _printf_char.o(.text)
    _printf_char_file                        0x08005879   Thumb Code    32  _printf_char_file.o(.text)
    __rt_locale                              0x0800589d   Thumb Code     8  rt_locale_intlibspace.o(.text)
    _ll_udiv10                               0x080058a5   Thumb Code   138  lludiv10.o(.text)
    _printf_fp_infnan                        0x08005931   Thumb Code   112  _printf_fp_infnan.o(.text)
    _btod_etento                             0x080059b1   Thumb Code   224  bigflt0.o(.text)
    ferror                                   0x08005a95   Thumb Code     8  ferror.o(.text)
    __user_libspace                          0x08005a9d   Thumb Code     8  libspace.o(.text)
    __user_perproc_libspace                  0x08005a9d   Thumb Code     0  libspace.o(.text)
    __user_perthread_libspace                0x08005a9d   Thumb Code     0  libspace.o(.text)
    __user_setup_stackheap                   0x08005aa5   Thumb Code    74  sys_stackheap_outer.o(.text)
    exit                                     0x08005aef   Thumb Code    18  exit.o(.text)
    strcmp                                   0x08005b01   Thumb Code   128  strcmpv7m.o(.text)
    _btod_d2e                                0x08005b81   Thumb Code    62  btod.o(CL$$btod_d2e)
    _d2e_denorm_low                          0x08005bbf   Thumb Code    70  btod.o(CL$$btod_d2e_denorm_low)
    _d2e_norm_op1                            0x08005c05   Thumb Code    96  btod.o(CL$$btod_d2e_norm_op1)
    __btod_div_common                        0x08005c65   Thumb Code   696  btod.o(CL$$btod_div_common)
    _e2e                                     0x08005f9d   Thumb Code   220  btod.o(CL$$btod_e2e)
    _btod_ediv                               0x08006079   Thumb Code    42  btod.o(CL$$btod_ediv)
    _btod_emul                               0x080060a3   Thumb Code    42  btod.o(CL$$btod_emul)
    __btod_mult_common                       0x080060cd   Thumb Code   580  btod.o(CL$$btod_mult_common)
    __ARM_fpclassify                         0x08006311   Thumb Code    40  fpclassify.o(i.__ARM_fpclassify)
    _is_digit                                0x08006339   Thumb Code    14  __printf_wp.o(i._is_digit)
    _get_lc_numeric                          0x08006349   Thumb Code    44  lc_numeric_c.o(locale$$code)
    __aeabi_ddiv                             0x08006375   Thumb Code     0  ddiv.o(x$fpl$ddiv)
    _ddiv                                    0x08006375   Thumb Code   552  ddiv.o(x$fpl$ddiv)
    __aeabi_i2d                              0x08006625   Thumb Code     0  dflt_clz.o(x$fpl$dflt)
    _dflt                                    0x08006625   Thumb Code    46  dflt_clz.o(x$fpl$dflt)
    __fpl_dnaninf                            0x08006653   Thumb Code   156  dnaninf.o(x$fpl$dnaninf)
    __fpl_dretinf                            0x080066ef   Thumb Code    12  dretinf.o(x$fpl$dretinf)
    _printf_fp_dec                           0x080066fb   Thumb Code     4  printf1.o(x$fpl$printf1)
    __I$use$fp                               0x080066fe   Number         0  usenofp.o(x$fpl$usenofp)
    Region$$Table$$Base                      0x08006a4c   Number         0  anon$$obj.o(Region$$Table)
    Region$$Table$$Limit                     0x08006a6c   Number         0  anon$$obj.o(Region$$Table)
    SystemCoreClock                          0x20000000   Data           4  system_stm32f10x.o(.data)
    AHBPrescTable                            0x20000004   Data          16  system_stm32f10x.o(.data)
    strx                                     0x20000028   Data           4  4g.o(.data)
    extstrx                                  0x2000002c   Data           4  4g.o(.data)
    errcount                                 0x20000030   Data           4  4g.o(.data)
    __stdout                                 0x2000003c   Data           4  usart.o(.data)
    sys_cmd_tab                              0x20000040   Data          28  usmart.o(.data)
    usmart_nametab                           0x2000005c   Data          72  usmart_config.o(.data)
    usmart_dev                               0x200000a4   Data         244  usmart_config.o(.data)
    CSTX_4G_Status                           0x20000198   Data         115  4g.o(.bss)
    ATSTR                                    0x2000020b   Data         256  4g.o(.bss)
    calendar                                 0x2000030c   Data          10  rtc.o(.bss)
    buf_uart1                                0x20000318   Data         264  usart.o(.bss)
    buf_uart2                                0x20000420   Data         264  usart.o(.bss)
    buf_uart3                                0x20000528   Data         264  usart.o(.bss)
    __libspace_start                         0x20000630   Data          96  libspace.o(.bss)
    __temporary_stack_top$libspace           0x20000690   Data           0  libspace.o(.bss)



==============================================================================

Memory Map of the image

  Image Entry point : 0x08000131

  Load Region LR_IROM1 (Base: 0x08000000, Size: 0x00006c20, Max: 0x00020000, ABSOLUTE, COMPRESSED[0x00006b0c])

    Execution Region ER_IROM1 (Exec base: 0x08000000, Load base: 0x08000000, Size: 0x00006a88, Max: 0x00020000, ABSOLUTE)

    Exec Addr    Load Addr    Size         Type   Attr      Idx    E Section Name        Object

    0x08000000   0x08000000   0x00000130   Data   RO          502    RESET               startup_stm32f10x_hd.o
    0x08000130   0x08000130   0x00000008   Code   RO          811  * !!!main             c_w.l(__main.o)
    0x08000138   0x08000138   0x00000034   Code   RO         1047    !!!scatter          c_w.l(__scatter.o)
    0x0800016c   0x0800016c   0x0000005a   Code   RO         1045    !!dczerorl2         c_w.l(__dczerorl2.o)
    0x080001c6   0x080001c6   0x00000002   PAD
    0x080001c8   0x080001c8   0x0000001c   Code   RO         1049    !!handler_zi        c_w.l(__scatter_zi.o)
    0x080001e4   0x080001e4   0x00000000   Code   RO          800    .ARM.Collect$$_printf_percent$$00000000  c_w.l(_printf_percent.o)
    0x080001e4   0x080001e4   0x00000006   Code   RO          799    .ARM.Collect$$_printf_percent$$00000003  c_w.l(_printf_f.o)
    0x080001ea   0x080001ea   0x00000006   Code   RO          797    .ARM.Collect$$_printf_percent$$00000009  c_w.l(_printf_d.o)
    0x080001f0   0x080001f0   0x00000006   Code   RO          798    .ARM.Collect$$_printf_percent$$0000000A  c_w.l(_printf_u.o)
    0x080001f6   0x080001f6   0x00000006   Code   RO          796    .ARM.Collect$$_printf_percent$$0000000C  c_w.l(_printf_x.o)
    0x080001fc   0x080001fc   0x00000006   Code   RO          794    .ARM.Collect$$_printf_percent$$00000013  c_w.l(_printf_c.o)
    0x08000202   0x08000202   0x00000006   Code   RO          795    .ARM.Collect$$_printf_percent$$00000014  c_w.l(_printf_s.o)
    0x08000208   0x08000208   0x00000004   Code   RO          840    .ARM.Collect$$_printf_percent$$00000017  c_w.l(_printf_percent_end.o)
    0x0800020c   0x0800020c   0x00000002   Code   RO          922    .ARM.Collect$$libinit$$00000000  c_w.l(libinit.o)
    0x0800020e   0x0800020e   0x00000000   Code   RO          924    .ARM.Collect$$libinit$$00000002  c_w.l(libinit2.o)
    0x0800020e   0x0800020e   0x00000000   Code   RO          926    .ARM.Collect$$libinit$$00000004  c_w.l(libinit2.o)
    0x0800020e   0x0800020e   0x00000000   Code   RO          929    .ARM.Collect$$libinit$$0000000A  c_w.l(libinit2.o)
    0x0800020e   0x0800020e   0x00000000   Code   RO          931    .ARM.Collect$$libinit$$0000000C  c_w.l(libinit2.o)
    0x0800020e   0x0800020e   0x00000000   Code   RO          933    .ARM.Collect$$libinit$$0000000E  c_w.l(libinit2.o)
    0x0800020e   0x0800020e   0x00000006   Code   RO          934    .ARM.Collect$$libinit$$0000000F  c_w.l(libinit2.o)
    0x08000214   0x08000214   0x00000000   Code   RO          936    .ARM.Collect$$libinit$$00000011  c_w.l(libinit2.o)
    0x08000214   0x08000214   0x00000000   Code   RO          938    .ARM.Collect$$libinit$$00000013  c_w.l(libinit2.o)
    0x08000214   0x08000214   0x00000000   Code   RO          940    .ARM.Collect$$libinit$$00000015  c_w.l(libinit2.o)
    0x08000214   0x08000214   0x0000000a   Code   RO          941    .ARM.Collect$$libinit$$00000016  c_w.l(libinit2.o)
    0x0800021e   0x0800021e   0x00000000   Code   RO          942    .ARM.Collect$$libinit$$00000017  c_w.l(libinit2.o)
    0x0800021e   0x0800021e   0x00000000   Code   RO          944    .ARM.Collect$$libinit$$00000019  c_w.l(libinit2.o)
    0x0800021e   0x0800021e   0x00000000   Code   RO          946    .ARM.Collect$$libinit$$0000001B  c_w.l(libinit2.o)
    0x0800021e   0x0800021e   0x00000000   Code   RO          948    .ARM.Collect$$libinit$$0000001D  c_w.l(libinit2.o)
    0x0800021e   0x0800021e   0x00000000   Code   RO          950    .ARM.Collect$$libinit$$0000001F  c_w.l(libinit2.o)
    0x0800021e   0x0800021e   0x00000000   Code   RO          952    .ARM.Collect$$libinit$$00000021  c_w.l(libinit2.o)
    0x0800021e   0x0800021e   0x00000000   Code   RO          954    .ARM.Collect$$libinit$$00000023  c_w.l(libinit2.o)
    0x0800021e   0x0800021e   0x00000000   Code   RO          956    .ARM.Collect$$libinit$$00000025  c_w.l(libinit2.o)
    0x0800021e   0x0800021e   0x00000000   Code   RO          960    .ARM.Collect$$libinit$$0000002C  c_w.l(libinit2.o)
    0x0800021e   0x0800021e   0x00000000   Code   RO          962    .ARM.Collect$$libinit$$0000002E  c_w.l(libinit2.o)
    0x0800021e   0x0800021e   0x00000000   Code   RO          964    .ARM.Collect$$libinit$$00000030  c_w.l(libinit2.o)
    0x0800021e   0x0800021e   0x00000000   Code   RO          966    .ARM.Collect$$libinit$$00000032  c_w.l(libinit2.o)
    0x0800021e   0x0800021e   0x00000002   Code   RO          967    .ARM.Collect$$libinit$$00000033  c_w.l(libinit2.o)
    0x08000220   0x08000220   0x00000002   Code   RO          995    .ARM.Collect$$libshutdown$$00000000  c_w.l(libshutdown.o)
    0x08000222   0x08000222   0x00000000   Code   RO         1004    .ARM.Collect$$libshutdown$$00000002  c_w.l(libshutdown2.o)
    0x08000222   0x08000222   0x00000000   Code   RO         1006    .ARM.Collect$$libshutdown$$00000004  c_w.l(libshutdown2.o)
    0x08000222   0x08000222   0x00000000   Code   RO         1009    .ARM.Collect$$libshutdown$$00000007  c_w.l(libshutdown2.o)
    0x08000222   0x08000222   0x00000000   Code   RO         1012    .ARM.Collect$$libshutdown$$0000000A  c_w.l(libshutdown2.o)
    0x08000222   0x08000222   0x00000000   Code   RO         1014    .ARM.Collect$$libshutdown$$0000000C  c_w.l(libshutdown2.o)
    0x08000222   0x08000222   0x00000000   Code   RO         1017    .ARM.Collect$$libshutdown$$0000000F  c_w.l(libshutdown2.o)
    0x08000222   0x08000222   0x00000002   Code   RO         1018    .ARM.Collect$$libshutdown$$00000010  c_w.l(libshutdown2.o)
    0x08000224   0x08000224   0x00000000   Code   RO          827    .ARM.Collect$$rtentry$$00000000  c_w.l(__rtentry.o)
    0x08000224   0x08000224   0x00000000   Code   RO          847    .ARM.Collect$$rtentry$$00000002  c_w.l(__rtentry2.o)
    0x08000224   0x08000224   0x00000006   Code   RO          859    .ARM.Collect$$rtentry$$00000004  c_w.l(__rtentry4.o)
    0x0800022a   0x0800022a   0x00000000   Code   RO          849    .ARM.Collect$$rtentry$$00000009  c_w.l(__rtentry2.o)
    0x0800022a   0x0800022a   0x00000004   Code   RO          850    .ARM.Collect$$rtentry$$0000000A  c_w.l(__rtentry2.o)
    0x0800022e   0x0800022e   0x00000000   Code   RO          852    .ARM.Collect$$rtentry$$0000000C  c_w.l(__rtentry2.o)
    0x0800022e   0x0800022e   0x00000008   Code   RO          853    .ARM.Collect$$rtentry$$0000000D  c_w.l(__rtentry2.o)
    0x08000236   0x08000236   0x00000002   Code   RO          968    .ARM.Collect$$rtexit$$00000000  c_w.l(rtexit.o)
    0x08000238   0x08000238   0x00000000   Code   RO          975    .ARM.Collect$$rtexit$$00000002  c_w.l(rtexit2.o)
    0x08000238   0x08000238   0x00000004   Code   RO          976    .ARM.Collect$$rtexit$$00000003  c_w.l(rtexit2.o)
    0x0800023c   0x0800023c   0x00000006   Code   RO          977    .ARM.Collect$$rtexit$$00000004  c_w.l(rtexit2.o)
    0x08000242   0x08000242   0x00000002   PAD
    0x08000244   0x08000244   0x00000020   Code   RO          489    .emb_text           core_cm3.o
    0x08000264   0x08000264   0x000002cc   Code   RO            1    .text               main.o
    0x08000530   0x08000530   0x0000001a   Code   RO          113    .text               stm32f10x_it.o
    0x0800054a   0x0800054a   0x00000002   PAD
    0x0800054c   0x0800054c   0x0000024c   Code   RO          148    .text               system_stm32f10x.o
    0x08000798   0x08000798   0x000000dc   Code   RO          166    .text               misc.o
    0x08000874   0x08000874   0x000005bc   Code   RO          310    .text               stm32f10x_flash.o
    0x08000e30   0x08000e30   0x0000035c   Code   RO          334    .text               stm32f10x_gpio.o
    0x0800118c   0x0800118c   0x000003a4   Code   RO          391    .text               stm32f10x_rcc.o
    0x08001530   0x08001530   0x00000e1a   Code   RO          450    .text               stm32f10x_tim.o
    0x0800234a   0x0800234a   0x00000002   PAD
    0x0800234c   0x0800234c   0x00000408   Code   RO          462    .text               stm32f10x_usart.o
    0x08002754   0x08002754   0x00000040   Code   RO          503    .text               startup_stm32f10x_hd.o
    0x08002794   0x08002794   0x000000dc   Code   RO          507    .text               led.o
    0x08002870   0x08002870   0x00000004   Code   RO          519    .text               wdg.o
    0x08002874   0x08002874   0x000000dc   Code   RO          531    .text               timer.o
    0x08002950   0x08002950   0x000003f8   Code   RO          544    .text               4g.o
    0x08002d48   0x08002d48   0x00000040   Code   RO          560    .text               crc.o
    0x08002d88   0x08002d88   0x0000002c   Code   RO          597    .text               unit.o
    0x08002db4   0x08002db4   0x00000614   Code   RO          609    .text               rtc.o
    0x080033c8   0x080033c8   0x000000d4   Code   RO          628    .text               delay.o
    0x0800349c   0x0800349c   0x000004bc   Code   RO          642    .text               sys.o
    0x08003958   0x08003958   0x00000404   Code   RO          654    .text               usart.o
    0x08003d5c   0x08003d5c   0x00000b34   Code   RO          677    .text               usmart.o
    0x08004890   0x08004890   0x00000108   Code   RO          709    .text               usmart_port.o
    0x08004998   0x08004998   0x00000570   Code   RO          721    .text               usmart_str.o
    0x08004f08   0x08004f08   0x00000002   Code   RO          735    .text               c_w.l(use_no_semi_2.o)
    0x08004f0a   0x08004f0a   0x00000002   PAD
    0x08004f0c   0x08004f0c   0x00000018   Code   RO          741    .text               c_w.l(noretval__2printf.o)
    0x08004f24   0x08004f24   0x00000028   Code   RO          743    .text               c_w.l(noretval__2sprintf.o)
    0x08004f4c   0x08004f4c   0x0000004e   Code   RO          747    .text               c_w.l(_printf_pad.o)
    0x08004f9a   0x08004f9a   0x00000052   Code   RO          749    .text               c_w.l(_printf_str.o)
    0x08004fec   0x08004fec   0x00000078   Code   RO          751    .text               c_w.l(_printf_dec.o)
    0x08005064   0x08005064   0x00000058   Code   RO          756    .text               c_w.l(_printf_hex_int.o)
    0x080050bc   0x080050bc   0x00000188   Code   RO          791    .text               c_w.l(__printf_flags_ss_wp.o)
    0x08005244   0x08005244   0x00000024   Code   RO          801    .text               c_w.l(strstr.o)
    0x08005268   0x08005268   0x0000003e   Code   RO          803    .text               c_w.l(strlen.o)
    0x080052a6   0x080052a6   0x00000044   Code   RO          805    .text               c_w.l(rt_memclr.o)
    0x080052ea   0x080052ea   0x0000004e   Code   RO          807    .text               c_w.l(rt_memclr_w.o)
    0x08005338   0x08005338   0x00000006   Code   RO          809    .text               c_w.l(heapauxi.o)
    0x0800533e   0x0800533e   0x00000002   Code   RO          825    .text               c_w.l(use_no_semi.o)
    0x08005340   0x08005340   0x000000b2   Code   RO          828    .text               c_w.l(_printf_intcommon.o)
    0x080053f2   0x080053f2   0x0000041e   Code   RO          830    .text               c_w.l(_printf_fp_dec.o)
    0x08005810   0x08005810   0x00000030   Code   RO          832    .text               c_w.l(_printf_char_common.o)
    0x08005840   0x08005840   0x0000000a   Code   RO          834    .text               c_w.l(_sputc.o)
    0x0800584a   0x0800584a   0x0000002c   Code   RO          836    .text               c_w.l(_printf_char.o)
    0x08005876   0x08005876   0x00000002   PAD
    0x08005878   0x08005878   0x00000024   Code   RO          838    .text               c_w.l(_printf_char_file.o)
    0x0800589c   0x0800589c   0x00000008   Code   RO          864    .text               c_w.l(rt_locale_intlibspace.o)
    0x080058a4   0x080058a4   0x0000008a   Code   RO          866    .text               c_w.l(lludiv10.o)
    0x0800592e   0x0800592e   0x00000002   PAD
    0x08005930   0x08005930   0x00000080   Code   RO          868    .text               c_w.l(_printf_fp_infnan.o)
    0x080059b0   0x080059b0   0x000000e4   Code   RO          872    .text               c_w.l(bigflt0.o)
    0x08005a94   0x08005a94   0x00000008   Code   RO          897    .text               c_w.l(ferror.o)
    0x08005a9c   0x08005a9c   0x00000008   Code   RO          908    .text               c_w.l(libspace.o)
    0x08005aa4   0x08005aa4   0x0000004a   Code   RO          911    .text               c_w.l(sys_stackheap_outer.o)
    0x08005aee   0x08005aee   0x00000012   Code   RO          913    .text               c_w.l(exit.o)
    0x08005b00   0x08005b00   0x00000080   Code   RO          915    .text               c_w.l(strcmpv7m.o)
    0x08005b80   0x08005b80   0x0000003e   Code   RO          875    CL$$btod_d2e        c_w.l(btod.o)
    0x08005bbe   0x08005bbe   0x00000046   Code   RO          877    CL$$btod_d2e_denorm_low  c_w.l(btod.o)
    0x08005c04   0x08005c04   0x00000060   Code   RO          876    CL$$btod_d2e_norm_op1  c_w.l(btod.o)
    0x08005c64   0x08005c64   0x00000338   Code   RO          885    CL$$btod_div_common  c_w.l(btod.o)
    0x08005f9c   0x08005f9c   0x000000dc   Code   RO          882    CL$$btod_e2e        c_w.l(btod.o)
    0x08006078   0x08006078   0x0000002a   Code   RO          879    CL$$btod_ediv       c_w.l(btod.o)
    0x080060a2   0x080060a2   0x0000002a   Code   RO          878    CL$$btod_emul       c_w.l(btod.o)
    0x080060cc   0x080060cc   0x00000244   Code   RO          884    CL$$btod_mult_common  c_w.l(btod.o)
    0x08006310   0x08006310   0x00000028   Code   RO          906    i.__ARM_fpclassify  m_ws.l(fpclassify.o)
    0x08006338   0x08006338   0x0000000e   Code   RO          784    i._is_digit         c_w.l(__printf_wp.o)
    0x08006346   0x08006346   0x00000002   PAD
    0x08006348   0x08006348   0x0000002c   Code   RO          902    locale$$code        c_w.l(lc_numeric_c.o)
    0x08006374   0x08006374   0x000002b0   Code   RO          814    x$fpl$ddiv          fz_ws.l(ddiv.o)
    0x08006624   0x08006624   0x0000002e   Code   RO          818    x$fpl$dflt          fz_ws.l(dflt_clz.o)
    0x08006652   0x08006652   0x0000009c   Code   RO          841    x$fpl$dnaninf       fz_ws.l(dnaninf.o)
    0x080066ee   0x080066ee   0x0000000c   Code   RO          843    x$fpl$dretinf       fz_ws.l(dretinf.o)
    0x080066fa   0x080066fa   0x00000004   Code   RO          823    x$fpl$printf1       fz_ws.l(printf1.o)
    0x080066fe   0x080066fe   0x00000000   Code   RO          845    x$fpl$usenofp       fz_ws.l(usenofp.o)
    0x080066fe   0x080066fe   0x00000028   Data   RO          757    .constdata          c_w.l(_printf_hex_int.o)
    0x08006726   0x08006726   0x00000011   Data   RO          792    .constdata          c_w.l(__printf_flags_ss_wp.o)
    0x08006737   0x08006737   0x00000001   PAD
    0x08006738   0x08006738   0x00000094   Data   RO          873    .constdata          c_w.l(bigflt0.o)
    0x080067cc   0x080067cc   0x0000005a   Data   RO            2    .conststring        main.o
    0x08006826   0x08006826   0x00000002   PAD
    0x08006828   0x08006828   0x00000028   Data   RO          678    .conststring        usmart.o
    0x08006850   0x08006850   0x000001fc   Data   RO          696    .conststring        usmart_config.o
    0x08006a4c   0x08006a4c   0x00000020   Data   RO         1043    Region$$Table       anon$$obj.o
    0x08006a6c   0x08006a6c   0x0000001c   Data   RO          901    locale$$data        c_w.l(lc_numeric_c.o)


    Execution Region RW_IRAM1 (Exec base: 0x20000000, Load base: 0x08006a88, Size: 0x00001290, Max: 0x00005000, ABSOLUTE, COMPRESSED[0x00000084])

    Exec Addr    Load Addr    Size         Type   Attr      Idx    E Section Name        Object

    0x20000000   COMPRESSED   0x00000014   Data   RW          149    .data               system_stm32f10x.o
    0x20000014   COMPRESSED   0x00000014   Data   RW          392    .data               stm32f10x_rcc.o
    0x20000028   COMPRESSED   0x0000000c   Data   RW          546    .data               4g.o
    0x20000034   COMPRESSED   0x00000002   Data   RW          611    .data               rtc.o
    0x20000036   COMPRESSED   0x00000004   Data   RW          629    .data               delay.o
    0x2000003a   COMPRESSED   0x00000002   PAD
    0x2000003c   COMPRESSED   0x00000004   Data   RW          656    .data               usart.o
    0x20000040   COMPRESSED   0x0000001c   Data   RW          679    .data               usmart.o
    0x2000005c   COMPRESSED   0x0000013c   Data   RW          697    .data               usmart_config.o
    0x20000198        -       0x00000173   Zero   RW          545    .bss                4g.o
    0x2000030b   COMPRESSED   0x00000001   PAD
    0x2000030c        -       0x0000000a   Zero   RW          610    .bss                rtc.o
    0x20000316   COMPRESSED   0x00000002   PAD
    0x20000318        -       0x00000318   Zero   RW          655    .bss                usart.o
    0x20000630        -       0x00000060   Zero   RW          909    .bss                c_w.l(libspace.o)
    0x20000690        -       0x00000400   Zero   RW          501    HEAP                startup_stm32f10x_hd.o
    0x20000a90        -       0x00000800   Zero   RW          500    STACK               startup_stm32f10x_hd.o


==============================================================================

Image component sizes


      Code (inc. data)   RO Data    RW Data    ZI Data      Debug   Object Name

      1016        286          0         12        371       2654   4g.o
        32          0          0          0          0        564   core_cm3.o
        64          0          0          0          0        943   crc.o
       212         18          0          4          0       1071   delay.o
       220         14          0          0          0        980   led.o
       716        174         90          0          0     259335   main.o
       220         22          0          0          0       1833   misc.o
      1556         92          0          2         10       5017   rtc.o
        64         26        304          0       3072        800   startup_stm32f10x_hd.o
      1468         34          0          0          0       8242   stm32f10x_flash.o
       860         38          0          0          0       5769   stm32f10x_gpio.o
        26          0          0          0          0       1198   stm32f10x_it.o
       932         36          0         20          0       8968   stm32f10x_rcc.o
      3610         88          0          0          0      22876   stm32f10x_tim.o
      1032         22          0          0          0       8492   stm32f10x_usart.o
      1212         48          0          0          0       4693   sys.o
       588         36          0         20          0       2045   system_stm32f10x.o
       220         14          0          0          0       1122   timer.o
        44          0          0          0          0       1021   unit.o
      1028         34          0          4        792       6359   usart.o
      2868       1292         40         28          0       3726   usmart.o
         0          0        508        316          0       1572   usmart_config.o
       264         18          0          0          0       1215   usmart_port.o
      1392         12          0          0          0       5465   usmart_str.o
         4          0          0          0          0        630   wdg.o

    ----------------------------------------------------------------------
     19652       2304        976        408       4248     356590   Object Totals
         0          0         32          0          0          0   (incl. Generated)
         4          0          2          2          3          0   (incl. Padding)

    ----------------------------------------------------------------------

      Code (inc. data)   RO Data    RW Data    ZI Data      Debug   Library Member Name

        90          0          0          0          0          0   __dczerorl2.o
         8          0          0          0          0         68   __main.o
       392          4         17          0          0         92   __printf_flags_ss_wp.o
        14          0          0          0          0         68   __printf_wp.o
         0          0          0          0          0          0   __rtentry.o
        12          0          0          0          0          0   __rtentry2.o
         6          0          0          0          0          0   __rtentry4.o
        52          8          0          0          0          0   __scatter.o
        28          0          0          0          0          0   __scatter_zi.o
         6          0          0          0          0          0   _printf_c.o
        44          0          0          0          0        108   _printf_char.o
        48          6          0          0          0         96   _printf_char_common.o
        36          4          0          0          0         80   _printf_char_file.o
         6          0          0          0          0          0   _printf_d.o
       120         16          0          0          0         92   _printf_dec.o
         6          0          0          0          0          0   _printf_f.o
      1054          0          0          0          0        216   _printf_fp_dec.o
       128         16          0          0          0         84   _printf_fp_infnan.o
        88          4         40          0          0         88   _printf_hex_int.o
       178          0          0          0          0         88   _printf_intcommon.o
        78          0          0          0          0        108   _printf_pad.o
         0          0          0          0          0          0   _printf_percent.o
         4          0          0          0          0          0   _printf_percent_end.o
         6          0          0          0          0          0   _printf_s.o
        82          0          0          0          0         80   _printf_str.o
         6          0          0          0          0          0   _printf_u.o
         6          0          0          0          0          0   _printf_x.o
        10          0          0          0          0         68   _sputc.o
       228          4        148          0          0         96   bigflt0.o
      1936        128          0          0          0        672   btod.o
        18          0          0          0          0         80   exit.o
         8          0          0          0          0         68   ferror.o
         6          0          0          0          0        152   heapauxi.o
        44         10         28          0          0         76   lc_numeric_c.o
         2          0          0          0          0          0   libinit.o
        18          0          0          0          0          0   libinit2.o
         2          0          0          0          0          0   libshutdown.o
         2          0          0          0          0          0   libshutdown2.o
         8          4          0          0         96         68   libspace.o
       138          0          0          0          0         80   lludiv10.o
        24          4          0          0          0         84   noretval__2printf.o
        40          6          0          0          0         84   noretval__2sprintf.o
         8          4          0          0          0         68   rt_locale_intlibspace.o
        68          0          0          0          0         68   rt_memclr.o
        78          0          0          0          0         80   rt_memclr_w.o
         2          0          0          0          0          0   rtexit.o
        10          0          0          0          0          0   rtexit2.o
       128          0          0          0          0         68   strcmpv7m.o
        62          0          0          0          0         76   strlen.o
        36          0          0          0          0         80   strstr.o
        74          0          0          0          0         80   sys_stackheap_outer.o
         2          0          0          0          0         68   use_no_semi.o
         2          0          0          0          0         68   use_no_semi_2.o
       688        140          0          0          0        208   ddiv.o
        46          0          0          0          0         68   dflt_clz.o
       156          4          0          0          0         92   dnaninf.o
        12          0          0          0          0         68   dretinf.o
         4          0          0          0          0         68   printf1.o
         0          0          0          0          0          0   usenofp.o
        40          0          0          0          0         68   fpclassify.o

    ----------------------------------------------------------------------
      6410        362        234          0         96       4024   Library Totals
        12          0          1          0          0          0   (incl. Padding)

    ----------------------------------------------------------------------

      Code (inc. data)   RO Data    RW Data    ZI Data      Debug   Library Name

      5452        218        233          0         96       3452   c_w.l
       906        144          0          0          0        504   fz_ws.l
        40          0          0          0          0         68   m_ws.l

    ----------------------------------------------------------------------
      6410        362        234          0         96       4024   Library Totals

    ----------------------------------------------------------------------

==============================================================================


      Code (inc. data)   RO Data    RW Data    ZI Data      Debug   

     26062       2666       1210        408       4344     356138   Grand Totals
     26062       2666       1210        132       4344     356138   ELF Image Totals (compressed)
     26062       2666       1210        132          0          0   ROM Totals

==============================================================================

    Total RO  Size (Code + RO Data)                27272 (  26.63kB)
    Total RW  Size (RW Data + ZI Data)              4752 (   4.64kB)
    Total ROM Size (Code + RO Data + RW Data)      27404 (  26.76kB)

==============================================================================

